{
  "contractName": "BallotList",
  "abi": [
    {
      "inputs": [
        {
          "internalType": "address payable",
          "name": "eniko_",
          "type": "address"
        }
      ],
      "stateMutability": "nonpayable",
      "type": "constructor"
    },
    {
      "inputs": [],
      "name": "destroy",
      "outputs": [],
      "stateMutability": "nonpayable",
      "type": "function"
    },
    {
      "inputs": [],
      "name": "getBallots",
      "outputs": [
        {
          "internalType": "address[]",
          "name": "list_",
          "type": "address[]"
        }
      ],
      "stateMutability": "view",
      "type": "function",
      "constant": true
    },
    {
      "inputs": [
        {
          "internalType": "address",
          "name": "ballot_",
          "type": "address"
        }
      ],
      "name": "addBallot",
      "outputs": [],
      "stateMutability": "nonpayable",
      "type": "function"
    },
    {
      "inputs": [
        {
          "internalType": "address",
          "name": "ballot_",
          "type": "address"
        }
      ],
      "name": "removeBallot",
      "outputs": [],
      "stateMutability": "nonpayable",
      "type": "function"
    }
  ],
  "bytecode": "0x608060405234801561001057600080fd5b506040516105173803806105178339818101604052602081101561003357600080fd5b5051600080546001600160a01b039092166001600160a01b03199092169190911790556104b2806100656000396000f3fe608060405234801561001057600080fd5b506004361061004c5760003560e01c806383197ef014610051578063d71c67721461005b578063eb87c6dc14610081578063f8c74afa146100d9575b600080fd5b6100596100ff565b005b6100596004803603602081101561007157600080fd5b50356001600160a01b0316610152565b61008961030f565b60408051602080825283518183015283519192839290830191858101910280838360005b838110156100c55781810151838201526020016100ad565b505050509050019250505060405180910390f35b610059600480360360208110156100ef57600080fd5b50356001600160a01b0316610371565b6000546001600160a01b03163314610144576040805162461bcd60e51b815260206004820152600360248201526234303360e81b604482015290519081900360640190fd5b6000546001600160a01b0316ff5b600054604080516318860ac560e21b81526007600482015290516001600160a01b03909216916362182b1491602480820192602092909190829003018186803b15801561019e57600080fd5b505afa1580156101b2573d6000803e3d6000fd5b505050506040513d60208110156101c857600080fd5b50516001600160a01b0316331461020c576040805162461bcd60e51b815260206004820152600360248201526234303360e81b604482015290519081900360640190fd5b6000805b6001548110156102c957826001600160a01b03166001828154811061023157fe5b6000918252602090912001546001600160a01b03161415610257576001909101906102c1565b81156102c1576001818154811061026a57fe5b600091825260209091200154600180546001600160a01b039092169184840390811061029257fe5b9060005260206000200160006101000a8154816001600160a01b0302191690836001600160a01b031602179055505b600101610210565b5060005b8181101561030a5760018054806102e057fe5b600082815260209020810160001990810180546001600160a01b03191690550190556001016102cd565b505050565b6060600180548060200260200160405190810160405280929190818152602001828054801561036757602002820191906000526020600020905b81546001600160a01b03168152600190910190602001808311610349575b5050505050905090565b600054604080516318860ac560e21b81526007600482015290516001600160a01b03909216916362182b1491602480820192602092909190829003018186803b1580156103bd57600080fd5b505afa1580156103d1573d6000803e3d6000fd5b505050506040513d60208110156103e757600080fd5b50516001600160a01b0316331461042b576040805162461bcd60e51b815260206004820152600360248201526234303360e81b604482015290519081900360640190fd5b6001805480820182556000919091527fb10e2d527612073b26eecdfd717e6a320cf44b4afac2b0732d9fcbe2b7fa0cf60180546001600160a01b0319166001600160a01b039290921691909117905556fea2646970667358221220cdcf7038a429bac4734fbaeb2b3a5f4c947f4ecd8d99e6fda29c629eab990a3364736f6c63430007050033",
  "immutableReferences": {},
  "source": "// SPDX-License-Identifier: GPL-3.0\r\npragma solidity ^0.7.5;\r\n\r\nimport './Eniko.sol';\r\n\r\ncontract BallotList is EnikoApp {\r\n    address[] private list;         // A list of all ballots\r\n\r\n    constructor(address payable eniko_) {\r\n        eniko = eniko_;\r\n    }\r\n\r\n    modifier ballotFunctionsOnly {\r\n        require(msg.sender == Eniko(eniko).getAppAddress(7), \"403\");\r\n        _;\r\n    }\r\n    \r\n    function getBallots() external view returns(address[] memory list_) {\r\n        list_ = list;\r\n    }\r\n    \r\n    function addBallot(address ballot_) external ballotFunctionsOnly {\r\n        list.push(ballot_);\r\n    }\r\n    \r\n    function removeBallot(address ballot_) external ballotFunctionsOnly {\r\n        uint j = 0;\r\n        for (uint i = 0; i < list.length; i++) {\r\n            if (list[i] == ballot_) {\r\n                j++;\r\n            }\r\n            else {\r\n                if (j>0) {\r\n                    list[i-j] = list[i];\r\n                }\r\n            }\r\n        }\r\n        for (uint i = 0; i < j; i++) {\r\n            list.pop();\r\n        }\r\n    }\r\n\r\n}\r\n",
  "sourcePath": "C:/Users/Jonathan/OneDrive/Project Eniko/Eniko/contracts/BallotList.sol",
  "compiler": {
    "name": "solc",
    "version": "0.7.5+commit.eb77ed08.Emscripten.clang"
  },
  "schemaVersion": "3.3.4",
  "updatedAt": "2021-04-03T11:11:40.816Z",
  "networkType": "ethereum",
  "devdoc": {
    "kind": "dev",
    "methods": {},
    "version": 1
  },
  "userdoc": {
    "kind": "user",
    "methods": {},
    "version": 1
  }
}