{
  "contractName": "BallotFunctions",
  "abi": [
    {
      "inputs": [
        {
          "internalType": "address payable",
          "name": "eniko_",
          "type": "address"
        }
      ],
      "stateMutability": "nonpayable",
      "type": "constructor"
    },
    {
      "inputs": [],
      "name": "destroy",
      "outputs": [],
      "stateMutability": "nonpayable",
      "type": "function"
    },
    {
      "inputs": [
        {
          "internalType": "address",
          "name": "ballot_",
          "type": "address"
        }
      ],
      "name": "getVoteOptionsCount",
      "outputs": [
        {
          "internalType": "uint256",
          "name": "count_",
          "type": "uint256"
        }
      ],
      "stateMutability": "view",
      "type": "function",
      "constant": true
    },
    {
      "inputs": [
        {
          "internalType": "address",
          "name": "ballot_",
          "type": "address"
        },
        {
          "internalType": "uint256",
          "name": "option_",
          "type": "uint256"
        }
      ],
      "name": "getResult",
      "outputs": [
        {
          "internalType": "uint256",
          "name": "result_",
          "type": "uint256"
        }
      ],
      "stateMutability": "view",
      "type": "function",
      "constant": true
    },
    {
      "inputs": [
        {
          "internalType": "address",
          "name": "ballot_",
          "type": "address"
        },
        {
          "internalType": "uint256",
          "name": "option_",
          "type": "uint256"
        }
      ],
      "name": "getVoteOptionTitle",
      "outputs": [
        {
          "internalType": "bytes32",
          "name": "title_",
          "type": "bytes32"
        }
      ],
      "stateMutability": "view",
      "type": "function",
      "constant": true
    },
    {
      "inputs": [
        {
          "internalType": "address",
          "name": "ballot_",
          "type": "address"
        },
        {
          "internalType": "uint256",
          "name": "option_",
          "type": "uint256"
        }
      ],
      "name": "getVoteOptionAddress",
      "outputs": [
        {
          "internalType": "address",
          "name": "address_",
          "type": "address"
        }
      ],
      "stateMutability": "view",
      "type": "function",
      "constant": true
    },
    {
      "inputs": [
        {
          "internalType": "address",
          "name": "ballot_",
          "type": "address"
        }
      ],
      "name": "getTitle",
      "outputs": [
        {
          "internalType": "string",
          "name": "title_",
          "type": "string"
        }
      ],
      "stateMutability": "view",
      "type": "function",
      "constant": true
    },
    {
      "inputs": [
        {
          "internalType": "address",
          "name": "ballot_",
          "type": "address"
        }
      ],
      "name": "getDetails",
      "outputs": [
        {
          "internalType": "string",
          "name": "details_",
          "type": "string"
        }
      ],
      "stateMutability": "view",
      "type": "function",
      "constant": true
    },
    {
      "inputs": [
        {
          "internalType": "address",
          "name": "ballot_",
          "type": "address"
        }
      ],
      "name": "getProposer",
      "outputs": [
        {
          "internalType": "address",
          "name": "proposer_",
          "type": "address"
        }
      ],
      "stateMutability": "view",
      "type": "function",
      "constant": true
    },
    {
      "inputs": [
        {
          "internalType": "address",
          "name": "ballot_",
          "type": "address"
        }
      ],
      "name": "getCloseTime",
      "outputs": [
        {
          "internalType": "uint256",
          "name": "closeTime_",
          "type": "uint256"
        }
      ],
      "stateMutability": "view",
      "type": "function",
      "constant": true
    },
    {
      "inputs": [
        {
          "internalType": "address",
          "name": "ballot_",
          "type": "address"
        }
      ],
      "name": "isBallotOpen",
      "outputs": [
        {
          "internalType": "bool",
          "name": "ballotOpen_",
          "type": "bool"
        }
      ],
      "stateMutability": "view",
      "type": "function",
      "constant": true
    },
    {
      "inputs": [],
      "name": "getBallots",
      "outputs": [
        {
          "internalType": "address[]",
          "name": "ballots_",
          "type": "address[]"
        }
      ],
      "stateMutability": "view",
      "type": "function",
      "constant": true
    },
    {
      "inputs": [
        {
          "internalType": "address",
          "name": "ballot_",
          "type": "address"
        },
        {
          "internalType": "address",
          "name": "node_",
          "type": "address"
        }
      ],
      "name": "getCurrentVote",
      "outputs": [
        {
          "internalType": "address",
          "name": "choice_",
          "type": "address"
        }
      ],
      "stateMutability": "view",
      "type": "function",
      "constant": true
    },
    {
      "inputs": [
        {
          "internalType": "address",
          "name": "ballot_",
          "type": "address"
        },
        {
          "internalType": "address",
          "name": "node_",
          "type": "address"
        }
      ],
      "name": "getNodeFollowers",
      "outputs": [
        {
          "internalType": "address[]",
          "name": "followers_",
          "type": "address[]"
        }
      ],
      "stateMutability": "view",
      "type": "function",
      "constant": true
    },
    {
      "inputs": [
        {
          "internalType": "address",
          "name": "ballot_",
          "type": "address"
        },
        {
          "internalType": "address",
          "name": "parent_",
          "type": "address"
        },
        {
          "internalType": "address",
          "name": "descendant_",
          "type": "address"
        }
      ],
      "name": "isDescendant",
      "outputs": [
        {
          "internalType": "bool",
          "name": "isDescendant_",
          "type": "bool"
        }
      ],
      "stateMutability": "view",
      "type": "function",
      "constant": true
    },
    {
      "inputs": [
        {
          "internalType": "string",
          "name": "title_",
          "type": "string"
        },
        {
          "internalType": "string",
          "name": "details_",
          "type": "string"
        },
        {
          "internalType": "bytes32[]",
          "name": "options_",
          "type": "bytes32[]"
        },
        {
          "internalType": "uint256",
          "name": "enikoApp_",
          "type": "uint256"
        },
        {
          "internalType": "address[]",
          "name": "appAddresses_",
          "type": "address[]"
        },
        {
          "internalType": "uint256",
          "name": "length_",
          "type": "uint256"
        }
      ],
      "name": "createBallot",
      "outputs": [],
      "stateMutability": "nonpayable",
      "type": "function"
    },
    {
      "inputs": [
        {
          "internalType": "address",
          "name": "ballot_",
          "type": "address"
        },
        {
          "internalType": "address",
          "name": "newChoice_",
          "type": "address"
        },
        {
          "internalType": "address",
          "name": "consequence_",
          "type": "address"
        }
      ],
      "name": "changeMyVote",
      "outputs": [],
      "stateMutability": "nonpayable",
      "type": "function"
    },
    {
      "inputs": [
        {
          "internalType": "address",
          "name": "ballot_",
          "type": "address"
        }
      ],
      "name": "manuallyCloseBallot",
      "outputs": [],
      "stateMutability": "nonpayable",
      "type": "function"
    },
    {
      "inputs": [
        {
          "internalType": "address",
          "name": "ballot_",
          "type": "address"
        }
      ],
      "name": "deleteBallot",
      "outputs": [],
      "stateMutability": "nonpayable",
      "type": "function"
    }
  ],
  "bytecode": "0x608060405234801561001057600080fd5b506040516138863803806138868339818101604052602081101561003357600080fd5b5051600080546001600160a01b039092166001600160a01b0319909216919091179055613821806100656000396000f3fe608060405234801561001057600080fd5b50600436106101165760003560e01c8063a51f390b116100a2578063d918be0e11610071578063d918be0e1461064b578063e556b7ed14610671578063eb87c6dc14610697578063f45dc8ce1461069f578063f51d7d5f146106c557610116565b8063a51f390b1461056f578063b51a1970146105ad578063c8344a20146105f9578063cec8ac7d1461062557610116565b80634664f7b3116100e95780634664f7b31461044d5780637a4416aa1461049557806383197ef014610513578063851a974c1461051b578063867568951461054157610116565b80630c4d8d611461011b578063145e1e5c1461015557806330289c611461017b5780633fc3cfe614610216575b600080fd5b6101536004803603606081101561013157600080fd5b506001600160a01b0381358116916020810135821691604090910135166106eb565b005b6101536004803603602081101561016b57600080fd5b50356001600160a01b0316610da1565b6101a16004803603602081101561019157600080fd5b50356001600160a01b0316610f0c565b6040805160208082528351818301528351919283929083019185019080838360005b838110156101db5781810151838201526020016101c3565b50505050905090810190601f1680156102085780820380516001836020036101000a031916815260200191505b509250505060405180910390f35b610153600480360360c081101561022c57600080fd5b810190602081018135600160201b81111561024657600080fd5b82018360208201111561025857600080fd5b803590602001918460018302840111600160201b8311171561027957600080fd5b91908080601f0160208091040260200160405190810160405280939291908181526020018383808284376000920191909152509295949360208101935035915050600160201b8111156102cb57600080fd5b8201836020820111156102dd57600080fd5b803590602001918460018302840111600160201b831117156102fe57600080fd5b91908080601f0160208091040260200160405190810160405280939291908181526020018383808284376000920191909152509295949360208101935035915050600160201b81111561035057600080fd5b82018360208201111561036257600080fd5b803590602001918460208302840111600160201b8311171561038357600080fd5b91908080602002602001604051908101604052809392919081815260200183836020028082843760009201919091525092958435959094909350604081019250602001359050600160201b8111156103da57600080fd5b8201836020820111156103ec57600080fd5b803590602001918460208302840111600160201b8311171561040d57600080fd5b9190808060200260200160405190810160405280939291908181526020018383602002808284376000920191909152509295505091359250611039915050565b6104796004803603604081101561046357600080fd5b506001600160a01b038135169060200135611bc6565b604080516001600160a01b039092168252519081900360200190f35b6104c3600480360360408110156104ab57600080fd5b506001600160a01b0381358116916020013516611ce8565b60408051602080825283518183015283519192839290830191858101910280838360005b838110156104ff5781810151838201526020016104e7565b505050509050019250505060405180910390f35b610153611e06565b6104796004803603602081101561053157600080fd5b50356001600160a01b0316611e59565b6104796004803603604081101561055757600080fd5b506001600160a01b0381358116916020013516611ec6565b61059b6004803603604081101561058557600080fd5b506001600160a01b038135169060200135611f15565b60408051918252519081900360200190f35b6105e5600480360360608110156105c357600080fd5b506001600160a01b038135811691602081013582169160409091013516612084565b604080519115158252519081900360200190f35b61059b6004803603604081101561060f57600080fd5b506001600160a01b038135169060200135612184565b6105e56004803603602081101561063b57600080fd5b50356001600160a01b031661232b565b6101536004803603602081101561066157600080fd5b50356001600160a01b0316612366565b61059b6004803603602081101561068757600080fd5b50356001600160a01b031661241c565b6104c3612457565b61059b600480360360208110156106b557600080fd5b50356001600160a01b0316612565565b6101a1600480360360208110156106db57600080fd5b50356001600160a01b03166125a0565b6000839050806001600160a01b031663532fe73b6040518163ffffffff1660e01b815260040160206040518083038186803b15801561072957600080fd5b505afa15801561073d573d6000803e3d6000fd5b505050506040513d602081101561075357600080fd5b5051610796576040805162461bcd60e51b815260206004820152600d60248201526c10985b1b1bdd0818db1bdcd959609a1b604482015290519081900360640190fd5b42816001600160a01b031663627749e66040518163ffffffff1660e01b815260040160206040518083038186803b1580156107d057600080fd5b505afa1580156107e4573d6000803e3d6000fd5b505050506040513d60208110156107fa57600080fd5b505110156108105761080b816125db565b610d9b565b33610819612823565b6001600160a01b0316630ab30093846040518263ffffffff1660e01b815260040180826001600160a01b0316815260200191505060206040518083038186803b15801561086557600080fd5b505afa158015610879573d6000803e3d6000fd5b505050506040513d602081101561088f57600080fd5b50516001600160a01b0316146108d2576040805162461bcd60e51b815260206004820152600360248201526234303360e81b604482015290519081900360640190fd5b6000805b811580156109475750826001600160a01b0316639d0a0f796040518163ffffffff1660e01b815260040160206040518083038186803b15801561091857600080fd5b505afa15801561092c573d6000803e3d6000fd5b505050506040513d602081101561094257600080fd5b505181105b156109d8576109c686846001600160a01b0316634704d8ec846040518263ffffffff1660e01b81526004018082815260200191505060206040518083038186803b15801561099457600080fd5b505afa1580156109a8573d6000803e3d6000fd5b505050506040513d60208110156109be57600080fd5b5051866128a0565b156109d057600191505b6001016108d6565b81610a2a576040805162461bcd60e51b815260206004820152601760248201527f436f6e73657175656e636520686173206e6f20766f7465000000000000000000604482015290519081900360640190fd5b826001600160a01b03166365d4176f866040518263ffffffff1660e01b815260040180826001600160a01b0316815260200191505060206040518083038186803b158015610a7757600080fd5b505afa158015610a8b573d6000803e3d6000fd5b505050506040513d6020811015610aa157600080fd5b5051610ae5576040805162461bcd60e51b815260206004820152600e60248201526d496e76616c69642063686f69636560901b604482015290519081900360640190fd5b610af08685876128a0565b158015610b0f5750836001600160a01b0316856001600160a01b031614155b610b50576040805162461bcd60e51b815260206004820152600d60248201526c43697263756c617220766f746560981b604482015290519081900360640190fd5b826001600160a01b031663940015da846001600160a01b031663211aa933876040518263ffffffff1660e01b815260040180826001600160a01b0316815260200191505060206040518083038186803b158015610bac57600080fd5b505afa158015610bc0573d6000803e3d6000fd5b505050506040513d6020811015610bd657600080fd5b5051604080516001600160e01b031960e085901b1681526001600160a01b039283166004820152918816602483015251604480830192600092919082900301818387803b158015610c2657600080fd5b505af1158015610c3a573d6000803e3d6000fd5b50505050826001600160a01b0316632415086b86866040518363ffffffff1660e01b815260040180836001600160a01b03168152602001826001600160a01b0316815260200192505050600060405180830381600087803b158015610c9e57600080fd5b505af1158015610cb2573d6000803e3d6000fd5b50505050826001600160a01b0316631cbdc6c985876040518363ffffffff1660e01b815260040180836001600160a01b03168152602001826001600160a01b0316815260200192505050600060405180830381600087803b158015610d1657600080fd5b505af1158015610d2a573d6000803e3d6000fd5b5050604080516309b028cb60e41b81526001600160a01b0388811660048301526001602483015291519187169350639b028cb0925060448082019260009290919082900301818387803b158015610d8057600080fd5b505af1158015610d94573d6000803e3d6000fd5b5050505050505b50505050565b806001600160a01b031663a8e4fb906040518163ffffffff1660e01b815260040160206040518083038186803b158015610dda57600080fd5b505afa158015610dee573d6000803e3d6000fd5b505050506040513d6020811015610e0457600080fd5b50516001600160a01b03163314610e48576040805162461bcd60e51b815260206004820152600360248201526234303360e81b604482015290519081900360640190fd5b610e50612b08565b6001600160a01b031663d71c6772826040518263ffffffff1660e01b815260040180826001600160a01b03168152602001915050600060405180830381600087803b158015610e9e57600080fd5b505af1158015610eb2573d6000803e3d6000fd5b50505050806001600160a01b03166383197ef06040518163ffffffff1660e01b8152600401600060405180830381600087803b158015610ef157600080fd5b505af1158015610f05573d6000803e3d6000fd5b5050505050565b6060816001600160a01b031663565974d36040518163ffffffff1660e01b815260040160006040518083038186803b158015610f4757600080fd5b505afa158015610f5b573d6000803e3d6000fd5b505050506040513d6000823e601f3d908101601f191682016040526020811015610f8457600080fd5b8101908080516040519392919084600160201b821115610fa357600080fd5b908301906020820185811115610fb857600080fd5b8251600160201b811182820188101715610fd157600080fd5b82525081516020918201929091019080838360005b83811015610ffe578181015183820152602001610fe6565b50505050905090810190601f16801561102b5780820380516001836020036101000a031916815260200191505b506040525050509050919050565b604086511061108f576040805162461bcd60e51b815260206004820181905260248201527f5469746c65206d757374206265206c657373207468616e203634206279746573604482015290519081900360640190fd5b60008054906101000a90046001600160a01b03166001600160a01b031663946bcc306040518163ffffffff1660e01b815260040160206040518083038186803b1580156110db57600080fd5b505afa1580156110ef573d6000803e3d6000fd5b505050506040513d602081101561110557600080fd5b50516001600160a01b03163314611149576040805162461bcd60e51b815260206004820152600360248201526234303360e81b604482015290519081900360640190fd5b6000600e821015611160575062127500420161116a565b5042620151808202015b60008054604080516318860ac560e21b81526008600482015290516001600160a01b03909216916362182b1491602480820192602092909190829003018186803b1580156111b757600080fd5b505afa1580156111cb573d6000803e3d6000fd5b505050506040513d60208110156111e157600080fd5b5051604080516348aae83960e11b815290516001600160a01b0390921691639155d072916004808201926020929091908290030181600087803b15801561122757600080fd5b505af115801561123b573d6000803e3d6000fd5b505050506040513d602081101561125157600080fd5b5051604051630394885f60e51b81526020600482018181528b5160248401528b519394506001600160a01b038516936372910be0938d9383926044909201919085019080838360005b838110156112b257818101518382015260200161129a565b50505050905090810190601f1680156112df5780820380516001836020036101000a031916815260200191505b5092505050600060405180830381600087803b1580156112fe57600080fd5b505af1158015611312573d6000803e3d6000fd5b5050604051633e8a800960e01b81526020600482018181528b5160248401528b516001600160a01b0387169550633e8a800994508c9391928392604401919085019080838360005b8381101561137257818101518382015260200161135a565b50505050905090810190601f16801561139f5780820380516001836020036101000a031916815260200191505b5092505050600060405180830381600087803b1580156113be57600080fd5b505af11580156113d2573d6000803e3d6000fd5b50505050806001600160a01b031663bea6196b866040518263ffffffff1660e01b815260040180828152602001915050600060405180830381600087803b15801561141c57600080fd5b505af1158015611430573d6000803e3d6000fd5b5050604080516303f6944560e31b815233600482015290516001600160a01b0385169350631fb4a2289250602480830192600092919082900301818387803b15801561147b57600080fd5b505af115801561148f573d6000803e3d6000fd5b50506040805163b8d6e5c160e01b81526001600482015290516001600160a01b038516935063b8d6e5c19250602480830192600092919082900301818387803b1580156114db57600080fd5b505af11580156114ef573d6000803e3d6000fd5b50505050806001600160a01b0316633be3a3f5836040518263ffffffff1660e01b815260040180828152602001915050600060405180830381600087803b15801561153957600080fd5b505af115801561154d573d6000803e3d6000fd5b505050506000816620b139ba30b4b760c91b60405160200180836001600160a01b031660601b8152601401828152602001925050506040516020818303038152906040528051906020012060601c9050816001600160a01b0316631027a486826040518263ffffffff1660e01b815260040180826001600160a01b03168152602001915050600060405180830381600087803b1580156115ec57600080fd5b505af1158015611600573d6000803e3d6000fd5b505050506060826001600160a01b0316638ffb793c836620b139ba30b4b760c91b84600060016000806040518863ffffffff1660e01b815260040180886001600160a01b0316815260200187815260200180602001866001600160a01b0316815260200185151581526020018481526020018315158152602001828103825287818151815260200191508051906020019060200280838360005b838110156116b257818101518382015260200161169a565b5050505090500198505050505050505050600060405180830381600087803b1580156116dd57600080fd5b505af11580156116f1573d6000803e3d6000fd5b5050505086600014156118f25760005b88518110156118ec576620b139ba30b4b760c91b89828151811061172157fe5b6020026020010151146118e4576000848a838151811061173d57fe5b602002602001015160405160200180836001600160a01b031660601b8152601401828152602001925050506040516020818303038152906040528051906020012060601c9050846001600160a01b0316631027a486826040518263ffffffff1660e01b815260040180826001600160a01b03168152602001915050600060405180830381600087803b1580156117d257600080fd5b505af11580156117e6573d6000803e3d6000fd5b50505050846001600160a01b0316638ffb793c828c858151811061180657fe5b602002602001015186600060016000806040518863ffffffff1660e01b815260040180886001600160a01b0316815260200187815260200180602001866001600160a01b0316815260200185151581526020018481526020018315158152602001828103825287818151815260200191508051906020019060200280838360005b8381101561189f578181015183820152602001611887565b5050505090500198505050505050505050600060405180830381600087803b1580156118ca57600080fd5b505af11580156118de573d6000803e3d6000fd5b50505050505b600101611701565b50611ab2565b60005b8651811015611ab0576620b139ba30b4b760c91b89828151811061191557fe5b602002602001015114611aa857836001600160a01b0316631027a48688838151811061193d57fe5b60200260200101516040518263ffffffff1660e01b815260040180826001600160a01b03168152602001915050600060405180830381600087803b15801561198457600080fd5b505af1158015611998573d6000803e3d6000fd5b50505050836001600160a01b0316638ffb793c8883815181106119b757fe5b60200260200101518b84815181106119cb57fe5b602002602001015185600060016000806040518863ffffffff1660e01b815260040180886001600160a01b0316815260200187815260200180602001866001600160a01b0316815260200185151581526020018481526020018315158152602001828103825287818151815260200191508051906020019060200280838360005b83811015611a64578181015183820152602001611a4c565b5050505090500198505050505050505050600060405180830381600087803b158015611a8f57600080fd5b505af1158015611aa3573d6000803e3d6000fd5b505050505b6001016118f5565b505b60008060009054906101000a90046001600160a01b03166001600160a01b031663845606256040518163ffffffff1660e01b815260040160206040518083038186803b158015611b0157600080fd5b505afa158015611b15573d6000803e3d6000fd5b505050506040513d6020811015611b2b57600080fd5b50519050611b4184826000858760018380612b55565b611b4b8482612da6565b611b53612b08565b6001600160a01b031663f8c74afa856040518263ffffffff1660e01b815260040180826001600160a01b03168152602001915050600060405180830381600087803b158015611ba157600080fd5b505af1158015611bb5573d6000803e3d6000fd5b505050505050505050505050505050565b6000826001600160a01b0316639d0a0f796040518163ffffffff1660e01b815260040160206040518083038186803b158015611c0157600080fd5b505afa158015611c15573d6000803e3d6000fd5b505050506040513d6020811015611c2b57600080fd5b50518210611c71576040805162461bcd60e51b815260206004820152600e60248201526d24b73b30b634b21037b83a34b7b760911b604482015290519081900360640190fd5b826001600160a01b0316634704d8ec836040518263ffffffff1660e01b81526004018082815260200191505060206040518083038186803b158015611cb557600080fd5b505afa158015611cc9573d6000803e3d6000fd5b505050506040513d6020811015611cdf57600080fd5b50519392505050565b6060826001600160a01b0316636537b3af836040518263ffffffff1660e01b815260040180826001600160a01b0316815260200191505060006040518083038186803b158015611d3757600080fd5b505afa158015611d4b573d6000803e3d6000fd5b505050506040513d6000823e601f3d908101601f191682016040526020811015611d7457600080fd5b8101908080516040519392919084600160201b821115611d9357600080fd5b908301906020820185811115611da857600080fd5b82518660208202830111600160201b82111715611dc457600080fd5b82525081516020918201928201910280838360005b83811015611df1578181015183820152602001611dd9565b50505050905001604052505050905092915050565b6000546001600160a01b03163314611e4b576040805162461bcd60e51b815260206004820152600360248201526234303360e81b604482015290519081900360640190fd5b6000546001600160a01b0316ff5b6000816001600160a01b031663a8e4fb906040518163ffffffff1660e01b815260040160206040518083038186803b158015611e9457600080fd5b505afa158015611ea8573d6000803e3d6000fd5b505050506040513d6020811015611ebe57600080fd5b505192915050565b6000826001600160a01b031663211aa933836040518263ffffffff1660e01b815260040180826001600160a01b0316815260200191505060206040518083038186803b158015611cb557600080fd5b6000826001600160a01b0316639d0a0f796040518163ffffffff1660e01b815260040160206040518083038186803b158015611f5057600080fd5b505afa158015611f64573d6000803e3d6000fd5b505050506040513d6020811015611f7a57600080fd5b50518210611fc0576040805162461bcd60e51b815260206004820152600e60248201526d24b73b30b634b21037b83a34b7b760911b604482015290519081900360640190fd5b826001600160a01b0316632683abfe846001600160a01b0316634704d8ec856040518263ffffffff1660e01b81526004018082815260200191505060206040518083038186803b15801561201357600080fd5b505afa158015612027573d6000803e3d6000fd5b505050506040513d602081101561203d57600080fd5b5051604080516001600160e01b031960e085901b1681526001600160a01b039092166004830152516024808301926020929190829003018186803b158015611cb557600080fd5b60006001600160a01b03831661216f578360005b821580156121095750816001600160a01b0316639d0a0f796040518163ffffffff1660e01b815260040160206040518083038186803b1580156120da57600080fd5b505afa1580156120ee573d6000803e3d6000fd5b505050506040513d602081101561210457600080fd5b505181105b156121685761215686836001600160a01b0316634704d8ec846040518263ffffffff1660e01b81526004018082815260200191505060206040518083038186803b15801561099457600080fd5b1561216057600192505b600101612098565b505061217d565b61217a8484846128a0565b90505b9392505050565b600080839050806001600160a01b0316639d0a0f796040518163ffffffff1660e01b815260040160206040518083038186803b1580156121c357600080fd5b505afa1580156121d7573d6000803e3d6000fd5b505050506040513d60208110156121ed57600080fd5b50518310612233576040805162461bcd60e51b815260206004820152600e60248201526d24b73b30b634b21037b83a34b7b760911b604482015290519081900360640190fd5b806001600160a01b031663406d560a826001600160a01b0316634704d8ec866040518263ffffffff1660e01b81526004018082815260200191505060206040518083038186803b15801561228657600080fd5b505afa15801561229a573d6000803e3d6000fd5b505050506040513d60208110156122b057600080fd5b5051604080516001600160e01b031960e085901b1681526001600160a01b039092166004830152516024808301926020929190829003018186803b1580156122f757600080fd5b505afa15801561230b573d6000803e3d6000fd5b505050506040513d602081101561232157600080fd5b5051949350505050565b6000816001600160a01b031663532fe73b6040518163ffffffff1660e01b815260040160206040518083038186803b158015611e9457600080fd5b600081905042816001600160a01b031663627749e66040518163ffffffff1660e01b815260040160206040518083038186803b1580156123a557600080fd5b505afa1580156123b9573d6000803e3d6000fd5b505050506040513d60208110156123cf57600080fd5b50511061240f576040805162461bcd60e51b8152602060048201526009602482015268546f6f206561726c7960b81b604482015290519081900360640190fd5b612418816125db565b5050565b6000816001600160a01b0316639d0a0f796040518163ffffffff1660e01b815260040160206040518083038186803b158015611e9457600080fd5b6060612461612b08565b6001600160a01b031663eb87c6dc6040518163ffffffff1660e01b815260040160006040518083038186803b15801561249957600080fd5b505afa1580156124ad573d6000803e3d6000fd5b505050506040513d6000823e601f3d908101601f1916820160405260208110156124d657600080fd5b8101908080516040519392919084600160201b8211156124f557600080fd5b90830190602082018581111561250a57600080fd5b82518660208202830111600160201b8211171561252657600080fd5b82525081516020918201928201910280838360005b8381101561255357818101518382015260200161253b565b50505050905001604052505050905090565b6000816001600160a01b031663627749e66040518163ffffffff1660e01b815260040160206040518083038186803b158015611e9457600080fd5b6060816001600160a01b0316634a79d50c6040518163ffffffff1660e01b815260040160006040518083038186803b158015610f4757600080fd5b806001600160a01b031663532fe73b6040518163ffffffff1660e01b815260040160206040518083038186803b15801561261457600080fd5b505afa158015612628573d6000803e3d6000fd5b505050506040513d602081101561263e57600080fd5b505161264957600080fd5b6040805163b8d6e5c160e01b815260006004820181905291516001600160a01b0384169263b8d6e5c1926024808201939182900301818387803b15801561268f57600080fd5b505af11580156126a3573d6000803e3d6000fd5b505050506126b081612faf565b6000816001600160a01b03166360f2baaa6040518163ffffffff1660e01b815260040160206040518083038186803b1580156126eb57600080fd5b505afa1580156126ff573d6000803e3d6000fd5b505050506040513d602081101561271557600080fd5b505111156128205760008054906101000a90046001600160a01b03166001600160a01b031663c5238627826001600160a01b03166360f2baaa6040518163ffffffff1660e01b815260040160206040518083038186803b15801561277857600080fd5b505afa15801561278c573d6000803e3d6000fd5b505050506040513d60208110156127a257600080fd5b50516127ad8461318c565b6040518363ffffffff1660e01b815260040180838152602001826001600160a01b0316815260200192505050602060405180830381600087803b1580156127f357600080fd5b505af1158015612807573d6000803e3d6000fd5b505050506040513d602081101561281d57600080fd5b50505b50565b60008054604080516318860ac560e21b815260048181015290516001600160a01b03909216916362182b1491602480820192602092909190829003018186803b15801561286f57600080fd5b505afa158015612883573d6000803e3d6000fd5b505050506040513d602081101561289957600080fd5b5051919050565b6000805b811580156129295750846001600160a01b031663d589fc9b856040518263ffffffff1660e01b815260040180826001600160a01b0316815260200191505060206040518083038186803b1580156128fa57600080fd5b505afa15801561290e573d6000803e3d6000fd5b505050506040513d602081101561292457600080fd5b505181105b156129d557826001600160a01b0316856001600160a01b0316637aa83e3386846040518363ffffffff1660e01b815260040180836001600160a01b031681526020018281526020019250505060206040518083038186803b15801561298d57600080fd5b505afa1580156129a1573d6000803e3d6000fd5b505050506040513d60208110156129b757600080fd5b50516001600160a01b031614156129cd57600191505b6001016128a4565b5060005b81158015612a5e5750846001600160a01b031663d589fc9b856040518263ffffffff1660e01b815260040180826001600160a01b0316815260200191505060206040518083038186803b158015612a2f57600080fd5b505afa158015612a43573d6000803e3d6000fd5b505050506040513d6020811015612a5957600080fd5b505181105b15612b0057612aee85866001600160a01b0316637aa83e3387856040518363ffffffff1660e01b815260040180836001600160a01b031681526020018281526020019250505060206040518083038186803b158015612abc57600080fd5b505afa158015612ad0573d6000803e3d6000fd5b505050506040513d6020811015612ae657600080fd5b5051856128a0565b15612af857600191505b6001016129d9565b509392505050565b60008054604080516318860ac560e21b81526009600482015290516001600160a01b03909216916362182b1491602480820192602092909190829003018186803b15801561286f57600080fd5b876001600160a01b0316638ffb793c888888888888886040518863ffffffff1660e01b815260040180886001600160a01b0316815260200187815260200180602001866001600160a01b0316815260200185151581526020018481526020018315158152602001828103825287818151815260200191508051906020019060200280838360005b83811015612bf4578181015183820152602001612bdc565b5050505090500198505050505050505050600060405180830381600087803b158015612c1f57600080fd5b505af1158015612c33573d6000803e3d6000fd5b50505050876001600160a01b0316632415086b85896040518363ffffffff1660e01b815260040180836001600160a01b03168152602001826001600160a01b0316815260200192505050600060405180830381600087803b158015612c9757600080fd5b505af1158015612cab573d6000803e3d6000fd5b50505050876001600160a01b031663caee3b64612cc6612823565b6001600160a01b0316630ab300938a6040518263ffffffff1660e01b815260040180826001600160a01b0316815260200191505060206040518083038186803b158015612d1257600080fd5b505afa158015612d26573d6000803e3d6000fd5b505050506040513d6020811015612d3c57600080fd5b5051604080516001600160e01b031960e085901b1681526001600160a01b03909216600483015251602480830192600092919082900301818387803b158015612d8457600080fd5b505af1158015612d98573d6000803e3d6000fd5b505050505050505050505050565b6000612db0612823565b90506060816001600160a01b0316636999fa45846040518263ffffffff1660e01b815260040180826001600160a01b0316815260200191505060006040518083038186803b158015612e0157600080fd5b505afa158015612e15573d6000803e3d6000fd5b505050506040513d6000823e601f3d908101601f191682016040526020811015612e3e57600080fd5b8101908080516040519392919084600160201b821115612e5d57600080fd5b908301906020820185811115612e7257600080fd5b82518660208202830111600160201b82111715612e8e57600080fd5b82525081516020918201928201910280838360005b83811015612ebb578181015183820152602001612ea3565b50505050905001604052505050905060005b8151811015610f05576000828281518110612ee457fe5b6020026020010151905060006001811115612efb57fe5b846001600160a01b031663f429f19b836040518263ffffffff1660e01b815260040180826001600160a01b0316815260200191505060206040518083038186803b158015612f4857600080fd5b505afa158015612f5c573d6000803e3d6000fd5b505050506040513d6020811015612f7257600080fd5b50516001811115612f7f57fe5b1415612fa6576060612f9a87836000848a6001600080612b55565b612fa48783612da6565b505b50600101612ecd565b60005b816001600160a01b0316639d0a0f796040518163ffffffff1660e01b815260040160206040518083038186803b158015612feb57600080fd5b505afa158015612fff573d6000803e3d6000fd5b505050506040513d602081101561301557600080fd5b505181101561241857600061309983846001600160a01b0316634704d8ec856040518263ffffffff1660e01b81526004018082815260200191505060206040518083038186803b15801561306857600080fd5b505afa15801561307c573d6000803e3d6000fd5b505050506040513d602081101561309257600080fd5b505161345c565b9050826001600160a01b031663412f33c5846001600160a01b0316634704d8ec856040518263ffffffff1660e01b81526004018082815260200191505060206040518083038186803b1580156130ee57600080fd5b505afa158015613102573d6000803e3d6000fd5b505050506040513d602081101561311857600080fd5b5051604080516001600160e01b031960e085901b1681526001600160a01b0390921660048301526024820185905251604480830192600092919082900301818387803b15801561316757600080fd5b505af115801561317b573d6000803e3d6000fd5b505060019093019250612fb2915050565b6000816001600160a01b0316634704d8ec60016040518263ffffffff1660e01b81526004018082815260200191505060206040518083038186803b1580156131d357600080fd5b505afa1580156131e7573d6000803e3d6000fd5b505050506040513d60208110156131fd57600080fd5b5051905060015b826001600160a01b0316639d0a0f796040518163ffffffff1660e01b815260040160206040518083038186803b15801561323d57600080fd5b505afa158015613251573d6000803e3d6000fd5b505050506040513d602081101561326757600080fd5b505181101561345657826001600160a01b031663406d560a836040518263ffffffff1660e01b815260040180826001600160a01b0316815260200191505060206040518083038186803b1580156132bd57600080fd5b505afa1580156132d1573d6000803e3d6000fd5b505050506040513d60208110156132e757600080fd5b5051604080516311c1363b60e21b81526004810184905290516001600160a01b0386169163406d560a918391634704d8ec916024808301926020929190829003018186803b15801561333857600080fd5b505afa15801561334c573d6000803e3d6000fd5b505050506040513d602081101561336257600080fd5b5051604080516001600160e01b031960e085901b1681526001600160a01b039092166004830152516024808301926020929190829003018186803b1580156133a957600080fd5b505afa1580156133bd573d6000803e3d6000fd5b505050506040513d60208110156133d357600080fd5b5051111561344e57826001600160a01b0316634704d8ec826040518263ffffffff1660e01b81526004018082815260200191505060206040518083038186803b15801561341f57600080fd5b505afa158015613433573d6000803e3d6000fd5b505050506040513d602081101561344957600080fd5b505191505b600101613204565b50919050565b600080613467612823565b90506000915060005b846001600160a01b031663d589fc9b856040518263ffffffff1660e01b815260040180826001600160a01b0316815260200191505060206040518083038186803b1580156134bd57600080fd5b505afa1580156134d1573d6000803e3d6000fd5b505050506040513d60208110156134e757600080fd5b50518110156137e3576000856001600160a01b0316637aa83e3386846040518363ffffffff1660e01b815260040180836001600160a01b031681526020018281526020019250505060206040518083038186803b15801561354757600080fd5b505afa15801561355b573d6000803e3d6000fd5b505050506040513d602081101561357157600080fd5b505160408051630ab3009360e01b81526001600160a01b03808416600483015291519293508189169263b12ede3692871691630ab30093916024808301926020929190829003018186803b1580156135c857600080fd5b505afa1580156135dc573d6000803e3d6000fd5b505050506040513d60208110156135f257600080fd5b5051604080516001600160e01b031960e085901b1681526001600160a01b039092166004830152516024808301926020929190829003018186803b15801561363957600080fd5b505afa15801561364d573d6000803e3d6000fd5b505050506040513d602081101561366357600080fd5b5051670de0b6b3a76400008161367557fe5b0484019350613684868261345c565b84019350856001600160a01b0316638c588eb9826040518263ffffffff1660e01b815260040180826001600160a01b0316815260200191505060206040518083038186803b1580156136d557600080fd5b505afa1580156136e9573d6000803e3d6000fd5b505050506040513d60208110156136ff57600080fd5b50511561377257826001600160a01b031663de43a692826040518263ffffffff1660e01b815260040180826001600160a01b03168152602001915050600060405180830381600087803b15801561375557600080fd5b505af1158015613769573d6000803e3d6000fd5b505050506137da565b826001600160a01b03166305446f79826040518263ffffffff1660e01b815260040180826001600160a01b03168152602001915050600060405180830381600087803b1580156137c157600080fd5b505af11580156137d5573d6000803e3d6000fd5b505050505b50600101613470565b50509291505056fea264697066735822122039d60e5bb3e517a358b60adfd863836998805595ee4522939685c6e72c8f6df964736f6c63430007050033",
  "immutableReferences": {},
  "source": "// SPDX-License-Identifier: GPL-3.0\r\npragma solidity ^0.7.5;\r\n\r\nimport './Alexandria.sol';\r\nimport './Eniko.sol';\r\nimport './Ballot.sol';\r\nimport './BallotList.sol';\r\nimport './ConsequenceFunctions.sol';\r\nimport './BallotDeployer.sol';\r\n\r\ncontract BallotFunctions is EnikoApp {\r\n\r\n    // Constructor\r\n    \r\n    constructor(address payable eniko_) {\r\n        eniko = eniko_;\r\n    }\r\n\r\n    // External Functions\r\n\r\n    // Getters\r\n\r\n    function getVoteOptionsCount(address ballot_) external view returns (uint count_) {\r\n        count_ = Ballot(ballot_).getVoteOptionsCount();\r\n    }\r\n\r\n    function getResult(address ballot_, uint option_) external view returns (uint result_) {\r\n        Ballot ballot = Ballot(ballot_);\r\n        require(option_ < ballot.getVoteOptionsCount(), \"Invalid option\");\r\n        result_ = ballot.getNodeVoteCount(ballot.voteOptions(option_));\r\n    } \r\n\r\n    function getVoteOptionTitle(address ballot_, uint option_) external view returns (bytes32 title_) {\r\n        require(option_ < Ballot(ballot_).getVoteOptionsCount(), \"Invalid option\");\r\n        title_ = Ballot(ballot_).getNodeTitle(Ballot(ballot_).voteOptions(option_));\r\n    }\r\n\r\n    function getVoteOptionAddress(address ballot_, uint option_) external view returns (address address_) {\r\n        require(option_ < Ballot(ballot_).getVoteOptionsCount(), \"Invalid option\");\r\n        address_ = Ballot(ballot_).voteOptions(option_);\r\n    }\r\n\r\n    function getTitle(address ballot_) external view returns(string memory title_) {\r\n        title_ = Ballot(ballot_).title();\r\n    }\r\n\r\n    function getDetails(address ballot_) external view returns(string memory details_) {\r\n        details_ = Ballot(ballot_).details();\r\n    }\r\n\r\n    function getProposer(address ballot_) external view returns(address proposer_) {\r\n        proposer_ = Ballot(ballot_).proposer();\r\n    }\r\n\r\n    function getCloseTime(address ballot_) external view returns(uint closeTime_) {\r\n        closeTime_ = Ballot(ballot_).closeTime();\r\n    }\r\n\r\n    function isBallotOpen(address ballot_) external view returns(bool ballotOpen_) {\r\n        ballotOpen_ = Ballot(ballot_).ballotOpen();\r\n    }\r\n\r\n    function getBallots() external view returns(address[] memory ballots_) {\r\n        ballots_ = getBallotListApp().getBallots();\r\n    }\r\n\r\n    function getCurrentVote(address ballot_, address node_) external view returns(address choice_) {\r\n        choice_ = Ballot(ballot_).getNodeChoice(node_);\r\n    }\r\n\r\n    function getNodeFollowers(address ballot_, address node_) external view returns(address[] memory followers_) {\r\n        followers_ = Ballot(ballot_).getNodeFollowers(node_);\r\n    }\r\n\r\n    function isDescendant(address ballot_, address parent_, address descendant_) external view returns(bool isDescendant_) {\r\n        isDescendant_ = false;\r\n        if (parent_ == address(0)) {\r\n            Ballot ballot = Ballot(ballot_);\r\n            uint i = 0;\r\n            while (!isDescendant_ && i < ballot.getVoteOptionsCount()) {\r\n                if (checkIfDescendant(ballot_, ballot.voteOptions(i),descendant_)) {\r\n                    isDescendant_ = true;\r\n                }\r\n                i++;\r\n            }\r\n        }\r\n        else {\r\n            isDescendant_ = checkIfDescendant(ballot_, parent_, descendant_);\r\n        }\r\n    }\r\n\r\n    // Setters\r\n\r\n    function createBallot(string memory title_, string memory details_, bytes32[] memory options_, uint enikoApp_, address[] memory appAddresses_, uint length_) external {\r\n        require(bytes(title_).length < 64, \"Title must be less than 64 bytes\");\r\n        require(msg.sender == Eniko(eniko).getFounder(), \"403\"); // Change this once the Solution functionality is complete\r\n        uint closeTime = 0;\r\n        if (length_<14) {\r\n            closeTime = block.timestamp + 14 days;\r\n        } else {\r\n            closeTime = block.timestamp + length_  * (1 days);\r\n        }\r\n        Ballot ballot = BallotDeployer(Eniko(eniko).getAppAddress(8)).deployBallot();\r\n        // Set variables\r\n        ballot.setTitle(title_);\r\n        ballot.setDetails(details_);\r\n        ballot.setEnikoApp(enikoApp_);\r\n        ballot.setProposer(msg.sender);\r\n        ballot.setBallotOpen(true);\r\n        ballot.setCloseTime(closeTime);\r\n        \r\n        // Set the abstention vote by creating a fake address. Only the purpose is allowed to vote for abstention and should be set by default to abstention\r\n        address abstainAddress = address(bytes20(keccak256(abi.encodePacked(address(ballot), bytes32(\"Abstain\"))))); \r\n        ballot.addVoteOption(abstainAddress);\r\n        address[] memory followers;\r\n        ballot.addVoteTreeNode(abstainAddress, bytes32(\"Abstain\"), followers, address(0x00), true, 0, false);\r\n        \r\n\r\n        // Create the other voting options within the Vote Tree\r\n        // If it is not a vote to replace/add an enikoApp, enikoApp_ = 0, create fake addresses\r\n        if (enikoApp_ == 0) {\r\n            for (uint i = 0; i < options_.length; i++) {\r\n                if(options_[i] != bytes32(\"Abstain\")) {\r\n                    address optionAddress = address(bytes20(keccak256(abi.encodePacked(address(ballot), options_[i]))));\r\n                    ballot.addVoteOption(optionAddress);\r\n                    ballot.addVoteTreeNode(optionAddress, options_[i], followers, address(0x00), true, 0, false);\r\n                }\r\n            }\r\n\r\n        }\r\n        // Otherwise use the appAddresses\r\n        else {\r\n            for (uint i = 0; i < appAddresses_.length; i++) {\r\n                if(options_[i] != bytes32(\"Abstain\")) {\r\n                    ballot.addVoteOption(appAddresses_[i]);\r\n                    ballot.addVoteTreeNode(appAddresses_[i], options_[i], followers, address(0x00), true, 0, false);\r\n                }\r\n            }\r\n        } \r\n\r\n        // Add the purpose as a voting node\r\n        address purpose = Eniko(eniko).getPurpose();\r\n        addVoterToBallot(ballot, purpose, \"\", followers, abstainAddress, true, 0, false);\r\n        // Add its children\r\n        addConsequenceDescendantsToVoteTree(ballot, purpose);\r\n\r\n        // Add the ballot to the Ballot List\r\n        getBallotListApp().addBallot(address(ballot));\r\n    }\r\n    \r\n    \r\n    function changeMyVote(address ballot_, address newChoice_, address consequence_) external {\r\n        Ballot ballot = Ballot(ballot_);\r\n        require(ballot.ballotOpen(), \"Ballot closed\");\r\n        if(ballot.closeTime() < block.timestamp) {closeBallot(ballot);}\r\n        else {\r\n            require(getConsequenceFunctionsApp().getAuthor(consequence_) == msg.sender, \"403\");\r\n            bool hasAVote = false;\r\n            uint i = 0;\r\n            while (!hasAVote && i < ballot.getVoteOptionsCount()) {\r\n                if (checkIfDescendant(ballot_, ballot.voteOptions(i) ,consequence_)) {\r\n                    hasAVote = true;\r\n                }\r\n                i++;\r\n            }\r\n            require(hasAVote,\"Consequence has no vote\");\r\n            require(ballot.getNodeExists(newChoice_), \"Invalid choice\");\r\n            require(!checkIfDescendant(ballot_, consequence_, newChoice_) && newChoice_ != consequence_, \"Circular vote\" );\r\n\r\n            // Remove from the original choice\r\n            ballot.removeNodeFollower(ballot.getNodeChoice(consequence_), consequence_);\r\n        \r\n            // Add to the new choice\r\n            ballot.addNodeFollower(newChoice_, consequence_);\r\n        \r\n            // Change choice\r\n            ballot.setNodeChoice(consequence_, newChoice_);\r\n            ballot.setNodeTookAction(consequence_, true);\r\n        }\r\n    }\r\n\r\n    function manuallyCloseBallot(address ballot_) external {\r\n        Ballot ballot = Ballot(ballot_);\r\n        require(ballot.closeTime() < block.timestamp, \"Too early\");\r\n        closeBallot(ballot);\r\n    }\r\n\r\n    function deleteBallot(address ballot_) external {\r\n        require(msg.sender == Ballot(ballot_).proposer(), \"403\");\r\n        getBallotListApp().removeBallot(ballot_);\r\n        Ballot(ballot_).destroy();\r\n    }\r\n\r\n    // Internal Functions\r\n\r\n    function checkIfDescendant(address ballot_, address parent_, address descendant_) internal view returns(bool result_) {\r\n        result_ = false;\r\n        uint i = 0;\r\n        // Check the direct children first for efficiency sake\r\n        while (!result_ && i < Ballot(ballot_).getNodeFollowersCount(parent_)) {\r\n            if (Ballot(ballot_).getNodeFollower(parent_, i) == descendant_) {\r\n                result_ = true;\r\n            }\r\n            i++;\r\n        }\r\n        // Now check the descendants of each child\r\n        i = 0;\r\n        while (!result_ && i < Ballot(ballot_).getNodeFollowersCount(parent_)) {\r\n            if (checkIfDescendant(ballot_, Ballot(ballot_).getNodeFollower(parent_, i), descendant_)) {\r\n                result_ = true;\r\n            }\r\n            i++;\r\n        }\r\n    }\r\n\r\n    function addConsequenceDescendantsToVoteTree(Ballot ballot_, address consequence_) internal {\r\n        ConsequenceFunctions consequenceFunctions = getConsequenceFunctionsApp();\r\n        address[] memory children = consequenceFunctions.getChildren(consequence_);\r\n        for (uint i = 0; i < children.length; i++) {\r\n            address child = children[i];\r\n            if (consequenceFunctions.getType(child) == Alexandria.ConsequenceType.Public) {\r\n                address[] memory followers;\r\n                addVoterToBallot(ballot_, child, \"\", followers, consequence_, true, 0, false);\r\n                addConsequenceDescendantsToVoteTree(ballot_, child);\r\n            }\r\n        }\r\n    }\r\n\r\n    function addVoterToBallot(Ballot ballot_, address consequence_, bytes32 title_, address[] memory followers_, address choice_, bool exists_, uint voteCount_, bool tookAction_) internal {\r\n        ballot_.addVoteTreeNode(consequence_, title_, followers_, choice_, exists_, voteCount_, tookAction_);\r\n        ballot_.addNodeFollower(choice_, consequence_);\r\n        ballot_.incrementAuthorVoteCount(getConsequenceFunctionsApp().getAuthor(consequence_));\r\n    }\r\n\r\n    function countVotes(Ballot ballot_) internal {\r\n        for (uint i = 0; i < ballot_.getVoteOptionsCount(); i++) {\r\n            uint count = countOptionVotes(ballot_, ballot_.voteOptions(i));\r\n            ballot_.setNodeVoteCount(ballot_.voteOptions(i), count);\r\n        }\r\n    }\r\n\r\n    function countOptionVotes(Ballot ballot_, address option_) internal returns (uint count_)  {\r\n        ConsequenceFunctions consequenceFunctions = getConsequenceFunctionsApp();\r\n        count_ = 0;\r\n        for (uint i = 0; i < ballot_.getNodeFollowersCount(option_); i++) {\r\n            address child = ballot_.getNodeFollower(option_, i);\r\n            count_ = count_ + (1 ether) / ballot_.authorVoteCount(consequenceFunctions.getAuthor(child));\r\n            count_ = count_ + countOptionVotes(ballot_, child);\r\n            if (ballot_.getNodeTookAction(child)) {\r\n                consequenceFunctions.resetMissedVotes(child);\r\n            }\r\n            else {\r\n                consequenceFunctions.missedVote(child);\r\n            }\r\n        }\r\n    }\r\n\r\n    function getWinner(Ballot ballot_) internal view returns (address winner_) {\r\n        // The first option is always the abstention vote so ignore it\r\n        winner_ = ballot_.voteOptions(1);\r\n        for (uint i = 1; i < ballot_.getVoteOptionsCount(); i++) {\r\n            if (ballot_.getNodeVoteCount(ballot_.voteOptions(i)) > ballot_.getNodeVoteCount(winner_)) {\r\n                winner_ = ballot_.voteOptions(i);\r\n            }\r\n        }\r\n    }\r\n\r\n    function closeBallot(Ballot ballot_) internal {\r\n        require(ballot_.ballotOpen());\r\n        ballot_.setBallotOpen(false);\r\n        countVotes(ballot_);\r\n        // If it is a vote to replace an Eniko app then do so\r\n        if (ballot_.enikoApp() > 0) {\r\n            Eniko(eniko).updateAppAddress(ballot_.enikoApp(), getWinner(ballot_));\r\n        }\r\n    }\r\n\r\n    // Eniko App Retrievers\r\n\r\n    function getConsequenceFunctionsApp() internal view returns (ConsequenceFunctions app_) {\r\n        app_ = ConsequenceFunctions(Eniko(eniko).getAppAddress(4));\r\n    }\r\n\r\n    function getBallotListApp() internal view returns (BallotList app_) {\r\n        app_ = BallotList(Eniko(eniko).getAppAddress(9));\r\n    }\r\n\r\n}",
  "sourcePath": "C:/Users/Jonathan/OneDrive/Project Eniko/Eniko/contracts/BallotFunctions.sol",
  "compiler": {
    "name": "solc",
    "version": "0.7.5+commit.eb77ed08.Emscripten.clang"
  },
  "schemaVersion": "3.3.4",
  "updatedAt": "2021-04-18T15:01:56.337Z",
  "networkType": "ethereum",
  "devdoc": {
    "kind": "dev",
    "methods": {},
    "version": 1
  },
  "userdoc": {
    "kind": "user",
    "methods": {},
    "version": 1
  }
}