{
  "contractName": "Ballot",
  "abi": [
    {
      "inputs": [
        {
          "internalType": "address payable",
          "name": "eniko_",
          "type": "address"
        }
      ],
      "stateMutability": "nonpayable",
      "type": "constructor"
    },
    {
      "inputs": [
        {
          "internalType": "address",
          "name": "",
          "type": "address"
        }
      ],
      "name": "authorVoteCount",
      "outputs": [
        {
          "internalType": "uint256",
          "name": "",
          "type": "uint256"
        }
      ],
      "stateMutability": "view",
      "type": "function"
    },
    {
      "inputs": [],
      "name": "ballotOpen",
      "outputs": [
        {
          "internalType": "bool",
          "name": "",
          "type": "bool"
        }
      ],
      "stateMutability": "view",
      "type": "function"
    },
    {
      "inputs": [],
      "name": "closeTime",
      "outputs": [
        {
          "internalType": "uint256",
          "name": "",
          "type": "uint256"
        }
      ],
      "stateMutability": "view",
      "type": "function"
    },
    {
      "inputs": [],
      "name": "details",
      "outputs": [
        {
          "internalType": "string",
          "name": "",
          "type": "string"
        }
      ],
      "stateMutability": "view",
      "type": "function"
    },
    {
      "inputs": [],
      "name": "eniko",
      "outputs": [
        {
          "internalType": "address payable",
          "name": "",
          "type": "address"
        }
      ],
      "stateMutability": "view",
      "type": "function"
    },
    {
      "inputs": [],
      "name": "enikoApp",
      "outputs": [
        {
          "internalType": "uint256",
          "name": "",
          "type": "uint256"
        }
      ],
      "stateMutability": "view",
      "type": "function"
    },
    {
      "inputs": [],
      "name": "proposer",
      "outputs": [
        {
          "internalType": "address",
          "name": "",
          "type": "address"
        }
      ],
      "stateMutability": "view",
      "type": "function"
    },
    {
      "inputs": [],
      "name": "title",
      "outputs": [
        {
          "internalType": "string",
          "name": "",
          "type": "string"
        }
      ],
      "stateMutability": "view",
      "type": "function"
    },
    {
      "inputs": [
        {
          "internalType": "uint256",
          "name": "",
          "type": "uint256"
        }
      ],
      "name": "voteOptions",
      "outputs": [
        {
          "internalType": "address",
          "name": "",
          "type": "address"
        }
      ],
      "stateMutability": "view",
      "type": "function"
    },
    {
      "inputs": [],
      "name": "destroy",
      "outputs": [],
      "stateMutability": "nonpayable",
      "type": "function"
    },
    {
      "inputs": [],
      "name": "getVoteOptions",
      "outputs": [
        {
          "internalType": "address[]",
          "name": "voteOptions_",
          "type": "address[]"
        }
      ],
      "stateMutability": "view",
      "type": "function"
    },
    {
      "inputs": [],
      "name": "getVoteOptionsCount",
      "outputs": [
        {
          "internalType": "uint256",
          "name": "count_",
          "type": "uint256"
        }
      ],
      "stateMutability": "view",
      "type": "function"
    },
    {
      "inputs": [
        {
          "internalType": "address",
          "name": "node_",
          "type": "address"
        }
      ],
      "name": "getNodeChoice",
      "outputs": [
        {
          "internalType": "address",
          "name": "choice_",
          "type": "address"
        }
      ],
      "stateMutability": "view",
      "type": "function"
    },
    {
      "inputs": [
        {
          "internalType": "address",
          "name": "node_",
          "type": "address"
        }
      ],
      "name": "getNodeFollowers",
      "outputs": [
        {
          "internalType": "address[]",
          "name": "followers_",
          "type": "address[]"
        }
      ],
      "stateMutability": "view",
      "type": "function"
    },
    {
      "inputs": [
        {
          "internalType": "address",
          "name": "node_",
          "type": "address"
        }
      ],
      "name": "getNodeFollowersCount",
      "outputs": [
        {
          "internalType": "uint256",
          "name": "count_",
          "type": "uint256"
        }
      ],
      "stateMutability": "view",
      "type": "function"
    },
    {
      "inputs": [
        {
          "internalType": "address",
          "name": "node_",
          "type": "address"
        },
        {
          "internalType": "uint256",
          "name": "index_",
          "type": "uint256"
        }
      ],
      "name": "getNodeFollower",
      "outputs": [
        {
          "internalType": "address",
          "name": "follower_",
          "type": "address"
        }
      ],
      "stateMutability": "view",
      "type": "function"
    },
    {
      "inputs": [
        {
          "internalType": "address",
          "name": "node_",
          "type": "address"
        }
      ],
      "name": "getNodeTitle",
      "outputs": [
        {
          "internalType": "bytes32",
          "name": "title_",
          "type": "bytes32"
        }
      ],
      "stateMutability": "view",
      "type": "function"
    },
    {
      "inputs": [
        {
          "internalType": "address",
          "name": "node_",
          "type": "address"
        }
      ],
      "name": "getNodeExists",
      "outputs": [
        {
          "internalType": "bool",
          "name": "exists_",
          "type": "bool"
        }
      ],
      "stateMutability": "view",
      "type": "function"
    },
    {
      "inputs": [
        {
          "internalType": "address",
          "name": "node_",
          "type": "address"
        }
      ],
      "name": "getNodeVoteCount",
      "outputs": [
        {
          "internalType": "uint256",
          "name": "voteCount_",
          "type": "uint256"
        }
      ],
      "stateMutability": "view",
      "type": "function"
    },
    {
      "inputs": [
        {
          "internalType": "address",
          "name": "node_",
          "type": "address"
        }
      ],
      "name": "getNodeTookAction",
      "outputs": [
        {
          "internalType": "bool",
          "name": "tookAction_",
          "type": "bool"
        }
      ],
      "stateMutability": "view",
      "type": "function"
    },
    {
      "inputs": [
        {
          "internalType": "address payable",
          "name": "eniko_",
          "type": "address"
        }
      ],
      "name": "setEniko",
      "outputs": [],
      "stateMutability": "nonpayable",
      "type": "function"
    },
    {
      "inputs": [
        {
          "internalType": "string",
          "name": "title_",
          "type": "string"
        }
      ],
      "name": "setTitle",
      "outputs": [],
      "stateMutability": "nonpayable",
      "type": "function"
    },
    {
      "inputs": [
        {
          "internalType": "string",
          "name": "details_",
          "type": "string"
        }
      ],
      "name": "setDetails",
      "outputs": [],
      "stateMutability": "nonpayable",
      "type": "function"
    },
    {
      "inputs": [
        {
          "internalType": "uint256",
          "name": "enikoApp_",
          "type": "uint256"
        }
      ],
      "name": "setEnikoApp",
      "outputs": [],
      "stateMutability": "nonpayable",
      "type": "function"
    },
    {
      "inputs": [
        {
          "internalType": "address",
          "name": "proposer_",
          "type": "address"
        }
      ],
      "name": "setProposer",
      "outputs": [],
      "stateMutability": "nonpayable",
      "type": "function"
    },
    {
      "inputs": [
        {
          "internalType": "uint256",
          "name": "closeTime_",
          "type": "uint256"
        }
      ],
      "name": "setCloseTime",
      "outputs": [],
      "stateMutability": "nonpayable",
      "type": "function"
    },
    {
      "inputs": [
        {
          "internalType": "bool",
          "name": "ballotOpen_",
          "type": "bool"
        }
      ],
      "name": "setBallotOpen",
      "outputs": [],
      "stateMutability": "nonpayable",
      "type": "function"
    },
    {
      "inputs": [
        {
          "internalType": "address",
          "name": "author_",
          "type": "address"
        },
        {
          "internalType": "uint256",
          "name": "count_",
          "type": "uint256"
        }
      ],
      "name": "setAuthorVoteCount",
      "outputs": [],
      "stateMutability": "nonpayable",
      "type": "function"
    },
    {
      "inputs": [
        {
          "internalType": "address",
          "name": "author_",
          "type": "address"
        }
      ],
      "name": "incrementAuthorVoteCount",
      "outputs": [],
      "stateMutability": "nonpayable",
      "type": "function"
    },
    {
      "inputs": [
        {
          "internalType": "address",
          "name": "author_",
          "type": "address"
        }
      ],
      "name": "decrementAuthorVoteCount",
      "outputs": [],
      "stateMutability": "nonpayable",
      "type": "function"
    },
    {
      "inputs": [
        {
          "internalType": "address",
          "name": "option_",
          "type": "address"
        }
      ],
      "name": "addVoteOption",
      "outputs": [],
      "stateMutability": "nonpayable",
      "type": "function"
    },
    {
      "inputs": [
        {
          "internalType": "address",
          "name": "option_",
          "type": "address"
        }
      ],
      "name": "removeVoteOption",
      "outputs": [],
      "stateMutability": "nonpayable",
      "type": "function"
    },
    {
      "inputs": [
        {
          "internalType": "address",
          "name": "node_",
          "type": "address"
        },
        {
          "internalType": "bytes32",
          "name": "title_",
          "type": "bytes32"
        },
        {
          "internalType": "address[]",
          "name": "followers_",
          "type": "address[]"
        },
        {
          "internalType": "address",
          "name": "choice_",
          "type": "address"
        },
        {
          "internalType": "bool",
          "name": "exists_",
          "type": "bool"
        },
        {
          "internalType": "uint256",
          "name": "voteCount_",
          "type": "uint256"
        },
        {
          "internalType": "bool",
          "name": "tookAction_",
          "type": "bool"
        }
      ],
      "name": "addVoteTreeNode",
      "outputs": [],
      "stateMutability": "nonpayable",
      "type": "function"
    },
    {
      "inputs": [
        {
          "internalType": "address",
          "name": "node_",
          "type": "address"
        },
        {
          "internalType": "address",
          "name": "choice_",
          "type": "address"
        }
      ],
      "name": "setNodeChoice",
      "outputs": [],
      "stateMutability": "nonpayable",
      "type": "function"
    },
    {
      "inputs": [
        {
          "internalType": "address",
          "name": "node_",
          "type": "address"
        },
        {
          "internalType": "address",
          "name": "follower_",
          "type": "address"
        }
      ],
      "name": "addNodeFollower",
      "outputs": [],
      "stateMutability": "nonpayable",
      "type": "function"
    },
    {
      "inputs": [
        {
          "internalType": "address",
          "name": "node_",
          "type": "address"
        },
        {
          "internalType": "address",
          "name": "follower_",
          "type": "address"
        }
      ],
      "name": "removeNodeFollower",
      "outputs": [],
      "stateMutability": "nonpayable",
      "type": "function"
    },
    {
      "inputs": [
        {
          "internalType": "address",
          "name": "node_",
          "type": "address"
        },
        {
          "internalType": "bytes32",
          "name": "title_",
          "type": "bytes32"
        }
      ],
      "name": "setNodeTitle",
      "outputs": [],
      "stateMutability": "nonpayable",
      "type": "function"
    },
    {
      "inputs": [
        {
          "internalType": "address",
          "name": "node_",
          "type": "address"
        },
        {
          "internalType": "bool",
          "name": "exists_",
          "type": "bool"
        }
      ],
      "name": "setNodeExists",
      "outputs": [],
      "stateMutability": "nonpayable",
      "type": "function"
    },
    {
      "inputs": [
        {
          "internalType": "address",
          "name": "node_",
          "type": "address"
        },
        {
          "internalType": "uint256",
          "name": "voteCount_",
          "type": "uint256"
        }
      ],
      "name": "setNodeVoteCount",
      "outputs": [],
      "stateMutability": "nonpayable",
      "type": "function"
    },
    {
      "inputs": [
        {
          "internalType": "address",
          "name": "node_",
          "type": "address"
        }
      ],
      "name": "incrementNodeVoteCount",
      "outputs": [],
      "stateMutability": "nonpayable",
      "type": "function"
    },
    {
      "inputs": [
        {
          "internalType": "address",
          "name": "node_",
          "type": "address"
        }
      ],
      "name": "decrementNodeVoteCount",
      "outputs": [],
      "stateMutability": "nonpayable",
      "type": "function"
    },
    {
      "inputs": [
        {
          "internalType": "address",
          "name": "node_",
          "type": "address"
        },
        {
          "internalType": "bool",
          "name": "tookAction_",
          "type": "bool"
        }
      ],
      "name": "setNodeTookAction",
      "outputs": [],
      "stateMutability": "nonpayable",
      "type": "function"
    }
  ],
  "bytecode": "0x608060405234801561001057600080fd5b50604051612de1380380612de18339818101604052602081101561003357600080fd5b5051600080546001600160a01b039092166001600160a01b0319909216919091179055612d7c806100656000396000f3fe608060405234801561001057600080fd5b506004361061025e5760003560e01c8063627749e611610146578063940015da116100c3578063b12ede3611610087578063b12ede3614610970578063b8d6e5c114610996578063bab2a6a9146109b5578063bea6196b146109e1578063caee3b64146109fe578063d589fc9b14610a245761025e565b8063940015da146108de5780639b028cb01461090c5780639d0a0f791461093a578063a8e4fb9014610942578063a9f682281461094a5761025e565b80637b8d06021161010a5780637b8d0602146107a457806383197ef0146107ac57806383dc27c1146107b45780638c588eb9146107e25780638ffb793c146108085761025e565b8063627749e61461062e5780636537b3af1461063657806365d4176f146106ac57806372910be0146106d25780637aa83e33146107785761025e565b80633bbfd628116101df57806344741ed7116101a357806344741ed7146105425780634704d8ec146105685780634a79d50c14610585578063532fe73b14610602578063565974d31461061e57806360f2baaa146106265761025e565b80633bbfd628146104075780633be3a3f51461042d5780633e8a80091461044a578063406d560a146104f0578063412f33c5146105165761025e565b806320cffe061161022657806320cffe061461032f578063211aa933146103555780632415086b1461037b5780632683abfe146103a957806330b7ed48146103e15761025e565b806302846ee5146102635780631027a48614610291578063160cf377146102b75780631cbdc6c9146102db5780631fb4a22814610309575b600080fd5b61028f6004803603604081101561027957600080fd5b506001600160a01b038135169060200135610a4a565b005b61028f600480360360208110156102a757600080fd5b50356001600160a01b0316610b7f565b6102bf610ce7565b604080516001600160a01b039092168252519081900360200190f35b61028f600480360360408110156102f157600080fd5b506001600160a01b0381358116916020013516610cf6565b61028f6004803603602081101561031f57600080fd5b50356001600160a01b0316610e3a565b61028f6004803603602081101561034557600080fd5b50356001600160a01b0316610f72565b6102bf6004803603602081101561036b57600080fd5b50356001600160a01b03166110ac565b61028f6004803603604081101561039157600080fd5b506001600160a01b03813581169160200135166110ca565b6103cf600480360360208110156103bf57600080fd5b50356001600160a01b0316611221565b60408051918252519081900360200190f35b61028f600480360360208110156103f757600080fd5b50356001600160a01b031661123f565b61028f6004803603602081101561041d57600080fd5b50356001600160a01b0316611378565b61028f6004803603602081101561044357600080fd5b5035611591565b61028f6004803603602081101561046057600080fd5b81019060208101813564010000000081111561047b57600080fd5b82018360208201111561048d57600080fd5b803590602001918460018302840111640100000000831117156104af57600080fd5b91908080601f0160208091040260200160405190810160405280939291908181526020018383808284376000920191909152509295506116ac945050505050565b6103cf6004803603602081101561050657600080fd5b50356001600160a01b03166117d9565b61028f6004803603604081101561052c57600080fd5b506001600160a01b0381351690602001356117f7565b61028f6004803603602081101561055857600080fd5b50356001600160a01b031661192c565b6102bf6004803603602081101561057e57600080fd5b5035611a64565b61058d611a8e565b6040805160208082528351818301528351919283929083019185019080838360005b838110156105c75781810151838201526020016105af565b50505050905090810190601f1680156105f45780820380516001836020036101000a031916815260200191505b509250505060405180910390f35b61060a611b1b565b604080519115158252519081900360200190f35b61058d611b24565b6103cf611b7c565b6103cf611b82565b61065c6004803603602081101561064c57600080fd5b50356001600160a01b0316611b88565b60408051602080825283518183015283519192839290830191858101910280838360005b83811015610698578181015183820152602001610680565b505050509050019250505060405180910390f35b61060a600480360360208110156106c257600080fd5b50356001600160a01b0316611c01565b61028f600480360360208110156106e857600080fd5b81019060208101813564010000000081111561070357600080fd5b82018360208201111561071557600080fd5b8035906020019184600183028401116401000000008311171561073757600080fd5b91908080601f016020809104026020016040519081016040528093929190818152602001838380828437600092019190915250929550611c22945050505050565b6102bf6004803603604081101561078e57600080fd5b506001600160a01b038135169060200135611d4b565b61065c611d8e565b61028f611df0565b61028f600480360360408110156107ca57600080fd5b506001600160a01b0381351690602001351515611f14565b61060a600480360360208110156107f857600080fd5b50356001600160a01b0316612058565b61028f600480360360e081101561081e57600080fd5b6001600160a01b038235169160208101359181019060608101604082013564010000000081111561084e57600080fd5b82018360208201111561086057600080fd5b8035906020019184602083028401116401000000008311171561088257600080fd5b919080806020026020016040519081016040528093929190818152602001838360200280828437600092019190915250929550506001600160a01b03833516935050506020810135151590604081013590606001351515612079565b61028f600480360360408110156108f457600080fd5b506001600160a01b0381358116916020013516612255565b61028f6004803603604081101561092257600080fd5b506001600160a01b03813516906020013515156124e4565b6103cf612628565b6102bf61262e565b61028f6004803603602081101561096057600080fd5b50356001600160a01b031661263d565b6103cf6004803603602081101561098657600080fd5b50356001600160a01b0316612774565b61028f600480360360208110156109ac57600080fd5b50351515612786565b61028f600480360360408110156109cb57600080fd5b506001600160a01b0381351690602001356128af565b61028f600480360360208110156109f757600080fd5b50356129e1565b61028f60048036036020811015610a1457600080fd5b50356001600160a01b0316612afc565b6103cf60048036036020811015610a3a57600080fd5b50356001600160a01b0316612c32565b600054604080516318860ac560e21b81526007600482015290516001600160a01b03909216916362182b1491602480820192602092909190829003018186803b158015610a9657600080fd5b505afa158015610aaa573d6000803e3d6000fd5b505050506040513d6020811015610ac057600080fd5b50516001600160a01b0316331480610b575750600054604080516318860ac560e21b81526008600482015290516001600160a01b03909216916362182b1491602480820192602092909190829003018186803b158015610b1f57600080fd5b505afa158015610b33573d6000803e3d6000fd5b505050506040513d6020811015610b4957600080fd5b50516001600160a01b031633145b610b6057600080fd5b6001600160a01b03909116600090815260096020526040902060020155565b600054604080516318860ac560e21b81526007600482015290516001600160a01b03909216916362182b1491602480820192602092909190829003018186803b158015610bcb57600080fd5b505afa158015610bdf573d6000803e3d6000fd5b505050506040513d6020811015610bf557600080fd5b50516001600160a01b0316331480610c8c5750600054604080516318860ac560e21b81526008600482015290516001600160a01b03909216916362182b1491602480820192602092909190829003018186803b158015610c5457600080fd5b505afa158015610c68573d6000803e3d6000fd5b505050506040513d6020811015610c7e57600080fd5b50516001600160a01b031633145b610c9557600080fd5b600880546001810182556000919091527ff3f7a9fe364faab93b216da50a3214154f22a0a2b415b23a84c8169e8b636ee30180546001600160a01b0319166001600160a01b0392909216919091179055565b6000546001600160a01b031681565b600054604080516318860ac560e21b81526007600482015290516001600160a01b03909216916362182b1491602480820192602092909190829003018186803b158015610d4257600080fd5b505afa158015610d56573d6000803e3d6000fd5b505050506040513d6020811015610d6c57600080fd5b50516001600160a01b0316331480610e035750600054604080516318860ac560e21b81526008600482015290516001600160a01b03909216916362182b1491602480820192602092909190829003018186803b158015610dcb57600080fd5b505afa158015610ddf573d6000803e3d6000fd5b505050506040513d6020811015610df557600080fd5b50516001600160a01b031633145b610e0c57600080fd5b6001600160a01b03918216600090815260096020526040902080546001600160a01b03191691909216179055565b600054604080516318860ac560e21b81526007600482015290516001600160a01b03909216916362182b1491602480820192602092909190829003018186803b158015610e8657600080fd5b505afa158015610e9a573d6000803e3d6000fd5b505050506040513d6020811015610eb057600080fd5b50516001600160a01b0316331480610f475750600054604080516318860ac560e21b81526008600482015290516001600160a01b03909216916362182b1491602480820192602092909190829003018186803b158015610f0f57600080fd5b505afa158015610f23573d6000803e3d6000fd5b505050506040513d6020811015610f3957600080fd5b50516001600160a01b031633145b610f5057600080fd5b600480546001600160a01b0319166001600160a01b0392909216919091179055565b600054604080516318860ac560e21b81526007600482015290516001600160a01b03909216916362182b1491602480820192602092909190829003018186803b158015610fbe57600080fd5b505afa158015610fd2573d6000803e3d6000fd5b505050506040513d6020811015610fe857600080fd5b50516001600160a01b031633148061107f5750600054604080516318860ac560e21b81526008600482015290516001600160a01b03909216916362182b1491602480820192602092909190829003018186803b15801561104757600080fd5b505afa15801561105b573d6000803e3d6000fd5b505050506040513d602081101561107157600080fd5b50516001600160a01b031633145b61108857600080fd5b6001600160a01b031660009081526009602052604090206004018054600019019055565b6001600160a01b039081166000908152600960205260409020541690565b600054604080516318860ac560e21b81526007600482015290516001600160a01b03909216916362182b1491602480820192602092909190829003018186803b15801561111657600080fd5b505afa15801561112a573d6000803e3d6000fd5b505050506040513d602081101561114057600080fd5b50516001600160a01b03163314806111d75750600054604080516318860ac560e21b81526008600482015290516001600160a01b03909216916362182b1491602480820192602092909190829003018186803b15801561119f57600080fd5b505afa1580156111b3573d6000803e3d6000fd5b505050506040513d60208110156111c957600080fd5b50516001600160a01b031633145b6111e057600080fd5b6001600160a01b0391821660009081526009602090815260408220600190810180549182018155835291200180546001600160a01b03191691909216179055565b6001600160a01b031660009081526009602052604090206002015490565b600054604080516318860ac560e21b81526007600482015290516001600160a01b03909216916362182b1491602480820192602092909190829003018186803b15801561128b57600080fd5b505afa15801561129f573d6000803e3d6000fd5b505050506040513d60208110156112b557600080fd5b50516001600160a01b031633148061134c5750600054604080516318860ac560e21b81526008600482015290516001600160a01b03909216916362182b1491602480820192602092909190829003018186803b15801561131457600080fd5b505afa158015611328573d6000803e3d6000fd5b505050506040513d602081101561133e57600080fd5b50516001600160a01b031633145b61135557600080fd5b6001600160a01b0316600090815260096020526040902060040180546001019055565b600054604080516318860ac560e21b81526007600482015290516001600160a01b03909216916362182b1491602480820192602092909190829003018186803b1580156113c457600080fd5b505afa1580156113d8573d6000803e3d6000fd5b505050506040513d60208110156113ee57600080fd5b50516001600160a01b03163314806114855750600054604080516318860ac560e21b81526008600482015290516001600160a01b03909216916362182b1491602480820192602092909190829003018186803b15801561144d57600080fd5b505afa158015611461573d6000803e3d6000fd5b505050506040513d602081101561147757600080fd5b50516001600160a01b031633145b61148e57600080fd5b6000805b60085481101561154b57826001600160a01b0316600882815481106114b357fe5b6000918252602090912001546001600160a01b031614156114d957600190910190611543565b811561154357600881815481106114ec57fe5b600091825260209091200154600880546001600160a01b039092169184840390811061151457fe5b9060005260206000200160006101000a8154816001600160a01b0302191690836001600160a01b031602179055505b600101611492565b5060005b8181101561158c57600880548061156257fe5b600082815260209020810160001990810180546001600160a01b031916905501905560010161154f565b505050565b600054604080516318860ac560e21b81526007600482015290516001600160a01b03909216916362182b1491602480820192602092909190829003018186803b1580156115dd57600080fd5b505afa1580156115f1573d6000803e3d6000fd5b505050506040513d602081101561160757600080fd5b50516001600160a01b031633148061169e5750600054604080516318860ac560e21b81526008600482015290516001600160a01b03909216916362182b1491602480820192602092909190829003018186803b15801561166657600080fd5b505afa15801561167a573d6000803e3d6000fd5b505050506040513d602081101561169057600080fd5b50516001600160a01b031633145b6116a757600080fd5b600555565b600054604080516318860ac560e21b81526007600482015290516001600160a01b03909216916362182b1491602480820192602092909190829003018186803b1580156116f857600080fd5b505afa15801561170c573d6000803e3d6000fd5b505050506040513d602081101561172257600080fd5b50516001600160a01b03163314806117b95750600054604080516318860ac560e21b81526008600482015290516001600160a01b03909216916362182b1491602480820192602092909190829003018186803b15801561178157600080fd5b505afa158015611795573d6000803e3d6000fd5b505050506040513d60208110156117ab57600080fd5b50516001600160a01b031633145b6117c257600080fd5b80516117d5906002906020840190612c50565b5050565b6001600160a01b031660009081526009602052604090206004015490565b600054604080516318860ac560e21b81526007600482015290516001600160a01b03909216916362182b1491602480820192602092909190829003018186803b15801561184357600080fd5b505afa158015611857573d6000803e3d6000fd5b505050506040513d602081101561186d57600080fd5b50516001600160a01b03163314806119045750600054604080516318860ac560e21b81526008600482015290516001600160a01b03909216916362182b1491602480820192602092909190829003018186803b1580156118cc57600080fd5b505afa1580156118e0573d6000803e3d6000fd5b505050506040513d60208110156118f657600080fd5b50516001600160a01b031633145b61190d57600080fd5b6001600160a01b03909116600090815260096020526040902060040155565b600054604080516318860ac560e21b81526007600482015290516001600160a01b03909216916362182b1491602480820192602092909190829003018186803b15801561197857600080fd5b505afa15801561198c573d6000803e3d6000fd5b505050506040513d60208110156119a257600080fd5b50516001600160a01b0316331480611a395750600054604080516318860ac560e21b81526008600482015290516001600160a01b03909216916362182b1491602480820192602092909190829003018186803b158015611a0157600080fd5b505afa158015611a15573d6000803e3d6000fd5b505050506040513d6020811015611a2b57600080fd5b50516001600160a01b031633145b611a4257600080fd5b600080546001600160a01b0319166001600160a01b0392909216919091179055565b60088181548110611a7457600080fd5b6000918252602090912001546001600160a01b0316905081565b60018054604080516020600284861615610100026000190190941693909304601f81018490048402820184019092528181529291830182828015611b135780601f10611ae857610100808354040283529160200191611b13565b820191906000526020600020905b815481529060010190602001808311611af657829003601f168201915b505050505081565b60065460ff1681565b6002805460408051602060018416156101000260001901909316849004601f81018490048402820184019092528181529291830182828015611b135780601f10611ae857610100808354040283529160200191611b13565b60035481565b60055481565b6001600160a01b038116600090815260096020908152604091829020600101805483518184028101840190945280845260609392830182828015611bf557602002820191906000526020600020905b81546001600160a01b03168152600190910190602001808311611bd7575b50505050509050919050565b6001600160a01b031660009081526009602052604090206003015460ff1690565b600054604080516318860ac560e21b81526007600482015290516001600160a01b03909216916362182b1491602480820192602092909190829003018186803b158015611c6e57600080fd5b505afa158015611c82573d6000803e3d6000fd5b505050506040513d6020811015611c9857600080fd5b50516001600160a01b0316331480611d2f5750600054604080516318860ac560e21b81526008600482015290516001600160a01b03909216916362182b1491602480820192602092909190829003018186803b158015611cf757600080fd5b505afa158015611d0b573d6000803e3d6000fd5b505050506040513d6020811015611d2157600080fd5b50516001600160a01b031633145b611d3857600080fd5b80516117d5906001906020840190612c50565b6001600160a01b0382166000908152600960205260408120600101805483908110611d7257fe5b6000918252602090912001546001600160a01b03169392505050565b60606008805480602002602001604051908101604052809291908181526020018280548015611de657602002820191906000526020600020905b81546001600160a01b03168152600190910190602001808311611dc8575b5050505050905090565b600054604080516318860ac560e21b81526007600482015290516001600160a01b03909216916362182b1491602480820192602092909190829003018186803b158015611e3c57600080fd5b505afa158015611e50573d6000803e3d6000fd5b505050506040513d6020811015611e6657600080fd5b50516001600160a01b0316331480611efd5750600054604080516318860ac560e21b81526008600482015290516001600160a01b03909216916362182b1491602480820192602092909190829003018186803b158015611ec557600080fd5b505afa158015611ed9573d6000803e3d6000fd5b505050506040513d6020811015611eef57600080fd5b50516001600160a01b031633145b611f0657600080fd5b6000546001600160a01b0316ff5b600054604080516318860ac560e21b81526007600482015290516001600160a01b03909216916362182b1491602480820192602092909190829003018186803b158015611f6057600080fd5b505afa158015611f74573d6000803e3d6000fd5b505050506040513d6020811015611f8a57600080fd5b50516001600160a01b03163314806120215750600054604080516318860ac560e21b81526008600482015290516001600160a01b03909216916362182b1491602480820192602092909190829003018186803b158015611fe957600080fd5b505afa158015611ffd573d6000803e3d6000fd5b505050506040513d602081101561201357600080fd5b50516001600160a01b031633145b61202a57600080fd5b6001600160a01b03919091166000908152600960205260409020600301805460ff1916911515919091179055565b6001600160a01b031660009081526009602052604090206005015460ff1690565b600054604080516318860ac560e21b81526007600482015290516001600160a01b03909216916362182b1491602480820192602092909190829003018186803b1580156120c557600080fd5b505afa1580156120d9573d6000803e3d6000fd5b505050506040513d60208110156120ef57600080fd5b50516001600160a01b03163314806121865750600054604080516318860ac560e21b81526008600482015290516001600160a01b03909216916362182b1491602480820192602092909190829003018186803b15801561214e57600080fd5b505afa158015612162573d6000803e3d6000fd5b505050506040513d602081101561217857600080fd5b50516001600160a01b031633145b61218f57600080fd5b6040805160c0810182526001600160a01b03868116825260208083018981528385018b905287151560608501526080840187905285151560a08501528b831660009081526009835294909420835181546001600160a01b031916931692909217825592518051929391926122099260018501920190612cdc565b5060408201516002820155606082015160038201805491151560ff199283161790556080830151600483015560a090920151600590910180549115159190921617905550505050505050565b600054604080516318860ac560e21b81526007600482015290516001600160a01b03909216916362182b1491602480820192602092909190829003018186803b1580156122a157600080fd5b505afa1580156122b5573d6000803e3d6000fd5b505050506040513d60208110156122cb57600080fd5b50516001600160a01b03163314806123625750600054604080516318860ac560e21b81526008600482015290516001600160a01b03909216916362182b1491602480820192602092909190829003018186803b15801561232a57600080fd5b505afa15801561233e573d6000803e3d6000fd5b505050506040513d602081101561235457600080fd5b50516001600160a01b031633145b61236b57600080fd5b6000805b6001600160a01b038416600090815260096020526040902060010154811015612484576001600160a01b038481166000908152600960205260409020600101805491851691839081106123be57fe5b6000918252602090912001546001600160a01b031614156123e45760019091019061247c565b811561247c576001600160a01b038416600090815260096020526040902060010180548290811061241157fe5b60009182526020808320909101546001600160a01b03878116845260099092526040909220600101805491909216919084840390811061244d57fe5b9060005260206000200160006101000a8154816001600160a01b0302191690836001600160a01b031602179055505b60010161236f565b5060005b818110156124de576001600160a01b03841660009081526009602052604090206001018054806124b457fe5b600082815260209020810160001990810180546001600160a01b0319169055019055600101612488565b50505050565b600054604080516318860ac560e21b81526007600482015290516001600160a01b03909216916362182b1491602480820192602092909190829003018186803b15801561253057600080fd5b505afa158015612544573d6000803e3d6000fd5b505050506040513d602081101561255a57600080fd5b50516001600160a01b03163314806125f15750600054604080516318860ac560e21b81526008600482015290516001600160a01b03909216916362182b1491602480820192602092909190829003018186803b1580156125b957600080fd5b505afa1580156125cd573d6000803e3d6000fd5b505050506040513d60208110156125e357600080fd5b50516001600160a01b031633145b6125fa57600080fd5b6001600160a01b03919091166000908152600960205260409020600501805460ff1916911515919091179055565b60085490565b6004546001600160a01b031681565b600054604080516318860ac560e21b81526007600482015290516001600160a01b03909216916362182b1491602480820192602092909190829003018186803b15801561268957600080fd5b505afa15801561269d573d6000803e3d6000fd5b505050506040513d60208110156126b357600080fd5b50516001600160a01b031633148061274a5750600054604080516318860ac560e21b81526008600482015290516001600160a01b03909216916362182b1491602480820192602092909190829003018186803b15801561271257600080fd5b505afa158015612726573d6000803e3d6000fd5b505050506040513d602081101561273c57600080fd5b50516001600160a01b031633145b61275357600080fd5b6001600160a01b031660009081526007602052604090208054600019019055565b60076020526000908152604090205481565b600054604080516318860ac560e21b81526007600482015290516001600160a01b03909216916362182b1491602480820192602092909190829003018186803b1580156127d257600080fd5b505afa1580156127e6573d6000803e3d6000fd5b505050506040513d60208110156127fc57600080fd5b50516001600160a01b03163314806128935750600054604080516318860ac560e21b81526008600482015290516001600160a01b03909216916362182b1491602480820192602092909190829003018186803b15801561285b57600080fd5b505afa15801561286f573d6000803e3d6000fd5b505050506040513d602081101561288557600080fd5b50516001600160a01b031633145b61289c57600080fd5b6006805460ff1916911515919091179055565b600054604080516318860ac560e21b81526007600482015290516001600160a01b03909216916362182b1491602480820192602092909190829003018186803b1580156128fb57600080fd5b505afa15801561290f573d6000803e3d6000fd5b505050506040513d602081101561292557600080fd5b50516001600160a01b03163314806129bc5750600054604080516318860ac560e21b81526008600482015290516001600160a01b03909216916362182b1491602480820192602092909190829003018186803b15801561298457600080fd5b505afa158015612998573d6000803e3d6000fd5b505050506040513d60208110156129ae57600080fd5b50516001600160a01b031633145b6129c557600080fd5b6001600160a01b03909116600090815260076020526040902055565b600054604080516318860ac560e21b81526007600482015290516001600160a01b03909216916362182b1491602480820192602092909190829003018186803b158015612a2d57600080fd5b505afa158015612a41573d6000803e3d6000fd5b505050506040513d6020811015612a5757600080fd5b50516001600160a01b0316331480612aee5750600054604080516318860ac560e21b81526008600482015290516001600160a01b03909216916362182b1491602480820192602092909190829003018186803b158015612ab657600080fd5b505afa158015612aca573d6000803e3d6000fd5b505050506040513d6020811015612ae057600080fd5b50516001600160a01b031633145b612af757600080fd5b600355565b600054604080516318860ac560e21b81526007600482015290516001600160a01b03909216916362182b1491602480820192602092909190829003018186803b158015612b4857600080fd5b505afa158015612b5c573d6000803e3d6000fd5b505050506040513d6020811015612b7257600080fd5b50516001600160a01b0316331480612c095750600054604080516318860ac560e21b81526008600482015290516001600160a01b03909216916362182b1491602480820192602092909190829003018186803b158015612bd157600080fd5b505afa158015612be5573d6000803e3d6000fd5b505050506040513d6020811015612bfb57600080fd5b50516001600160a01b031633145b612c1257600080fd5b6001600160a01b0316600090815260076020526040902080546001019055565b6001600160a01b031660009081526009602052604090206001015490565b828054600181600116156101000203166002900490600052602060002090601f016020900481019282612c865760008555612ccc565b82601f10612c9f57805160ff1916838001178555612ccc565b82800160010185558215612ccc579182015b82811115612ccc578251825591602001919060010190612cb1565b50612cd8929150612d31565b5090565b828054828255906000526020600020908101928215612ccc579160200282015b82811115612ccc57825182546001600160a01b0319166001600160a01b03909116178255602090920191600190910190612cfc565b5b80821115612cd85760008155600101612d3256fea264697066735822122063cd3bfd050b549ecc71c5ad7611ac401798b974d11c73000f2f1506dfda1bc264736f6c63430007050033",
  "immutableReferences": {},
  "source": "// SPDX-License-Identifier: GPL-3.0\r\npragma solidity ^0.7.5;\r\n\r\nimport './Alexandria.sol';\r\nimport './Eniko.sol';\r\n\r\ncontract Ballot {\r\n    \r\n    modifier limitedAccess {\r\n        require(msg.sender == Eniko(eniko).getAppAddress(7) || msg.sender == Eniko(eniko).getAppAddress(8));\r\n        _;\r\n    }\r\n\r\n    // The actual ballot choices are included in the vote tree as if they were voters but their choice is set to address zero\r\n    // This enables 'real' voters to allocate their vote to a choice in the same way as they allocate to another voter\r\n    // Each 'real' voter matches a consequence or the purpose\r\n    address payable public eniko;                                      // The root Eniko contract\r\n    string public title;                                               // The title of the ballot\r\n    string public details;                                             // Details of the ballot\r\n    uint public enikoApp;                                              // The Eniko App which the proposer is proposing to replace with the winning address. Or 0 if it is not a proposal to replace an app\r\n    address public proposer;                                           // The address of the person or contract who proposed the ballot\r\n    uint public closeTime;                                             // The time at which the ballot will close\r\n    bool public ballotOpen;                                            // Indicator that the ballot is still open\r\n    mapping(address => uint) public authorVoteCount;                   // The number of votes (consequences) each author has, used to weight their votes\r\n                                                                        // More votes means lower weighting so that each author is equal irrespective of the number of consequences they have\r\n    address[] public voteOptions;                                      // A list of the real voting options, including abstention\r\n    mapping(address => Alexandria.VoterDetails) private voteTree;       // A tree including all voters and their selected vote\r\n\r\n\r\n    constructor(address payable eniko_) {\r\n        eniko = eniko_;\r\n    }\r\n    \r\n\r\n    // Admin Functions\r\n\r\n    function destroy() external limitedAccess  {\r\n        selfdestruct(eniko);\r\n    }\r\n\r\n\r\n    // Getters\r\n\r\n    function getVoteOptions() external view returns(address[] memory voteOptions_) {\r\n        voteOptions_ = voteOptions;\r\n    }\r\n\r\n    function getVoteOptionsCount() external view returns(uint count_) {\r\n        count_ = voteOptions.length;\r\n    }\r\n\r\n    // Getters - voteTree\r\n\r\n    function getNodeChoice(address node_) external view returns(address choice_) {\r\n        choice_ = voteTree[node_].choice;\r\n    }\r\n\r\n    function getNodeFollowers(address node_) external view returns(address[] memory followers_) {\r\n        followers_ = voteTree[node_].followers;\r\n    }\r\n\r\n    function getNodeFollowersCount(address node_) external view returns(uint count_) {\r\n        count_ = voteTree[node_].followers.length;\r\n    }\r\n\r\n    function getNodeFollower(address node_, uint index_) external view returns(address follower_) {\r\n        follower_ = voteTree[node_].followers[index_];\r\n    }\r\n\r\n    function getNodeTitle(address node_) external view returns(bytes32 title_) {\r\n        title_ = voteTree[node_].title;\r\n    }\r\n\r\n    function getNodeExists(address node_) external view returns(bool exists_) {\r\n        exists_ = voteTree[node_].exists;\r\n    }\r\n\r\n    function getNodeVoteCount(address node_) external view returns (uint voteCount_) {\r\n        voteCount_ = voteTree[node_].voteCount;\r\n    } \r\n\r\n    function getNodeTookAction(address node_) external view returns (bool tookAction_) {\r\n        tookAction_ = voteTree[node_].tookAction;\r\n    }\r\n\r\n\r\n    // Setters\r\n\r\n    function setEniko(address payable eniko_) external limitedAccess {\r\n        eniko = eniko_;\r\n    }\r\n\r\n    function setTitle(string memory title_) external limitedAccess {\r\n        title = title_;\r\n    }\r\n\r\n    function setDetails(string memory details_) external limitedAccess {\r\n        details = details_;\r\n    }\r\n\r\n    function setEnikoApp(uint enikoApp_) external limitedAccess {\r\n        enikoApp = enikoApp_;\r\n    }\r\n\r\n    function setProposer(address proposer_) external limitedAccess {\r\n        proposer = proposer_;\r\n    }\r\n\r\n    function setCloseTime(uint closeTime_) external limitedAccess {\r\n        closeTime = closeTime_;\r\n    }\r\n\r\n    function setBallotOpen(bool ballotOpen_) external limitedAccess {\r\n        ballotOpen = ballotOpen_;\r\n    }\r\n\r\n    function setAuthorVoteCount(address author_, uint count_) external limitedAccess {\r\n        authorVoteCount[author_] = count_;\r\n    }\r\n\r\n    function incrementAuthorVoteCount(address author_) external limitedAccess {\r\n        authorVoteCount[author_]++;\r\n    }\r\n\r\n    function decrementAuthorVoteCount(address author_) external limitedAccess {\r\n        authorVoteCount[author_]--;\r\n    }\r\n\r\n    function addVoteOption(address option_) external limitedAccess {\r\n        voteOptions.push(option_);\r\n    }\r\n\r\n    function removeVoteOption(address option_) external limitedAccess {\r\n        uint j = 0;\r\n        for (uint i = 0; i < voteOptions.length; i++) {\r\n            if (voteOptions[i] == option_) {\r\n                j++;\r\n            }\r\n            else {\r\n                if (j>0) {\r\n                    voteOptions[i-j] = voteOptions[i];\r\n                }\r\n            }\r\n        }\r\n        for (uint i = 0; i < j; i++) {\r\n            voteOptions.pop();\r\n        }\r\n    }\r\n\r\n    // Setters - voteTree\r\n\r\n    function addVoteTreeNode(address node_, bytes32 title_, address[] memory followers_, address choice_, bool exists_, uint voteCount_, bool tookAction_) external limitedAccess {\r\n        voteTree[node_] = Alexandria.VoterDetails({title: title_, followers: followers_, choice: choice_, exists: exists_, voteCount: voteCount_, tookAction: tookAction_});\r\n    }\r\n\r\n    function setNodeChoice(address node_, address choice_) external limitedAccess {\r\n        voteTree[node_].choice = choice_;\r\n    }\r\n\r\n    function addNodeFollower(address node_, address follower_) external limitedAccess {\r\n        voteTree[node_].followers.push(follower_);\r\n    }\r\n\r\n    function removeNodeFollower(address node_, address follower_) external limitedAccess {\r\n        uint j = 0;\r\n        for (uint i = 0; i < voteTree[node_].followers.length; i++) {\r\n            if (voteTree[node_].followers[i] == follower_) {\r\n                j++;\r\n            }\r\n            else {\r\n                if (j>0) {\r\n                    voteTree[node_].followers[i-j] = voteTree[node_].followers[i];\r\n                }\r\n            }\r\n        }\r\n        for (uint i = 0; i < j; i++) {\r\n            voteTree[node_].followers.pop();\r\n        }\r\n    }\r\n\r\n    function setNodeTitle(address node_, bytes32 title_) external limitedAccess {\r\n        voteTree[node_].title = title_;\r\n    }\r\n\r\n    function setNodeExists(address node_, bool exists_) external limitedAccess {\r\n        voteTree[node_].exists = exists_;\r\n    }\r\n\r\n    function setNodeVoteCount(address node_, uint voteCount_) external limitedAccess {\r\n        voteTree[node_].voteCount = voteCount_;\r\n    }\r\n\r\n    function incrementNodeVoteCount(address node_) external limitedAccess {\r\n        voteTree[node_].voteCount++;\r\n    }\r\n\r\n    function decrementNodeVoteCount(address node_) external limitedAccess {\r\n        voteTree[node_].voteCount--;\r\n    }\r\n\r\n    function setNodeTookAction(address node_, bool tookAction_) external limitedAccess {\r\n        voteTree[node_].tookAction = tookAction_;\r\n    }\r\n\r\n}",
  "sourcePath": "C:/Users/Jonathan/OneDrive/Project Eniko/Eniko/contracts/Ballot.sol",
  "compiler": {
    "name": "solc",
    "version": "0.7.5+commit.eb77ed08.Emscripten.clang"
  },
  "schemaVersion": "3.3.4",
  "updatedAt": "2021-04-03T10:34:33.441Z",
  "devdoc": {
    "kind": "dev",
    "methods": {},
    "version": 1
  },
  "userdoc": {
    "kind": "user",
    "methods": {},
    "version": 1
  }
}