{
  "contractName": "Citizens",
  "abi": [
    {
      "inputs": [
        {
          "internalType": "address payable",
          "name": "eniko_",
          "type": "address"
        }
      ],
      "stateMutability": "nonpayable",
      "type": "constructor"
    },
    {
      "inputs": [],
      "name": "destroy",
      "outputs": [],
      "stateMutability": "nonpayable",
      "type": "function"
    },
    {
      "inputs": [
        {
          "internalType": "address",
          "name": "citizen_",
          "type": "address"
        }
      ],
      "name": "getPublicKey",
      "outputs": [
        {
          "internalType": "bytes32",
          "name": "first_",
          "type": "bytes32"
        },
        {
          "internalType": "bytes32",
          "name": "second_",
          "type": "bytes32"
        }
      ],
      "stateMutability": "view",
      "type": "function"
    },
    {
      "inputs": [
        {
          "internalType": "address",
          "name": "citizen_",
          "type": "address"
        }
      ],
      "name": "getName",
      "outputs": [
        {
          "internalType": "bytes32",
          "name": "name_",
          "type": "bytes32"
        }
      ],
      "stateMutability": "view",
      "type": "function"
    },
    {
      "inputs": [
        {
          "internalType": "address",
          "name": "citizen_",
          "type": "address"
        },
        {
          "internalType": "bytes32",
          "name": "first_",
          "type": "bytes32"
        },
        {
          "internalType": "bytes32",
          "name": "second_",
          "type": "bytes32"
        }
      ],
      "name": "updatePublicKey",
      "outputs": [],
      "stateMutability": "nonpayable",
      "type": "function"
    },
    {
      "inputs": [
        {
          "internalType": "address",
          "name": "citizen_",
          "type": "address"
        },
        {
          "internalType": "bytes32",
          "name": "name_",
          "type": "bytes32"
        }
      ],
      "name": "updateName",
      "outputs": [],
      "stateMutability": "nonpayable",
      "type": "function"
    }
  ],
  "bytecode": "0x608060405234801561001057600080fd5b506040516105363803806105368339818101604052602081101561003357600080fd5b5051600080546001600160a01b039092166001600160a01b03199092169190911790556104d1806100656000396000f3fe608060405234801561001057600080fd5b50600436106100575760003560e01c80633b51eea21461005c5780635fd4b08a1461009057806383197ef0146100c8578063857cdbb8146100d0578063b162a3821461010f575b600080fd5b61008e6004803603606081101561007257600080fd5b506001600160a01b03813516906020810135906040013561013b565b005b6100b6600480360360208110156100a657600080fd5b50356001600160a01b03166102a6565b60408051918252519081900360200190f35b61008e6102c1565b6100f6600480360360208110156100e657600080fd5b50356001600160a01b0316610314565b6040805192835260208301919091528051918290030190f35b61008e6004803603604081101561012557600080fd5b506001600160a01b03813516906020013561033c565b600054604080516318860ac560e21b815260048181015290516001600160a01b03909216916362182b1491602480820192602092909190829003018186803b15801561018657600080fd5b505afa15801561019a573d6000803e3d6000fd5b505050506040513d60208110156101b057600080fd5b50516001600160a01b03163314806102475750600054604080516318860ac560e21b8152600a600482015290516001600160a01b03909216916362182b1491602480820192602092909190829003018186803b15801561020f57600080fd5b505afa158015610223573d6000803e3d6000fd5b505050506040513d602081101561023957600080fd5b50516001600160a01b031633145b61027e576040805162461bcd60e51b815260206004820152600360248201526234303360e81b604482015290519081900360640190fd5b6001600160a01b03909216600090815260016020908152604080832093909355600290522055565b6001600160a01b031660009081526003602052604090205490565b6000546001600160a01b03163314610306576040805162461bcd60e51b815260206004820152600360248201526234303360e81b604482015290519081900360640190fd5b6000546001600160a01b0316ff5b6001600160a01b03166000908152600160209081526040808320546002909252909120549091565b600054604080516318860ac560e21b815260048181015290516001600160a01b03909216916362182b1491602480820192602092909190829003018186803b15801561038757600080fd5b505afa15801561039b573d6000803e3d6000fd5b505050506040513d60208110156103b157600080fd5b50516001600160a01b03163314806104485750600054604080516318860ac560e21b8152600a600482015290516001600160a01b03909216916362182b1491602480820192602092909190829003018186803b15801561041057600080fd5b505afa158015610424573d6000803e3d6000fd5b505050506040513d602081101561043a57600080fd5b50516001600160a01b031633145b61047f576040805162461bcd60e51b815260206004820152600360248201526234303360e81b604482015290519081900360640190fd5b6001600160a01b0390911660009081526003602052604090205556fea264697066735822122096ec1e6161af8d54716e9efbc0bd331221c3ead8101372a3d05e64bcb0345b7964736f6c63430007050033",
  "immutableReferences": {},
  "source": "// SPDX-License-Identifier: GPL-3.0\r\npragma solidity ^0.7.5;\r\n\r\nimport './Eniko.sol';\r\n\r\ncontract Citizens is EnikoApp {\r\n    mapping(address => bytes32) private first;           // The first half of the public key corresponding to the address\r\n    mapping(address => bytes32) private second;          // The second half of the public key corresponding to the address\r\n    mapping(address => bytes32) private name;            // A friendly name for the citizen\r\n\r\n    constructor(address payable eniko_) {\r\n        eniko = eniko_;\r\n    }\r\n\r\n    modifier limitedAccess {\r\n        // Only Allow Conseqeunce Functions and Citizen Functions\r\n        require(msg.sender == Eniko(eniko).getAppAddress(4) || msg.sender == Eniko(eniko).getAppAddress(10), \"403\");\r\n        _;\r\n    }\r\n\r\n    function getPublicKey(address citizen_) external view returns(bytes32 first_, bytes32 second_) {\r\n        first_ = first[citizen_];\r\n        second_ = second[citizen_];\r\n    }\r\n\r\n    function getName(address citizen_) external view returns(bytes32 name_) {\r\n        name_ = name[citizen_];\r\n    }\r\n\r\n    function updatePublicKey(address citizen_, bytes32 first_, bytes32 second_) external limitedAccess {\r\n        first[citizen_] = first_;\r\n        second[citizen_] = second_;\r\n    }\r\n\r\n    function updateName(address citizen_, bytes32 name_) external limitedAccess {\r\n        name[citizen_] = name_;\r\n    }\r\n\r\n\r\n}",
  "sourcePath": "C:\\Users\\Jonathan\\OneDrive\\Project Eniko\\Eniko\\contracts\\Citizens.sol",
  "compiler": {
    "name": "solc",
    "version": "0.7.5+commit.eb77ed08.Emscripten.clang"
  },
  "schemaVersion": "3.3.4",
  "updatedAt": "2021-04-18T14:58:25.442Z",
  "devdoc": {
    "kind": "dev",
    "methods": {},
    "version": 1
  },
  "userdoc": {
    "kind": "user",
    "methods": {},
    "version": 1
  }
}