{
  "contractName": "CitizenFunctions",
  "abi": [
    {
      "inputs": [
        {
          "internalType": "address payable",
          "name": "eniko_",
          "type": "address"
        }
      ],
      "stateMutability": "nonpayable",
      "type": "constructor"
    },
    {
      "inputs": [],
      "name": "destroy",
      "outputs": [],
      "stateMutability": "nonpayable",
      "type": "function"
    },
    {
      "inputs": [
        {
          "internalType": "address",
          "name": "citizen_",
          "type": "address"
        }
      ],
      "name": "getPublicKey",
      "outputs": [
        {
          "internalType": "bytes32",
          "name": "first_",
          "type": "bytes32"
        },
        {
          "internalType": "bytes32",
          "name": "second_",
          "type": "bytes32"
        }
      ],
      "stateMutability": "view",
      "type": "function",
      "constant": true
    },
    {
      "inputs": [
        {
          "internalType": "address",
          "name": "citizen_",
          "type": "address"
        }
      ],
      "name": "getCitizenName",
      "outputs": [
        {
          "internalType": "bytes32",
          "name": "name_",
          "type": "bytes32"
        }
      ],
      "stateMutability": "view",
      "type": "function",
      "constant": true
    },
    {
      "inputs": [
        {
          "internalType": "bytes32",
          "name": "first_",
          "type": "bytes32"
        },
        {
          "internalType": "bytes32",
          "name": "second_",
          "type": "bytes32"
        }
      ],
      "name": "setPublicKey",
      "outputs": [],
      "stateMutability": "nonpayable",
      "type": "function"
    },
    {
      "inputs": [
        {
          "internalType": "bytes32",
          "name": "name_",
          "type": "bytes32"
        }
      ],
      "name": "setCitizenName",
      "outputs": [],
      "stateMutability": "nonpayable",
      "type": "function"
    }
  ],
  "bytecode": "0x608060405234801561001057600080fd5b5060405161049f38038061049f8339818101604052602081101561003357600080fd5b5051600080546001600160a01b039092166001600160a01b031990921691909117905561043a806100656000396000f3fe608060405234801561001057600080fd5b50600436106100575760003560e01c806310e73a2e1461005c5780634cadb52e14610081578063631fb6ef1461009e57806383197ef0146100d6578063857cdbb8146100de575b600080fd5b61007f6004803603604081101561007257600080fd5b508035906020013561011d565b005b61007f6004803603602081101561009757600080fd5b503561019f565b6100c4600480360360208110156100b457600080fd5b50356001600160a01b0316610218565b60408051918252519081900360200190f35b61007f6102a0565b610104600480360360208110156100f457600080fd5b50356001600160a01b03166102f3565b6040805192835260208301919091528051918290030190f35b610125610386565b6001600160a01b0316633b51eea23384846040518463ffffffff1660e01b815260040180846001600160a01b031681526020018381526020018281526020019350505050600060405180830381600087803b15801561018357600080fd5b505af1158015610197573d6000803e3d6000fd5b505050505050565b6101a7610386565b6001600160a01b031663b162a38233836040518363ffffffff1660e01b815260040180836001600160a01b0316815260200182815260200192505050600060405180830381600087803b1580156101fd57600080fd5b505af1158015610211573d6000803e3d6000fd5b5050505050565b6000610222610386565b6001600160a01b0316635fd4b08a836040518263ffffffff1660e01b815260040180826001600160a01b0316815260200191505060206040518083038186803b15801561026e57600080fd5b505afa158015610282573d6000803e3d6000fd5b505050506040513d602081101561029857600080fd5b505192915050565b6000546001600160a01b031633146102e5576040805162461bcd60e51b815260206004820152600360248201526234303360e81b604482015290519081900360640190fd5b6000546001600160a01b0316ff5b6000806102fe610386565b6001600160a01b031663857cdbb8846040518263ffffffff1660e01b815260040180826001600160a01b03168152602001915050604080518083038186803b15801561034957600080fd5b505afa15801561035d573d6000803e3d6000fd5b505050506040513d604081101561037357600080fd5b5080516020909101519094909350915050565b60008054604080516318860ac560e21b8152600b600482015290516001600160a01b03909216916362182b1491602480820192602092909190829003018186803b1580156103d357600080fd5b505afa1580156103e7573d6000803e3d6000fd5b505050506040513d60208110156103fd57600080fd5b505191905056fea2646970667358221220d79ee2cec45468e79be5eaddff5e950b75f51d8e342b31919ac1625edd0dc8bb64736f6c63430007050033",
  "immutableReferences": {},
  "source": "// SPDX-License-Identifier: GPL-3.0\r\npragma solidity ^0.7.5;\r\n\r\nimport './Eniko.sol';\r\nimport './Citizens.sol';\r\n\r\ncontract CitizenFunctions is EnikoApp {\r\n\r\n    // Constructor\r\n    constructor(address payable eniko_) {\r\n        eniko = eniko_;\r\n    }\r\n\r\n    function getPublicKey(address citizen_) external view returns(bytes32 first_, bytes32 second_) {\r\n        (first_, second_) = getCitizensApp().getPublicKey(citizen_);\r\n    }\r\n\r\n    function getCitizenName(address citizen_) external view returns(bytes32 name_) {\r\n        name_ = getCitizensApp().getName(citizen_);\r\n    }\r\n\r\n    function getCitizensApp() internal view returns (Citizens app_) {\r\n        app_ = Citizens(Eniko(eniko).getAppAddress(11));\r\n    }\r\n\r\n    function setPublicKey(bytes32 first_, bytes32 second_) external  {\r\n        getCitizensApp().updatePublicKey(msg.sender, first_, second_);\r\n    }\r\n\r\n    function setCitizenName(bytes32 name_) external  {\r\n        getCitizensApp().updateName(msg.sender, name_);\r\n    }\r\n\r\n}",
  "sourcePath": "C:/Users/Jonathan/OneDrive/Project Eniko/Eniko/contracts/CitizenFunctions.sol",
  "compiler": {
    "name": "solc",
    "version": "0.7.5+commit.eb77ed08.Emscripten.clang"
  },
  "schemaVersion": "3.3.4",
  "updatedAt": "2021-04-05T15:47:36.076Z",
  "networkType": "ethereum",
  "devdoc": {
    "kind": "dev",
    "methods": {},
    "version": 1
  },
  "userdoc": {
    "kind": "user",
    "methods": {},
    "version": 1
  }
}