{
  "contractName": "ConsequenceFunctions",
  "abi": [
    {
      "inputs": [
        {
          "internalType": "address payable",
          "name": "eniko_",
          "type": "address"
        }
      ],
      "stateMutability": "nonpayable",
      "type": "constructor"
    },
    {
      "inputs": [],
      "name": "destroy",
      "outputs": [],
      "stateMutability": "nonpayable",
      "type": "function"
    },
    {
      "inputs": [],
      "name": "getEniko",
      "outputs": [
        {
          "internalType": "address payable",
          "name": "eniko_",
          "type": "address"
        }
      ],
      "stateMutability": "view",
      "type": "function"
    },
    {
      "inputs": [
        {
          "internalType": "address",
          "name": "consequence_",
          "type": "address"
        }
      ],
      "name": "getType",
      "outputs": [
        {
          "internalType": "enum Alexandria.ConsequenceType",
          "name": "type_",
          "type": "uint8"
        }
      ],
      "stateMutability": "view",
      "type": "function"
    },
    {
      "inputs": [
        {
          "internalType": "address",
          "name": "consequence_",
          "type": "address"
        }
      ],
      "name": "getAuthor",
      "outputs": [
        {
          "internalType": "address",
          "name": "author_",
          "type": "address"
        }
      ],
      "stateMutability": "view",
      "type": "function"
    },
    {
      "inputs": [
        {
          "internalType": "address",
          "name": "consequence_",
          "type": "address"
        }
      ],
      "name": "getCoAuthors",
      "outputs": [
        {
          "internalType": "address[]",
          "name": "coauthors_",
          "type": "address[]"
        }
      ],
      "stateMutability": "view",
      "type": "function"
    },
    {
      "inputs": [
        {
          "internalType": "address",
          "name": "consequence_",
          "type": "address"
        }
      ],
      "name": "getChildren",
      "outputs": [
        {
          "internalType": "address[]",
          "name": "children_",
          "type": "address[]"
        }
      ],
      "stateMutability": "view",
      "type": "function"
    },
    {
      "inputs": [
        {
          "internalType": "address",
          "name": "consequence_",
          "type": "address"
        }
      ],
      "name": "getParent",
      "outputs": [
        {
          "internalType": "address",
          "name": "parent_",
          "type": "address"
        }
      ],
      "stateMutability": "view",
      "type": "function"
    },
    {
      "inputs": [
        {
          "internalType": "address",
          "name": "consequence_",
          "type": "address"
        }
      ],
      "name": "getProvisionalParent",
      "outputs": [
        {
          "internalType": "address",
          "name": "parent_",
          "type": "address"
        }
      ],
      "stateMutability": "view",
      "type": "function"
    },
    {
      "inputs": [
        {
          "internalType": "address",
          "name": "consequence_",
          "type": "address"
        }
      ],
      "name": "checkAccess",
      "outputs": [
        {
          "internalType": "bool",
          "name": "access_",
          "type": "bool"
        }
      ],
      "stateMutability": "view",
      "type": "function"
    },
    {
      "inputs": [
        {
          "internalType": "address",
          "name": "consequence_",
          "type": "address"
        },
        {
          "internalType": "uint256",
          "name": "version_",
          "type": "uint256"
        }
      ],
      "name": "getTitle",
      "outputs": [
        {
          "internalType": "string",
          "name": "title_",
          "type": "string"
        }
      ],
      "stateMutability": "view",
      "type": "function"
    },
    {
      "inputs": [
        {
          "internalType": "address",
          "name": "consequence_",
          "type": "address"
        },
        {
          "internalType": "uint256",
          "name": "version_",
          "type": "uint256"
        }
      ],
      "name": "getContent",
      "outputs": [
        {
          "internalType": "string",
          "name": "content_",
          "type": "string"
        }
      ],
      "stateMutability": "view",
      "type": "function"
    },
    {
      "inputs": [
        {
          "internalType": "address",
          "name": "consequence_",
          "type": "address"
        },
        {
          "internalType": "uint256",
          "name": "version_",
          "type": "uint256"
        }
      ],
      "name": "getVersionAuthor",
      "outputs": [
        {
          "internalType": "address",
          "name": "author_",
          "type": "address"
        }
      ],
      "stateMutability": "view",
      "type": "function"
    },
    {
      "inputs": [
        {
          "internalType": "address",
          "name": "consequence_",
          "type": "address"
        },
        {
          "internalType": "uint256",
          "name": "version_",
          "type": "uint256"
        }
      ],
      "name": "getPendingApprovers",
      "outputs": [
        {
          "internalType": "address[]",
          "name": "approvers_",
          "type": "address[]"
        }
      ],
      "stateMutability": "view",
      "type": "function"
    },
    {
      "inputs": [
        {
          "internalType": "address",
          "name": "consequence_",
          "type": "address"
        },
        {
          "internalType": "uint256",
          "name": "version_",
          "type": "uint256"
        }
      ],
      "name": "getDecryptionKey",
      "outputs": [
        {
          "internalType": "bytes32",
          "name": "key_",
          "type": "bytes32"
        }
      ],
      "stateMutability": "view",
      "type": "function"
    },
    {
      "inputs": [
        {
          "internalType": "address",
          "name": "consequence_",
          "type": "address"
        }
      ],
      "name": "getInheritor",
      "outputs": [
        {
          "internalType": "address",
          "name": "inheritor_",
          "type": "address"
        }
      ],
      "stateMutability": "view",
      "type": "function"
    },
    {
      "inputs": [
        {
          "internalType": "address",
          "name": "consequence_",
          "type": "address"
        }
      ],
      "name": "getPendingApprovalsCount",
      "outputs": [
        {
          "internalType": "uint256",
          "name": "count_",
          "type": "uint256"
        }
      ],
      "stateMutability": "view",
      "type": "function"
    },
    {
      "inputs": [
        {
          "internalType": "address",
          "name": "consequence_",
          "type": "address"
        },
        {
          "internalType": "uint256",
          "name": "index_",
          "type": "uint256"
        }
      ],
      "name": "getPendingApproval",
      "outputs": [
        {
          "internalType": "address",
          "name": "approval_",
          "type": "address"
        },
        {
          "internalType": "uint256",
          "name": "version_",
          "type": "uint256"
        },
        {
          "internalType": "uint256",
          "name": "timestamp_",
          "type": "uint256"
        }
      ],
      "stateMutability": "view",
      "type": "function"
    },
    {
      "inputs": [
        {
          "internalType": "address",
          "name": "consequence_",
          "type": "address"
        },
        {
          "internalType": "uint256",
          "name": "version_",
          "type": "uint256"
        },
        {
          "internalType": "address",
          "name": "address_",
          "type": "address"
        },
        {
          "internalType": "bytes32",
          "name": "encryptedKey_",
          "type": "bytes32"
        }
      ],
      "name": "addDecryptionKey",
      "outputs": [],
      "stateMutability": "nonpayable",
      "type": "function"
    },
    {
      "inputs": [
        {
          "internalType": "address",
          "name": "consequence_",
          "type": "address"
        },
        {
          "internalType": "uint256",
          "name": "version_",
          "type": "uint256"
        },
        {
          "internalType": "address",
          "name": "address_",
          "type": "address"
        }
      ],
      "name": "removeDecryptionKey",
      "outputs": [],
      "stateMutability": "nonpayable",
      "type": "function"
    },
    {
      "inputs": [
        {
          "internalType": "address",
          "name": "consequence_",
          "type": "address"
        },
        {
          "internalType": "string",
          "name": "title_",
          "type": "string"
        },
        {
          "internalType": "string",
          "name": "content_",
          "type": "string"
        },
        {
          "internalType": "bytes32",
          "name": "pubKeyFirst_",
          "type": "bytes32"
        },
        {
          "internalType": "bytes32",
          "name": "pubKeySecond_",
          "type": "bytes32"
        },
        {
          "internalType": "bytes32",
          "name": "name_",
          "type": "bytes32"
        }
      ],
      "name": "addVersion",
      "outputs": [],
      "stateMutability": "nonpayable",
      "type": "function"
    },
    {
      "inputs": [
        {
          "internalType": "address",
          "name": "parent_",
          "type": "address"
        },
        {
          "internalType": "string",
          "name": "title_",
          "type": "string"
        },
        {
          "internalType": "string",
          "name": "content_",
          "type": "string"
        },
        {
          "internalType": "enum Alexandria.ConsequenceType",
          "name": "consequenceType_",
          "type": "uint8"
        },
        {
          "internalType": "bytes32",
          "name": "pubKeyFirst_",
          "type": "bytes32"
        },
        {
          "internalType": "bytes32",
          "name": "pubKeySecond_",
          "type": "bytes32"
        },
        {
          "internalType": "bytes32",
          "name": "name_",
          "type": "bytes32"
        }
      ],
      "name": "addConsequence",
      "outputs": [],
      "stateMutability": "nonpayable",
      "type": "function"
    },
    {
      "inputs": [
        {
          "internalType": "address",
          "name": "consequence_",
          "type": "address"
        },
        {
          "internalType": "uint256",
          "name": "version_",
          "type": "uint256"
        },
        {
          "internalType": "address",
          "name": "onBehalf_",
          "type": "address"
        }
      ],
      "name": "approve",
      "outputs": [],
      "stateMutability": "nonpayable",
      "type": "function"
    },
    {
      "inputs": [
        {
          "internalType": "address",
          "name": "consequence_",
          "type": "address"
        },
        {
          "internalType": "uint256",
          "name": "version_",
          "type": "uint256"
        },
        {
          "internalType": "address",
          "name": "onBehalf_",
          "type": "address"
        }
      ],
      "name": "reject",
      "outputs": [],
      "stateMutability": "nonpayable",
      "type": "function"
    },
    {
      "inputs": [
        {
          "internalType": "address",
          "name": "consequence_",
          "type": "address"
        },
        {
          "internalType": "address",
          "name": "inheritor_",
          "type": "address"
        },
        {
          "internalType": "bytes32",
          "name": "pubKeyFirst_",
          "type": "bytes32"
        },
        {
          "internalType": "bytes32",
          "name": "pubKeySecond_",
          "type": "bytes32"
        },
        {
          "internalType": "bytes32",
          "name": "name_",
          "type": "bytes32"
        }
      ],
      "name": "setInheritor",
      "outputs": [],
      "stateMutability": "nonpayable",
      "type": "function"
    },
    {
      "inputs": [
        {
          "internalType": "address",
          "name": "consequence_",
          "type": "address"
        },
        {
          "internalType": "uint256",
          "name": "version_",
          "type": "uint256"
        },
        {
          "internalType": "string",
          "name": "title_",
          "type": "string"
        }
      ],
      "name": "editTitle",
      "outputs": [],
      "stateMutability": "nonpayable",
      "type": "function"
    },
    {
      "inputs": [
        {
          "internalType": "address",
          "name": "consequence_",
          "type": "address"
        },
        {
          "internalType": "uint256",
          "name": "version_",
          "type": "uint256"
        },
        {
          "internalType": "string",
          "name": "content_",
          "type": "string"
        }
      ],
      "name": "editContent",
      "outputs": [],
      "stateMutability": "nonpayable",
      "type": "function"
    },
    {
      "inputs": [
        {
          "internalType": "address",
          "name": "consequence_",
          "type": "address"
        }
      ],
      "name": "deleteConsequence",
      "outputs": [],
      "stateMutability": "nonpayable",
      "type": "function"
    },
    {
      "inputs": [
        {
          "internalType": "address",
          "name": "consequence_",
          "type": "address"
        }
      ],
      "name": "resetMissedVotes",
      "outputs": [],
      "stateMutability": "nonpayable",
      "type": "function"
    },
    {
      "inputs": [
        {
          "internalType": "address",
          "name": "consequence_",
          "type": "address"
        }
      ],
      "name": "missedVote",
      "outputs": [],
      "stateMutability": "nonpayable",
      "type": "function"
    }
  ],
  "bytecode": "0x608060405234801561001057600080fd5b5060405162004cc038038062004cc08339818101604052602081101561003557600080fd5b5051600080546001600160a01b039092166001600160a01b0319909216919091179055614c5880620000686000396000f3fe608060405234801561001057600080fd5b50600436106101cf5760003560e01c80635c17dabf116101045780638691df70116100a2578063de43a69211610071578063de43a69214610947578063e02d7f831461096d578063e336855f14610aba578063f429f19b14610ae0576101cf565b80638691df7014610806578063a940592314610832578063c336ca4914610858578063cd42e5be14610911576101cf565b806366c91301116100de57806366c91301146107765780636999fa45146107a257806380e45181146107c857806383197ef0146107fe576101cf565b80635c17dabf146106a1578063622512f71461074257806362a4321c1461074a576101cf565b8063205d77c4116101715780632e8574a51161014b5780632e8574a5146104955780633e939963146104cf578063466a014614610613578063546835f31461064d576101cf565b8063205d77c41461040757806320b5de281461042d5780632bea4dc91461046f576101cf565b80630a687839116101ad5780630a687839146102b05780630ab30093146103695780631271f09a146103ab5780631a61d4bb146103e1576101cf565b806305446f79146101d457806307e068b2146101fc578063080e75701461023a575b600080fd5b6101fa600480360360208110156101ea57600080fd5b50356001600160a01b0316610b27565b005b6102286004803603604081101561021257600080fd5b506001600160a01b038135169060200135610c37565b60408051918252519081900360200190f35b6102606004803603602081101561025057600080fd5b50356001600160a01b0316610cc1565b60408051602080825283518183015283519192839290830191858101910280838360005b8381101561029c578181015183820152602001610284565b505050509050019250505060405180910390f35b6101fa600480360360608110156102c657600080fd5b6001600160a01b0382351691602081013591810190606081016040820135600160201b8111156102f557600080fd5b82018360208201111561030757600080fd5b803590602001918460018302840111600160201b8311171561032857600080fd5b91908080601f016020809104026020016040519081016040528093929190818152602001838380828437600092019190915250929550610dca945050505050565b61038f6004803603602081101561037f57600080fd5b50356001600160a01b03166110b5565b604080516001600160a01b039092168252519081900360200190f35b6101fa600480360360608110156103c157600080fd5b506001600160a01b03813581169160208101359160409091013516611122565b61038f600480360360208110156103f757600080fd5b50356001600160a01b031661184d565b6102286004803603602081101561041d57600080fd5b50356001600160a01b031661188c565b6101fa600480360360a081101561044357600080fd5b506001600160a01b038135811691602081013590911690604081013590606081013590608001356118cb565b6101fa6004803603602081101561048557600080fd5b50356001600160a01b0316611cf7565b6101fa600480360360808110156104ab57600080fd5b506001600160a01b0381358116916020810135916040820135169060600135611ef5565b6101fa600480360360c08110156104e557600080fd5b6001600160a01b038235169190810190604081016020820135600160201b81111561050f57600080fd5b82018360208201111561052157600080fd5b803590602001918460018302840111600160201b8311171561054257600080fd5b91908080601f0160208091040260200160405190810160405280939291908181526020018383808284376000920191909152509295949360208101935035915050600160201b81111561059457600080fd5b8201836020820111156105a657600080fd5b803590602001918460018302840111600160201b831117156105c757600080fd5b91908080601f016020809104026020016040519081016040528093929190818152602001838380828437600092019190915250929550508235935050506020810135906040013561202a565b6106396004803603602081101561062957600080fd5b50356001600160a01b03166122b1565b604080519115158252519081900360200190f35b6106796004803603604081101561066357600080fd5b506001600160a01b0381351690602001356122c3565b604080516001600160a01b039094168452602084019290925282820152519081900360600190f35b6106cd600480360360408110156106b757600080fd5b506001600160a01b038135169060200135612438565b6040805160208082528351818301528351919283929083019185019080838360005b838110156107075781810151838201526020016106ef565b50505050905090810190601f1680156107345780820380516001836020036101000a031916815260200191505b509250505060405180910390f35b61038f61257d565b6106cd6004803603604081101561076057600080fd5b506001600160a01b03813516906020013561258c565b61038f6004803603604081101561078c57600080fd5b506001600160a01b0381351690602001356125de565b610260600480360360208110156107b857600080fd5b50356001600160a01b0316612630565b6101fa600480360360608110156107de57600080fd5b506001600160a01b0381358116916020810135916040909101351661266b565b6101fa612d56565b6102606004803603604081101561081c57600080fd5b506001600160a01b038135169060200135612da9565b61038f6004803603602081101561084857600080fd5b50356001600160a01b0316612eca565b6101fa6004803603606081101561086e57600080fd5b6001600160a01b0382351691602081013591810190606081016040820135600160201b81111561089d57600080fd5b8201836020820111156108af57600080fd5b803590602001918460018302840111600160201b831117156108d057600080fd5b91908080601f016020809104026020016040519081016040528093929190818152602001838380828437600092019190915250929550612ed5945050505050565b6101fa6004803603606081101561092757600080fd5b506001600160a01b03813581169160208101359160409091013516613152565b6101fa6004803603602081101561095d57600080fd5b50356001600160a01b031661325f565b6101fa600480360360e081101561098357600080fd5b6001600160a01b038235169190810190604081016020820135600160201b8111156109ad57600080fd5b8201836020820111156109bf57600080fd5b803590602001918460018302840111600160201b831117156109e057600080fd5b91908080601f0160208091040260200160405190810160405280939291908181526020018383808284376000920191909152509295949360208101935035915050600160201b811115610a3257600080fd5b820183602082011115610a4457600080fd5b803590602001918460018302840111600160201b83111715610a6557600080fd5b91908080601f0160208091040260200160405190810160405280939291908181526020018383808284376000920191909152509295505060ff8335169350505060208101359060408101359060600135613360565b61038f60048036036020811015610ad057600080fd5b50356001600160a01b0316613681565b610b0660048036036020811015610af657600080fd5b50356001600160a01b03166136bc565b60405180826001811115610b1657fe5b815260200191505060405180910390f35b600054604080516318860ac560e21b81526007600482015290516001600160a01b03909216916362182b1491602480820192602092909190829003018186803b158015610b7357600080fd5b505afa158015610b87573d6000803e3d6000fd5b505050506040513d6020811015610b9d57600080fd5b50516001600160a01b03163314610be1576040805162461bcd60e51b815260206004820152600360248201526234303360e81b604482015290519081900360640190fd5b806001600160a01b03166305fff5926040518163ffffffff1660e01b8152600401600060405180830381600087803b158015610c1c57600080fd5b505af1158015610c30573d6000803e3d6000fd5b5050505050565b6000826001600160a01b0316635970ea8883336040518363ffffffff1660e01b815260040180838152602001826001600160a01b031681526020019250505060206040518083038186803b158015610c8e57600080fd5b505afa158015610ca2573d6000803e3d6000fd5b505050506040513d6020811015610cb857600080fd5b50519392505050565b6060816001600160a01b031663ced661bd6040518163ffffffff1660e01b815260040160006040518083038186803b158015610cfc57600080fd5b505afa158015610d10573d6000803e3d6000fd5b505050506040513d6000823e601f3d908101601f191682016040526020811015610d3957600080fd5b8101908080516040519392919084600160201b821115610d5857600080fd5b908301906020820185811115610d6d57600080fd5b82518660208202830111600160201b82111715610d8957600080fd5b82525081516020918201928201910280838360005b83811015610db6578181015183820152602001610d9e565b505050509050016040525050509050919050565b6000839050806001600160a01b031663ed09b0a2846040518263ffffffff1660e01b81526004018082815260200191505060206040518083038186803b158015610e1357600080fd5b505afa158015610e27573d6000803e3d6000fd5b505050506040513d6020811015610e3d57600080fd5b50516001600160a01b031633148015610ec35750806001600160a01b031663098f076e846040518263ffffffff1660e01b81526004018082815260200191505060206040518083038186803b158015610e9557600080fd5b505afa158015610ea9573d6000803e3d6000fd5b505050506040513d6020811015610ebf57600080fd5b5051155b8015610faf5750806001600160a01b03166343d8a153846040518263ffffffff1660e01b81526004018082815260200191505060206040518083038186803b158015610f0e57600080fd5b505afa158015610f22573d6000803e3d6000fd5b505050506040513d6020811015610f3857600080fd5b50516040805163634df10d60e01b81526004810186905290516001600160a01b0384169163634df10d916024808301926020929190829003018186803b158015610f8157600080fd5b505afa158015610f95573d6000803e3d6000fd5b505050506040513d6020811015610fab57600080fd5b5051145b610fe6576040805162461bcd60e51b815260206004820152600360248201526234303360e81b604482015290519081900360640190fd5b6040805163b3789e0960e01b815260048101858152602482019283528451604483015284516001600160a01b0385169363b3789e09938893889390929160640190602085019080838360005b8381101561104a578181015183820152602001611032565b50505050905090810190601f1680156110775780820380516001836020036101000a031916815260200191505b509350505050600060405180830381600087803b15801561109757600080fd5b505af11580156110ab573d6000803e3d6000fd5b5050505050505050565b6000816001600160a01b031663a6c3e6b96040518163ffffffff1660e01b815260040160206040518083038186803b1580156110f057600080fd5b505afa158015611104573d6000803e3d6000fd5b505050506040513d602081101561111a57600080fd5b505192915050565b82828261112e836136f7565b50826001600160a01b031663946dfcfe6040518163ffffffff1660e01b815260040160206040518083038186803b15801561116857600080fd5b505afa15801561117c573d6000803e3d6000fd5b505050506040513d602081101561119257600080fd5b5051821061119f57600080fd5b6000836001600160a01b031663634df10d846040518263ffffffff1660e01b81526004018082815260200191505060206040518083038186803b1580156111e557600080fd5b505afa1580156111f9573d6000803e3d6000fd5b505050506040513d602081101561120f57600080fd5b505111801561128b5750826001600160a01b031663098f076e836040518263ffffffff1660e01b81526004018082815260200191505060206040518083038186803b15801561125d57600080fd5b505afa158015611271573d6000803e3d6000fd5b505050506040513d602081101561128757600080fd5b5051155b6112c6576040805162461bcd60e51b815260206004820152600760248201526670656e64696e6760c81b604482015290519081900360640190fd5b6112d18383836140e5565b61130d576040805162461bcd60e51b815260206004820152600860248201526730b8383937bb32b960c11b604482015290519081900360640190fd5b806001600160a01b031663a6c3e6b96040518163ffffffff1660e01b815260040160206040518083038186803b15801561134657600080fd5b505afa15801561135a573d6000803e3d6000fd5b505050506040513d602081101561137057600080fd5b50516001600160a01b031633146113b7576040805162461bcd60e51b815260206004820152600660248201526530baba3437b960d11b604482015290519081900360640190fd5b6040805163c1cbd6a160e01b8152600481018790526001600160a01b0386811660248301529151889283169163c1cbd6a191604480830192600092919082900301818387803b15801561140957600080fd5b505af115801561141d573d6000803e3d6000fd5b50505050806001600160a01b031663634df10d876040518263ffffffff1660e01b81526004018082815260200191505060206040518083038186803b15801561146557600080fd5b505afa158015611479573d6000803e3d6000fd5b505050506040513d602081101561148f57600080fd5b50516117d5576000816001600160a01b031663ed09b0a2886040518263ffffffff1660e01b81526004018082815260200191505060206040518083038186803b1580156114db57600080fd5b505afa1580156114ef573d6000803e3d6000fd5b505050506040513d602081101561150557600080fd5b50516040805163a6c3e6b960e01b815290519192506000916001600160a01b0385169163a6c3e6b9916004808301926020929190829003018186803b15801561154d57600080fd5b505afa158015611561573d6000803e3d6000fd5b505050506040513d602081101561157757600080fd5b50516001600160a01b03838116911614905060005b811580156115fd5750836001600160a01b031663a3026cff6040518163ffffffff1660e01b815260040160206040518083038186803b1580156115ce57600080fd5b505afa1580156115e2573d6000803e3d6000fd5b505050506040513d60208110156115f857600080fd5b505181105b1561169257836001600160a01b03166363707070826040518263ffffffff1660e01b81526004018082815260200191505060206040518083038186803b15801561164657600080fd5b505afa15801561165a573d6000803e3d6000fd5b505050506040513d602081101561167057600080fd5b50516001600160a01b038481169116141561168a57600191505b60010161158c565b816116ff57836001600160a01b031663a684d4f6846040518263ffffffff1660e01b815260040180826001600160a01b03168152602001915050600060405180830381600087803b1580156116e657600080fd5b505af11580156116fa573d6000803e3d6000fd5b505050505b88600114156117d157836001600160a01b03166360f96a8f6040518163ffffffff1660e01b815260040160206040518083038186803b15801561174157600080fd5b505afa158015611755573d6000803e3d6000fd5b505050506040513d602081101561176b57600080fd5b505160408051630f774c9d60e11b81526001600160a01b038d8116600483015291519190921691631eee993a91602480830192600092919082900301818387803b1580156117b857600080fd5b505af11580156117cc573d6000803e3d6000fd5b505050505b5050505b846001600160a01b031663e28a3c3788886040518363ffffffff1660e01b815260040180836001600160a01b0316815260200182815260200192505050600060405180830381600087803b15801561182c57600080fd5b505af1158015611840573d6000803e3d6000fd5b5050505050505050505050565b600080829050806001600160a01b03166336a52a186040518163ffffffff1660e01b815260040160206040518083038186803b158015610c8e57600080fd5b600080829050806001600160a01b031663f06e3e246040518163ffffffff1660e01b815260040160206040518083038186803b158015610c8e57600080fd5b6000859050806001600160a01b031663a6c3e6b96040518163ffffffff1660e01b815260040160206040518083038186803b15801561190957600080fd5b505afa15801561191d573d6000803e3d6000fd5b505050506040513d602081101561193357600080fd5b50516001600160a01b03163314611977576040805162461bcd60e51b815260206004820152600360248201526234303360e81b604482015290519081900360640190fd5b611980866136f7565b611cef57600061198e614210565b90506000801b816001600160a01b0316635fd4b08a886040518263ffffffff1660e01b815260040180826001600160a01b0316815260200191505060206040518083038186803b1580156119e157600080fd5b505afa1580156119f5573d6000803e3d6000fd5b505050506040513d6020811015611a0b57600080fd5b50511480611a90575082816001600160a01b0316635fd4b08a886040518263ffffffff1660e01b815260040180826001600160a01b0316815260200191505060206040518083038186803b158015611a6257600080fd5b505afa158015611a76573d6000803e3d6000fd5b505050506040513d6020811015611a8c57600080fd5b5051145b611aca576040805162461bcd60e51b815260206004808301919091526024820152636e616d6560e01b604482015290519081900360640190fd5b600080826001600160a01b031663857cdbb8896040518263ffffffff1660e01b815260040180826001600160a01b03168152602001915050604080518083038186803b158015611b1957600080fd5b505afa158015611b2d573d6000803e3d6000fd5b505050506040513d6040811015611b4357600080fd5b5080516020909101519092509050811580611b6757508682148015611b6757508581145b611b9e576040805162461bcd60e51b81526020600482015260036024820152626b657960e81b604482015290519081900360640190fd5b836001600160a01b03166312b22256896040518263ffffffff1660e01b815260040180826001600160a01b03168152602001915050600060405180830381600087803b158015611bed57600080fd5b505af1158015611c01573d6000803e3d6000fd5b50505050826001600160a01b0316633b51eea28989896040518463ffffffff1660e01b815260040180846001600160a01b031681526020018381526020018281526020019350505050600060405180830381600087803b158015611c6457600080fd5b505af1158015611c78573d6000803e3d6000fd5b50505050826001600160a01b031663b162a38289876040518363ffffffff1660e01b815260040180836001600160a01b0316815260200182815260200192505050600060405180830381600087803b158015611cd357600080fd5b505af1158015611ce7573d6000803e3d6000fd5b505050505050505b505050505050565b6000819050806001600160a01b031663a6c3e6b96040518163ffffffff1660e01b815260040160206040518083038186803b158015611d3557600080fd5b505afa158015611d49573d6000803e3d6000fd5b505050506040513d6020811015611d5f57600080fd5b50516001600160a01b03163314611da3576040805162461bcd60e51b815260206004820152600360248201526234303360e81b604482015290519081900360640190fd5b611dac8261428e565b60008054906101000a90046001600160a01b03166001600160a01b031663845606256040518163ffffffff1660e01b815260040160206040518083038186803b158015611df857600080fd5b505afa158015611e0c573d6000803e3d6000fd5b505050506040513d6020811015611e2257600080fd5b50516001600160a01b03838116911614611ea657611e3f82614450565b6001600160a01b03166312a39db2836040518263ffffffff1660e01b815260040180826001600160a01b03168152602001915050600060405180830381600087803b158015611e8d57600080fd5b505af1158015611ea1573d6000803e3d6000fd5b505050505b806001600160a01b03166383197ef06040518163ffffffff1660e01b8152600401600060405180830381600087803b158015611ee157600080fd5b505af1158015611cef573d6000803e3d6000fd5b6000849050806001600160a01b031663ed09b0a2856040518263ffffffff1660e01b81526004018082815260200191505060206040518083038186803b158015611f3e57600080fd5b505afa158015611f52573d6000803e3d6000fd5b505050506040513d6020811015611f6857600080fd5b50516001600160a01b03163314611fac576040805162461bcd60e51b815260206004820152600360248201526234303360e81b604482015290519081900360640190fd5b806001600160a01b031663569152ce8585856040518463ffffffff1660e01b815260040180848152602001836001600160a01b031681526020018281526020019350505050600060405180830381600087803b15801561200b57600080fd5b505af115801561201f573d6000803e3d6000fd5b505050505050505050565b856120358133614639565b61206c576040805162461bcd60e51b815260206004820152600360248201526234303360e81b604482015290519081900360640190fd5b612075876136f7565b5061207e614829565b6001600160a01b031663c8789cd6888888336040518563ffffffff1660e01b815260040180856001600160a01b031681526020018060200180602001846001600160a01b03168152602001838103835286818151815260200191508051906020019080838360005b838110156120fe5781810151838201526020016120e6565b50505050905090810190601f16801561212b5780820380516001836020036101000a031916815260200191505b50838103825285518152855160209182019187019080838360005b8381101561215e578181015183820152602001612146565b50505050905090810190601f16801561218b5780820380516001836020036101000a031916815260200191505b509650505050505050600060405180830381600087803b1580156121ae57600080fd5b505af11580156121c2573d6000803e3d6000fd5b5050505060006121d0614210565b60408051631da8f75160e11b8152336004820152602481018890526044810187905290519192506001600160a01b03831691633b51eea29160648082019260009290919082900301818387803b15801561222957600080fd5b505af115801561223d573d6000803e3d6000fd5b5050604080516358b151c160e11b81523360048201526024810187905290516001600160a01b038516935063b162a3829250604480830192600092919082900301818387803b15801561228f57600080fd5b505af11580156122a3573d6000803e3d6000fd5b505050505050505050505050565b60006122bd8233614639565b92915050565b600080600080859050806001600160a01b0316633d62e717866040518263ffffffff1660e01b81526004018082815260200191505060206040518083038186803b15801561231057600080fd5b505afa158015612324573d6000803e3d6000fd5b505050506040513d602081101561233a57600080fd5b50516040805163da30f22960e01b81526004810188905290519195506001600160a01b0383169163da30f22991602480820192602092909190829003018186803b15801561238757600080fd5b505afa15801561239b573d6000803e3d6000fd5b505050506040513d60208110156123b157600080fd5b50516040805163d73a581360e01b81526004810188905290519194506001600160a01b0383169163d73a581391602480820192602092909190829003018186803b1580156123fe57600080fd5b505afa158015612412573d6000803e3d6000fd5b505050506040513d602081101561242857600080fd5b5051939692955092935090915050565b60606124448383614876565b9150826001600160a01b031663929a79b1836040518263ffffffff1660e01b81526004018082815260200191505060006040518083038186803b15801561248a57600080fd5b505afa15801561249e573d6000803e3d6000fd5b505050506040513d6000823e601f3d908101601f1916820160405260208110156124c757600080fd5b8101908080516040519392919084600160201b8211156124e657600080fd5b9083019060208201858111156124fb57600080fd5b8251600160201b81118282018810171561251457600080fd5b82525081516020918201929091019080838360005b83811015612541578181015183820152602001612529565b50505050905090810190601f16801561256e5780820380516001836020036101000a031916815260200191505b50604052505050905092915050565b6000546001600160a01b031690565b60606125988383614876565b9150826001600160a01b0316630b7ad54c836040518263ffffffff1660e01b81526004018082815260200191505060006040518083038186803b15801561248a57600080fd5b60006125ea8383614876565b9150826001600160a01b031663ed09b0a2836040518263ffffffff1660e01b81526004018082815260200191505060206040518083038186803b158015610c8e57600080fd5b6060816001600160a01b0316634892e8e86040518163ffffffff1660e01b815260040160006040518083038186803b158015610cfc57600080fd5b828282612677836136f7565b50826001600160a01b031663946dfcfe6040518163ffffffff1660e01b815260040160206040518083038186803b1580156126b157600080fd5b505afa1580156126c5573d6000803e3d6000fd5b505050506040513d60208110156126db57600080fd5b505182106126e857600080fd5b6000836001600160a01b031663634df10d846040518263ffffffff1660e01b81526004018082815260200191505060206040518083038186803b15801561272e57600080fd5b505afa158015612742573d6000803e3d6000fd5b505050506040513d602081101561275857600080fd5b50511180156127d45750826001600160a01b031663098f076e836040518263ffffffff1660e01b81526004018082815260200191505060206040518083038186803b1580156127a657600080fd5b505afa1580156127ba573d6000803e3d6000fd5b505050506040513d60208110156127d057600080fd5b5051155b61280f576040805162461bcd60e51b815260206004820152600760248201526670656e64696e6760c81b604482015290519081900360640190fd5b61281a8383836140e5565b612856576040805162461bcd60e51b815260206004820152600860248201526730b8383937bb32b960c11b604482015290519081900360640190fd5b806001600160a01b031663a6c3e6b96040518163ffffffff1660e01b815260040160206040518083038186803b15801561288f57600080fd5b505afa1580156128a3573d6000803e3d6000fd5b505050506040513d60208110156128b957600080fd5b50516001600160a01b03163314612900576040805162461bcd60e51b815260206004820152600660248201526530baba3437b960d11b604482015290519081900360640190fd5b8560005b816001600160a01b031663634df10d886040518263ffffffff1660e01b81526004018082815260200191505060206040518083038186803b15801561294857600080fd5b505afa15801561295c573d6000803e3d6000fd5b505050506040513d602081101561297257600080fd5b5051811015612a6957816001600160a01b0316634cd1c5da88836040518363ffffffff1660e01b8152600401808381526020018281526020019250505060206040518083038186803b1580156129c757600080fd5b505afa1580156129db573d6000803e3d6000fd5b505050506040513d60208110156129f157600080fd5b50516040805163e28a3c3760e01b81526001600160a01b038b81166004830152602482018b90529151919092169163e28a3c3791604480830192600092919082900301818387803b158015612a4557600080fd5b505af1158015612a59573d6000803e3d6000fd5b5050600190920191506129049050565b5060005b816001600160a01b031663634df10d886040518263ffffffff1660e01b81526004018082815260200191505060206040518083038186803b158015612ab157600080fd5b505afa158015612ac5573d6000803e3d6000fd5b505050506040513d6020811015612adb57600080fd5b5051811015612b5f57816001600160a01b031663c1cbd6a188886040518363ffffffff1660e01b815260040180838152602001826001600160a01b0316815260200192505050600060405180830381600087803b158015612b3b57600080fd5b505af1158015612b4f573d6000803e3d6000fd5b505060019092019150612a6d9050565b508560011415612bc157806001600160a01b03166383197ef06040518163ffffffff1660e01b8152600401600060405180830381600087803b158015612ba457600080fd5b505af1158015612bb8573d6000803e3d6000fd5b50505050612d4d565b60408051632521cd8b60e21b8152600481018890526001602482015290516001600160a01b03831691639487362c91604480830192600092919082900301818387803b158015612c1057600080fd5b505af1158015612c24573d6000803e3d6000fd5b50506040805163ec820be360e01b8152600481018a905260006024820181905291516001600160a01b038616945063ec820be393506044808301939282900301818387803b158015612c7557600080fd5b505af1158015612c89573d6000803e3d6000fd5b505060408051635102bc9d60e01b8152600481018a90526024810182905260006044820181905291516001600160a01b0386169450635102bc9d93506084808301939282900301818387803b158015612ce157600080fd5b505af1158015612cf5573d6000803e3d6000fd5b50506040805163b3789e0960e01b8152600481018a90526024810182905260006044820181905291516001600160a01b038616945063b3789e0993506084808301939282900301818387803b15801561182c57600080fd5b50505050505050565b6000546001600160a01b03163314612d9b576040805162461bcd60e51b815260206004820152600360248201526234303360e81b604482015290519081900360640190fd5b6000546001600160a01b0316ff5b6060612db58383614876565b9150826001600160a01b0316633c01f050836040518263ffffffff1660e01b81526004018082815260200191505060006040518083038186803b158015612dfb57600080fd5b505afa158015612e0f573d6000803e3d6000fd5b505050506040513d6000823e601f3d908101601f191682016040526020811015612e3857600080fd5b8101908080516040519392919084600160201b821115612e5757600080fd5b908301906020820185811115612e6c57600080fd5b82518660208202830111600160201b82111715612e8857600080fd5b82525081516020918201928201910280838360005b83811015612eb5578181015183820152602001612e9d565b50505050905001604052505050905092915050565b60006122bd82614450565b6000839050806001600160a01b031663ed09b0a2846040518263ffffffff1660e01b81526004018082815260200191505060206040518083038186803b158015612f1e57600080fd5b505afa158015612f32573d6000803e3d6000fd5b505050506040513d6020811015612f4857600080fd5b50516001600160a01b031633148015612fce5750806001600160a01b031663098f076e846040518263ffffffff1660e01b81526004018082815260200191505060206040518083038186803b158015612fa057600080fd5b505afa158015612fb4573d6000803e3d6000fd5b505050506040513d6020811015612fca57600080fd5b5051155b80156130ba5750806001600160a01b03166343d8a153846040518263ffffffff1660e01b81526004018082815260200191505060206040518083038186803b15801561301957600080fd5b505afa15801561302d573d6000803e3d6000fd5b505050506040513d602081101561304357600080fd5b50516040805163634df10d60e01b81526004810186905290516001600160a01b0384169163634df10d916024808301926020929190829003018186803b15801561308c57600080fd5b505afa1580156130a0573d6000803e3d6000fd5b505050506040513d60208110156130b657600080fd5b5051145b6130f1576040805162461bcd60e51b815260206004820152600360248201526234303360e81b604482015290519081900360640190fd5b60408051635102bc9d60e01b815260048101858152602482019283528451604483015284516001600160a01b03851693635102bc9d93889388939092916064019060208501908083836000831561104a578181015183820152602001611032565b6000839050806001600160a01b031663ed09b0a2846040518263ffffffff1660e01b81526004018082815260200191505060206040518083038186803b15801561319b57600080fd5b505afa1580156131af573d6000803e3d6000fd5b505050506040513d60208110156131c557600080fd5b50516001600160a01b03163314613209576040805162461bcd60e51b815260206004820152600360248201526234303360e81b604482015290519081900360640190fd5b60408051632b48a96760e11b8152600481018590526001600160a01b03848116602483015260006044830181905292519084169263569152ce926064808201939182900301818387803b15801561109757600080fd5b600054604080516318860ac560e21b81526007600482015290516001600160a01b03909216916362182b1491602480820192602092909190829003018186803b1580156132ab57600080fd5b505afa1580156132bf573d6000803e3d6000fd5b505050506040513d60208110156132d557600080fd5b50516001600160a01b03163314613319576040805162461bcd60e51b815260206004820152600360248201526234303360e81b604482015290519081900360640190fd5b806001600160a01b031663c9d9520c60006040518263ffffffff1660e01b815260040180828152602001915050600060405180830381600087803b158015610c1c57600080fd5b8661336b8133614639565b6133a2576040805162461bcd60e51b815260206004820152600360248201526234303360e81b604482015290519081900360640190fd5b6133ab886136f7565b50876001600160a01b031663634df10d60016040518263ffffffff1660e01b81526004018082815260200191505060206040518083038186803b1580156133f157600080fd5b505afa158015613405573d6000803e3d6000fd5b505050506040513d602081101561341b57600080fd5b505115613455576040805162461bcd60e51b815260206004820152600360248201526234303360e81b604482015290519081900360640190fd5b61345d614829565b6001600160a01b031663c8efc0e389898989336040518663ffffffff1660e01b815260040180866001600160a01b0316815260200180602001806020018560018111156134a657fe5b8152602001846001600160a01b03168152602001838103835287818151815260200191508051906020019080838360005b838110156134ef5781810151838201526020016134d7565b50505050905090810190601f16801561351c5780820380516001836020036101000a031916815260200191505b50838103825286518152865160209182019188019080838360005b8381101561354f578181015183820152602001613537565b50505050905090810190601f16801561357c5780820380516001836020036101000a031916815260200191505b50975050505050505050600060405180830381600087803b1580156135a057600080fd5b505af11580156135b4573d6000803e3d6000fd5b5050505060006135c2614210565b60408051631da8f75160e11b8152336004820152602481018890526044810187905290519192506001600160a01b03831691633b51eea29160648082019260009290919082900301818387803b15801561361b57600080fd5b505af115801561362f573d6000803e3d6000fd5b5050604080516358b151c160e11b81523360048201526024810187905290516001600160a01b038516935063b162a3829250604480830192600092919082900301818387803b158015611cd357600080fd5b6000816001600160a01b03166360f96a8f6040518163ffffffff1660e01b815260040160206040518083038186803b1580156110f057600080fd5b6000816001600160a01b0316636a58d7ef6040518163ffffffff1660e01b815260040160206040518083038186803b1580156110f057600080fd5b600080826001600160a01b031663f06e3e246040518163ffffffff1660e01b815260040160206040518083038186803b15801561373357600080fd5b505afa158015613747573d6000803e3d6000fd5b505050506040513d602081101561375d57600080fd5b5051905060005b8215801561377157508181105b156137ff5742846001600160a01b031663d73a5813836040518263ffffffff1660e01b81526004018082815260200191505060206040518083038186803b1580156137bb57600080fd5b505afa1580156137cf573d6000803e3d6000fd5b505050506040513d60208110156137e557600080fd5b505162278d000110156137f757600192505b600101613764565b8215801561387157506005846001600160a01b031663f4cdadde6040518163ffffffff1660e01b815260040160206040518083038186803b15801561384357600080fd5b505afa158015613857573d6000803e3d6000fd5b505050506040513d602081101561386d57600080fd5b5051115b1561387b57600192505b82156140de576000806001600160a01b0316856001600160a01b03166336a52a186040518163ffffffff1660e01b815260040160206040518083038186803b1580156138c657600080fd5b505afa1580156138da573d6000803e3d6000fd5b505050506040513d60208110156138f057600080fd5b50516001600160a01b03161461396c57846001600160a01b03166336a52a186040518163ffffffff1660e01b815260040160206040518083038186803b15801561393957600080fd5b505afa15801561394d573d6000803e3d6000fd5b505050506040513d602081101561396357600080fd5b50519050613a4d565b6000856001600160a01b031663a3026cff6040518163ffffffff1660e01b815260040160206040518083038186803b1580156139a757600080fd5b505afa1580156139bb573d6000803e3d6000fd5b505050506040513d60208110156139d157600080fd5b50511115613a4d57846001600160a01b0316636370707060006040518263ffffffff1660e01b81526004018082815260200191505060206040518083038186803b158015613a1e57600080fd5b505afa158015613a32573d6000803e3d6000fd5b505050506040513d6020811015613a4857600080fd5b505190505b600091505b6001600160a01b038116158015613acc5750846001600160a01b0316635e6fc8b46040518163ffffffff1660e01b815260040160206040518083038186803b158015613a9d57600080fd5b505afa158015613ab1573d6000803e3d6000fd5b505050506040513d6020811015613ac757600080fd5b505182105b15613d2f576000856001600160a01b0316637002ce42846040518263ffffffff1660e01b81526004018082815260200191505060206040518083038186803b158015613b1757600080fd5b505afa158015613b2b573d6000803e3d6000fd5b505050506040513d6020811015613b4157600080fd5b50516040805163a6c3e6b960e01b815290519192506001600160a01b0388169163a6c3e6b991600480820192602092909190829003018186803b158015613b8757600080fd5b505afa158015613b9b573d6000803e3d6000fd5b505050506040513d6020811015613bb157600080fd5b50516001600160a01b03828116911614801590613c3c5750806001600160a01b031663098f076e60016040518263ffffffff1660e01b81526004018082815260200191505060206040518083038186803b158015613c0e57600080fd5b505afa158015613c22573d6000803e3d6000fd5b505050506040513d6020811015613c3857600080fd5b5051155b8015613cb65750806001600160a01b031663634df10d60016040518263ffffffff1660e01b81526004018082815260200191505060206040518083038186803b158015613c8857600080fd5b505afa158015613c9c573d6000803e3d6000fd5b505050506040513d6020811015613cb257600080fd5b5051155b15613d2357806001600160a01b031663a6c3e6b96040518163ffffffff1660e01b815260040160206040518083038186803b158015613cf457600080fd5b505afa158015613d08573d6000803e3d6000fd5b505050506040513d6020811015613d1e57600080fd5b505191505b50600190910190613a52565b6000613d3a86614450565b90505b6001600160a01b038216158015613d6257506000546001600160a01b03828116911614155b15613ec257856001600160a01b031663a6c3e6b96040518163ffffffff1660e01b815260040160206040518083038186803b158015613da057600080fd5b505afa158015613db4573d6000803e3d6000fd5b505050506040513d6020811015613dca57600080fd5b50516040805163a6c3e6b960e01b815290516001600160a01b039283169284169163a6c3e6b9916004808301926020929190829003018186803b158015613e1057600080fd5b505afa158015613e24573d6000803e3d6000fd5b505050506040513d6020811015613e3a57600080fd5b50516001600160a01b031614613eb257806001600160a01b031663a6c3e6b96040518163ffffffff1660e01b815260040160206040518083038186803b158015613e8357600080fd5b505afa158015613e97573d6000803e3d6000fd5b505050506040513d6020811015613ead57600080fd5b505191505b613ebb81614450565b9050613d3d565b6001600160a01b038216156140db57856001600160a01b031663a05f41a4836040518263ffffffff1660e01b815260040180826001600160a01b03168152602001915050600060405180830381600087803b158015613f2057600080fd5b505af1158015613f34573d6000803e3d6000fd5b50505050856001600160a01b0316632484eb6d836040518263ffffffff1660e01b815260040180826001600160a01b03168152602001915050600060405180830381600087803b158015613f8757600080fd5b505af1158015613f9b573d6000803e3d6000fd5b505060408051630959112b60e11b815260006004820181905291516001600160a01b038b1694506312b2225693506024808301939282900301818387803b158015613fe557600080fd5b505af1158015613ff9573d6000803e3d6000fd5b5050505060005b8481101561407a57866001600160a01b0316639d2bf8da82426040518363ffffffff1660e01b81526004018083815260200182815260200192505050600060405180830381600087803b15801561405657600080fd5b505af115801561406a573d6000803e3d6000fd5b5050600190920191506140009050565b50856001600160a01b031663c9d9520c60006040518263ffffffff1660e01b815260040180828152602001915050600060405180830381600087803b1580156140c257600080fd5b505af11580156140d6573d6000803e3d6000fd5b505050505b50505b5050919050565b6000805b811580156141655750846001600160a01b031663634df10d856040518263ffffffff1660e01b81526004018082815260200191505060206040518083038186803b15801561413657600080fd5b505afa15801561414a573d6000803e3d6000fd5b505050506040513d602081101561416057600080fd5b505181105b1561420857826001600160a01b0316856001600160a01b0316634cd1c5da86846040518363ffffffff1660e01b8152600401808381526020018281526020019250505060206040518083038186803b1580156141c057600080fd5b505afa1580156141d4573d6000803e3d6000fd5b505050506040513d60208110156141ea57600080fd5b50516001600160a01b0316141561420057600191505b6001016140e9565b509392505050565b60008054604080516318860ac560e21b8152600b600482015290516001600160a01b03909216916362182b1491602480820192602092909190829003018186803b15801561425d57600080fd5b505afa158015614271573d6000803e3d6000fd5b505050506040513d602081101561428757600080fd5b5051919050565b60005b816001600160a01b0316635e6fc8b46040518163ffffffff1660e01b815260040160206040518083038186803b1580156142ca57600080fd5b505afa1580156142de573d6000803e3d6000fd5b505050506040513d60208110156142f457600080fd5b505181101561444c57614375826001600160a01b0316637002ce42836040518263ffffffff1660e01b81526004018082815260200191505060206040518083038186803b15801561434457600080fd5b505afa158015614358573d6000803e3d6000fd5b505050506040513d602081101561436e57600080fd5b505161428e565b816001600160a01b0316637002ce42826040518263ffffffff1660e01b81526004018082815260200191505060206040518083038186803b1580156143b957600080fd5b505afa1580156143cd573d6000803e3d6000fd5b505050506040513d60208110156143e357600080fd5b50516040805163083197ef60e41b815290516001600160a01b03909216916383197ef09160048082019260009290919082900301818387803b15801561442857600080fd5b505af115801561443c573d6000803e3d6000fd5b5050600190920191506142919050565b5050565b6000816001600160a01b03166360f96a8f6040518163ffffffff1660e01b815260040160206040518083038186803b15801561448b57600080fd5b505afa15801561449f573d6000803e3d6000fd5b505050506040513d60208110156144b557600080fd5b50516000549091506001600160a01b03808316911614156145d25760005460408051638456062560e01b815290516001600160a01b038086169316916384560625916004808301926020929190829003018186803b15801561451657600080fd5b505afa15801561452a573d6000803e3d6000fd5b505050506040513d602081101561454057600080fd5b50516001600160a01b0316146145cd5760005460408051638456062560e01b815290516145ca926001600160a01b0316916384560625916004808301926020929190829003018186803b15801561459657600080fd5b505afa1580156145aa573d6000803e3d6000fd5b505050506040513d60208110156145c057600080fd5b5051836001614904565b90505b614634565b60006145df828483614904565b6001600160a01b031614156146345760005460408051638456062560e01b815290516122bd926001600160a01b0316916384560625916004808301926020929190829003018186803b15801561459657600080fd5b919050565b6000826001600160a01b031663098f076e60016040518263ffffffff1660e01b81526004018082815260200191505060206040518083038186803b15801561468057600080fd5b505afa158015614694573d6000803e3d6000fd5b505050506040513d60208110156146aa57600080fd5b505115801561481b57506000836001600160a01b0316636a58d7ef6040518163ffffffff1660e01b815260040160206040518083038186803b1580156146ef57600080fd5b505afa158015614703573d6000803e3d6000fd5b505050506040513d602081101561471957600080fd5b5051600181111561472657fe5b1480156147a15750826001600160a01b031663634df10d60016040518263ffffffff1660e01b81526004018082815260200191505060206040518083038186803b15801561477357600080fd5b505afa158015614787573d6000803e3d6000fd5b505050506040513d602081101561479d57600080fd5b5051155b8061481b5750826001600160a01b031663a6c3e6b96040518163ffffffff1660e01b815260040160206040518083038186803b1580156147e057600080fd5b505afa1580156147f4573d6000803e3d6000fd5b505050506040513d602081101561480a57600080fd5b50516001600160a01b038381169116145b156122bd5750600192915050565b60008054604080516318860ac560e21b81526005600482015290516001600160a01b03909216916362182b1491602480820192602092909190829003018186803b15801561425d57600080fd5b6000826001600160a01b031663946dfcfe6040518163ffffffff1660e01b815260040160206040518083038186803b1580156148b157600080fd5b505afa1580156148c5573d6000803e3d6000fd5b505050506040513d60208110156148db57600080fd5b5051821015806148e9575081155b156148fe576148f783614ab2565b90506122bd565b50919050565b600080846001600160a01b0316635e6fc8b46040518163ffffffff1660e01b815260040160206040518083038186803b15801561494057600080fd5b505afa158015614954573d6000803e3d6000fd5b505050506040513d602081101561496a57600080fd5b5051905060005b6001600160a01b03831615801561498757508181105b15614aa957846001600160a01b0316866001600160a01b0316637002ce42836040518263ffffffff1660e01b81526004018082815260200191505060206040518083038186803b1580156149da57600080fd5b505afa1580156149ee573d6000803e3d6000fd5b505050506040513d6020811015614a0457600080fd5b50516001600160a01b03161415614a1d57859250614aa1565b8315614aa157614a9e866001600160a01b0316637002ce42836040518263ffffffff1660e01b81526004018082815260200191505060206040518083038186803b158015614a6a57600080fd5b505afa158015614a7e573d6000803e3d6000fd5b505050506040513d6020811015614a9457600080fd5b5051866001614904565b92505b600101614971565b50509392505050565b60006001826001600160a01b031663946dfcfe6040518163ffffffff1660e01b815260040160206040518083038186803b158015614aef57600080fd5b505afa158015614b03573d6000803e3d6000fd5b505050506040513d6020811015614b1957600080fd5b50510390505b600081118015614c145750816001600160a01b031663098f076e826040518263ffffffff1660e01b81526004018082815260200191505060206040518083038186803b158015614b6e57600080fd5b505afa158015614b82573d6000803e3d6000fd5b505050506040513d6020811015614b9857600080fd5b505180614c1457506000826001600160a01b031663634df10d836040518263ffffffff1660e01b81526004018082815260200191505060206040518083038186803b158015614be657600080fd5b505afa158015614bfa573d6000803e3d6000fd5b505050506040513d6020811015614c1057600080fd5b5051115b156146345760001901614b1f56fea2646970667358221220ffdc0bada2ea31844f6d3da8564f460f43a336be86c879096da093012561fa4464736f6c63430007050033",
  "immutableReferences": {},
  "source": "// SPDX-License-Identifier: GPL-3.0\r\npragma solidity ^0.7.5;\r\n\r\nimport './Alexandria.sol';\r\nimport './Eniko.sol';\r\nimport './Consequence.sol';\r\nimport './ConsequenceDeployer.sol';\r\nimport './Citizens.sol';\r\n\r\ncontract ConsequenceFunctions is EnikoApp {\r\n    \r\n    using Alexandria for Alexandria.ConsequenceType;\r\n    using Alexandria for Alexandria.ConsequenceVersion;\r\n\r\n    // Constructor\r\n    constructor(address payable eniko_) {\r\n        eniko = eniko_;\r\n    }\r\n\r\n    function getEniko() external view returns(address payable eniko_) {\r\n        eniko_ = eniko;\r\n    }\r\n    \r\n    // Modifiers to control access\r\n\r\n    // Check access to the consequence, irrespective of the version\r\n    modifier checkConsequenceAccess(Consequence consequence_) {\r\n        require(hasAccess(consequence_, msg.sender), \"403\");\r\n        _;\r\n    }\r\n\r\n    // Check conditions and then process an approval\r\n    modifier consequenceApproval(Consequence consequence_, uint version_, address onBehalf_) {\r\n        // Check if the author needs to be changed (this is the author of the consequence being approved, not the one doing the approving; it would be unnecessarily pedantic to prevent the approver from doing the approving)\r\n        checkAuthorOverdue(consequence_);\r\n        // The version must exist\r\n        require(version_ < consequence_.getVersionCount());\r\n        // The consequence must be still pending approval\r\n        require(consequence_.getPendingApproverCount(version_) > 0 && !consequence_.isRejected(version_), \"pending\");\r\n        // The consequence on behalf of which the approval is bing given must be an approver of the consequence to be approved\r\n        require(checkPendingApprover(consequence_, version_, onBehalf_), \"approver\");\r\n        // User must be the author of the consequecen they are approving on behalf of\r\n        require(msg.sender == Consequence(onBehalf_).author(), \"author\");\r\n        // Process specific tasks - reject or approve\r\n        _;\r\n    }\r\n\r\n    // Check if sender is the BallotFunctions contract\r\n    modifier ballotFunctionsOnly {\r\n        require(msg.sender == Eniko(eniko).getAppAddress(7), \"403\");\r\n        _;\r\n    }\r\n\r\n\r\n    // External Functions\r\n\r\n    // Getters\r\n    \r\n    function getType(address consequence_) external view returns(Alexandria.ConsequenceType type_) {\r\n        type_ = Consequence(consequence_).consequenceType();\r\n    }\r\n     \r\n    function getAuthor(address consequence_) external view returns(address author_) {  \r\n        author_ = Consequence(consequence_).author();\r\n    }\r\n\r\n    function getCoAuthors(address consequence_) external view returns(address[] memory coauthors_) {\r\n        coauthors_ = Consequence(consequence_).getCoAuthors();\r\n    }\r\n\r\n    function getChildren(address consequence_) external view returns(address[] memory children_) {\r\n        children_ = Consequence(consequence_).getChildren();\r\n    }\r\n\r\n    function getParent(address consequence_) external view returns(address parent_) {\r\n        parent_ = getParentSafe(consequence_);\r\n    }\r\n\r\n    function getProvisionalParent(address consequence_) external view returns(address parent_) {\r\n        parent_ = Consequence(consequence_).parent();\r\n    }\r\n\r\n    function checkAccess(address consequence_) external view returns(bool access_) {\r\n        access_ = hasAccess(Consequence(consequence_), msg.sender);\r\n    }\r\n\r\n    // Users should say which version they want to retrieve\r\n    function getTitle(address consequence_, uint version_) external view returns(string memory title_) {\r\n        version_ = correctVersionNumber(Consequence(consequence_), version_);\r\n        title_ = Consequence(consequence_).getTitle(version_);\r\n    }\r\n\r\n    // Users should say which version they want to retrieve\r\n    function getContent(address consequence_, uint version_) external view returns(string memory content_) {\r\n        version_ = correctVersionNumber(Consequence(consequence_), version_);\r\n        content_ = Consequence(consequence_).getContent(version_);\r\n    }\r\n\r\n    // Users should say which version they want to retrieve\r\n    function getVersionAuthor(address consequence_, uint version_) external view returns(address author_) {\r\n        version_ = correctVersionNumber(Consequence(consequence_), version_);\r\n        author_ = Consequence(consequence_).getVersionAuthor(version_);\r\n    }\r\n\r\n    function getPendingApprovers(address consequence_, uint version_) external view returns(address[] memory approvers_) {\r\n        version_ = correctVersionNumber(Consequence(consequence_), version_);\r\n        approvers_ = Consequence(consequence_).getPendingApprovers(version_);\r\n    }\r\n    \r\n    function getDecryptionKey(address consequence_, uint version_) external view returns (bytes32 key_) {\r\n        key_ = Consequence(consequence_).getDecryptionKey(version_, msg.sender);\r\n    }\r\n\r\n    function getInheritor(address consequence_) external view returns(address inheritor_) {\r\n        Consequence consequence = Consequence(consequence_);\r\n        inheritor_ = consequence.inheritor();\r\n    }\r\n    \r\n    function getPendingApprovalsCount(address consequence_) external view returns(uint count_) {\r\n        Consequence consequence = Consequence(consequence_);\r\n        count_ = consequence.getPendingApprovalsCount();\r\n    }\r\n\r\n    function getPendingApproval(address consequence_, uint index_) external view returns(address approval_, uint version_, uint timestamp_) {\r\n        Consequence consequence = Consequence(consequence_);\r\n        approval_ = consequence.getPendingApprovalConsequence(index_);\r\n        version_ = consequence.getPendingApprovalVersion(index_);\r\n        timestamp_ = consequence.getPendingApprovalTimestamp(index_);\r\n    }\r\n\r\n    // Setters\r\n\r\n    function addDecryptionKey(address consequence_, uint version_, address address_, bytes32 encryptedKey_) external {\r\n        Consequence consequence = Consequence(consequence_);\r\n        require(msg.sender == consequence.getVersionAuthor(version_), \"403\");\r\n        consequence.setDecryptionKey(version_, address_, encryptedKey_);\r\n    }\r\n\r\n    function removeDecryptionKey(address consequence_, uint version_, address address_) external {\r\n        Consequence consequence = Consequence(consequence_);\r\n        require(msg.sender == consequence.getVersionAuthor(version_), \"403\");\r\n        consequence.setDecryptionKey(version_, address_, bytes32(0));\r\n    }\r\n\r\n    function addVersion(address consequence_, string memory title_, string memory content_, bytes32 pubKeyFirst_, bytes32 pubKeySecond_, bytes32 name_) external checkConsequenceAccess(Consequence(consequence_)) { \r\n        // Check if the author needs to be changed\r\n        checkAuthorOverdue(Consequence(consequence_));\r\n        getConsequenceDeployerApp().addVersion(consequence_, title_, content_, msg.sender);\r\n        Citizens citizens = getCitizensApp();\r\n        citizens.updatePublicKey(msg.sender, pubKeyFirst_, pubKeySecond_);\r\n        citizens.updateName(msg.sender, name_);\r\n    }\r\n\r\n    function addConsequence(address parent_, string memory title_, string memory content_, Alexandria.ConsequenceType consequenceType_, bytes32 pubKeyFirst_, bytes32 pubKeySecond_, bytes32 name_) external checkConsequenceAccess(Consequence(parent_)) {\r\n        // Check if the parent author needs to be changed\r\n        checkAuthorOverdue(Consequence(parent_));\r\n        require(Consequence(parent_).getPendingApproverCount(1) == 0, \"403\");\r\n        getConsequenceDeployerApp().addConsequence(parent_, title_, content_, consequenceType_, msg.sender);\r\n        Citizens citizens = getCitizensApp();\r\n        citizens.updatePublicKey(msg.sender, pubKeyFirst_, pubKeySecond_);\r\n        citizens.updateName(msg.sender, name_);\r\n    }\r\n\r\n    // Must submit which consequence the user is proposing to approve on behalf of\r\n    function approve(address consequence_, uint version_, address onBehalf_) external consequenceApproval(Consequence(consequence_), version_, onBehalf_) {\r\n        Consequence consequence = Consequence(consequence_);\r\n        // Remove approver from the pending list\r\n        consequence.removePendingApprover(version_, onBehalf_); \r\n        \r\n        // Check whether coauthor needs adding to the list and whether the inheritor needs changing\r\n        if (consequence.getPendingApproverCount(version_) == 0) {\r\n            address coauthor = consequence.getVersionAuthor(version_);\r\n            bool alreadyCoAuthor = (coauthor == consequence.author());\r\n            uint i = 0;\r\n            while (!alreadyCoAuthor && i < consequence.getCoAuthorsCount()) {\r\n                if (coauthor == consequence.coAuthors(i)) {\r\n                   alreadyCoAuthor = true;\r\n                }\r\n                i++;\r\n            }\r\n            if (!alreadyCoAuthor) {\r\n                consequence.addCoAuthor(coauthor);\r\n            }\r\n            // If it's a new consequence then add it as a child of its parent\r\n            if (version_ == 1) {\r\n                Consequence(consequence.parent()).addChild(consequence_);\r\n            }\r\n        }\r\n        Consequence(onBehalf_).removeConsequenceToApprove(address(consequence_), version_);\r\n    }\r\n\r\n    // Must submit which consequence the user is proposing to approve on behalf of\r\n    function reject(address consequence_, uint version_, address onBehalf_) external consequenceApproval(Consequence(consequence_), version_, onBehalf_) {\r\n        Consequence consequence = Consequence(consequence_);\r\n        // Remove all approvers\r\n        for (uint i = 0; i < consequence.getPendingApproverCount(version_); i++) {\r\n            Consequence(consequence.getPendingApprover(version_, i)).removeConsequenceToApprove(consequence_, version_);\r\n        }\r\n        for (uint i = 0; i < consequence.getPendingApproverCount(version_); i++) {\r\n            consequence.removePendingApprover(version_, onBehalf_);\r\n        }\r\n        // Delete the consequence or set the rejected flag for the version\r\n        if (version_ == 1) {\r\n            consequence.destroy();\r\n        }\r\n        else {\r\n            consequence.setRejected(version_, true);\r\n            consequence.setVersionAuthor(version_, address(0));\r\n            consequence.setTitle(version_, \"\");\r\n            consequence.setContent(version_, \"\");\r\n        }\r\n    }\r\n\r\n    function setInheritor(address consequence_, address inheritor_, bytes32 pubKeyFirst_, bytes32 pubKeySecond_, bytes32 name_) external {\r\n        // Check if the author needs to be changed\r\n        Consequence consequence = Consequence(consequence_);\r\n        require(msg.sender == consequence.author(), \"403\");\r\n        if (!checkAuthorOverdue(Consequence(consequence_))) {\r\n            Citizens citizens = getCitizensApp();\r\n            require(citizens.getName(inheritor_) == bytes32(0) || citizens.getName(inheritor_) == name_, \"name\");\r\n            (bytes32 first_, bytes32 second_) = citizens.getPublicKey(inheritor_);\r\n            require(first_ == bytes32(0) || (first_ == pubKeyFirst_ && second_ == pubKeySecond_), \"key\");\r\n            consequence.setInheritor(inheritor_);\r\n            citizens.updatePublicKey(inheritor_, pubKeyFirst_, pubKeySecond_);\r\n            citizens.updateName(inheritor_, name_);\r\n        }\r\n    } \r\n\r\n    function editTitle(address consequence_, uint version_, string memory title_) external {\r\n        Consequence consequence = Consequence(consequence_);\r\n        require(msg.sender == consequence.getVersionAuthor(version_) && !consequence.isRejected(version_) && consequence.getPendingApproverCount(version_) == consequence.getOriginalApproverCount(version_), \"403\");\r\n        consequence.setTitle(version_, title_);\r\n    }\r\n\r\n    function editContent(address consequence_, uint version_, string memory content_) external {\r\n        Consequence consequence = Consequence(consequence_);\r\n        require(msg.sender == consequence.getVersionAuthor(version_) && !consequence.isRejected(version_) && consequence.getPendingApproverCount(version_) == consequence.getOriginalApproverCount(version_), \"403\");\r\n        consequence.setContent(version_, content_);\r\n    }\r\n\r\n    function deleteConsequence(address consequence_) external {\r\n        Consequence consequence = Consequence(consequence_);\r\n        require(msg.sender == consequence.author(), \"403\");\r\n        deleteDescendants(consequence_);\r\n        if (consequence_ != Eniko(eniko).getPurpose()) {\r\n            Consequence(getParentSafe(consequence_)).removeChild(consequence_);\r\n        }\r\n        consequence.destroy();\r\n    }\r\n\r\n    // External Functions Limited to Ballot Functions\r\n\r\n    function resetMissedVotes(address consequence_) external ballotFunctionsOnly {\r\n        Consequence(consequence_).setMissedBallotCount(0);\r\n    }\r\n\r\n    function missedVote(address consequence_) external ballotFunctionsOnly {\r\n        Consequence(consequence_).incrementMissedBallotCount();\r\n    }\r\n    \r\n    // Internal Functions\r\n    \r\n    function deleteDescendants(address consequence_) internal {\r\n        for (uint i; i < Consequence(consequence_).getChildrenCount(); i++) {\r\n            deleteDescendants(Consequence(consequence_).children(i));\r\n            Consequence(Consequence(consequence_).children(i)).destroy();\r\n        }\r\n    }\r\n\r\n    function checkAuthorOverdue(Consequence consequence_) internal returns (bool overdue_){\r\n        overdue_ = false;\r\n        // Check for approvals that are over 30 days old\r\n        uint pendingApprovalsCount = consequence_.getPendingApprovalsCount();\r\n        uint i = 0;\r\n        while (!overdue_ && i < pendingApprovalsCount) {\r\n            if (consequence_.getPendingApprovalTimestamp(i) + 30 days < block.timestamp) {\r\n                overdue_ = true;\r\n            }\r\n            i++;\r\n        }\r\n        // Check that the consequence has not skipped more than 5 votes\r\n        if (!overdue_ && consequence_.missedBallotCount() > 5) {\r\n            overdue_ = true;\r\n        }\r\n        // If overdue then decease the author\r\n        if (overdue_) {\r\n            address inheritor = address(0x00);\r\n            // If the inheritor has been manually set then use it\r\n            if (consequence_.inheritor() != address(0x00)) {\r\n                inheritor = consequence_.inheritor();\r\n            }\r\n            // Otherwise if there is a coauthor then use that\r\n            else if (consequence_.getCoAuthorsCount() > 0) {\r\n                inheritor = consequence_.coAuthors(0);\r\n            }\r\n            // Otherwise if there is a child from a different author which has not been rejected and is not pending approval use that\r\n            i = 0;\r\n            while (inheritor == address(0x00) && i < consequence_.getChildrenCount()) {\r\n                address child = consequence_.children(i);\r\n                if (child != consequence_.author() && !Consequence(child).isRejected(1) && Consequence(child).getPendingApproverCount(1) == 0) {\r\n                    inheritor = Consequence(child).author();\r\n                }\r\n                i++;\r\n            }\r\n            // Otherwise search back up the tree for an inheritor\r\n            address parent = getParentSafe(address(consequence_));\r\n            while (inheritor == address(0x00) && parent != eniko) {\r\n                if(Consequence(parent).author() != consequence_.author()) {\r\n                    inheritor = Consequence(parent).author();\r\n                }\r\n                parent = getParentSafe(parent);\r\n            }\r\n            // If we have found somebody to inherit it then pass it to them\r\n            if (inheritor != address(0x00)) {\r\n                consequence_.setAuthor(inheritor);\r\n                consequence_.removeCoAuthor(inheritor);\r\n                consequence_.setInheritor(address(0x00));\r\n                for (uint j = 0; j < pendingApprovalsCount; j++) {\r\n                    consequence_.setPendingApprovalTimestamp(j, block.timestamp);\r\n                }\r\n                consequence_.setMissedBallotCount(0);\r\n            }\r\n        }\r\n    }\r\n\r\n    // Check access to a specific version of a consequence\r\n    function correctVersionNumber(Consequence consequence_, uint version_) internal view returns(uint correctVersion_) {\r\n        // If the user specified an invalid version then give them the last approved version (this will return 0 if there are no versions approved)\r\n        if (version_ >= consequence_.getVersionCount() || version_ == 0) {\r\n            correctVersion_ = getLastApprovedVersion(consequence_);\r\n        }\r\n        else {\r\n            correctVersion_ = version_;\r\n        }\r\n    }\r\n\r\n    function getLastApprovedVersion(Consequence consequence_) internal view returns(uint version_) {\r\n        version_ = consequence_.getVersionCount()-1;\r\n        while (version_ > 0 && (consequence_.isRejected(version_) || consequence_.getPendingApproverCount(version_) > 0)) {\r\n            version_--;\r\n        }\r\n    }\r\n  \r\n    function checkPendingApprover(Consequence consequence_, uint version_, address approver_) internal view returns(bool isPendingApprover_) {\r\n        isPendingApprover_ = false;\r\n        uint i = 0;\r\n        while (!isPendingApprover_ && i < consequence_.getPendingApproverCount(version_)) {\r\n            if (consequence_.getPendingApprover(version_, i) == approver_) {\r\n                isPendingApprover_ = true;\r\n            }\r\n            i++;\r\n        }\r\n    }\r\n\r\n    function hasAccess(Consequence consequence_, address user_) internal view returns(bool userAllowed) {  \r\n        userAllowed = false;\r\n        // Anybody is allowed if it is a public consequence and the first version has been approved, and the author and BallotFunctions are always allowed\r\n        if (!consequence_.isRejected(1) && ((consequence_.consequenceType() == Alexandria.ConsequenceType.Public && consequence_.getPendingApproverCount(1) == 0) || user_ == consequence_.author())) {\r\n            userAllowed = true;\r\n        }\r\n    }\r\n\r\n    function getParentSafe(address consequence_) internal view returns(address parent_) {\r\n        parent_ = Consequence(consequence_).parent();\r\n        if (parent_ == eniko) {\r\n            // If the parent is Eniko then this should be the purpose\r\n            if (Eniko(eniko).getPurpose() != consequence_) {\r\n                // If not then search through the whole tree for its parent\r\n                parent_ = findParent(Consequence(Eniko(eniko).getPurpose()), consequence_, true);\r\n            }\r\n        }\r\n        else {\r\n            // Otherwise it should be a recognised child of the parent\r\n            if (findParent(Consequence(parent_), consequence_, false) == address(0x00)) {\r\n                // If not then search through the whole tree for its parent\r\n                parent_ = findParent(Consequence(Eniko(eniko).getPurpose()), consequence_, true);\r\n            }\r\n        }\r\n    }\r\n\r\n    function findParent(Consequence ancestor_, address child_, bool recursive_) internal view returns(address parent_) {  \r\n        parent_ = address(0x00);\r\n        uint childCount = ancestor_.getChildrenCount();\r\n        uint i = 0;\r\n        while(parent_ == address(0x00) && i < childCount) {\r\n            if (ancestor_.children(i) == child_) {\r\n                parent_ = address(ancestor_);\r\n            }\r\n            else {\r\n                if (recursive_) {\r\n                    parent_ = findParent(Consequence(ancestor_.children(i)), child_, true);\r\n                }\r\n            }\r\n            i++;\r\n        }\r\n    }\r\n\r\n    // Eniko App Retrievers\r\n\r\n    function getConsequenceDeployerApp() internal view returns (ConsequenceDeployer app_) {\r\n        app_ = ConsequenceDeployer(Eniko(eniko).getAppAddress(5));\r\n    }\r\n\r\n    function getCitizensApp() internal view returns (Citizens app_) {\r\n        app_ = Citizens(Eniko(eniko).getAppAddress(11));\r\n    }\r\n}",
  "sourcePath": "C:\\Users\\Jonathan\\OneDrive\\Project Eniko\\Eniko\\contracts\\ConsequenceFunctions.sol",
  "compiler": {
    "name": "solc",
    "version": "0.7.5+commit.eb77ed08.Emscripten.clang"
  },
  "schemaVersion": "3.3.4",
  "updatedAt": "2021-04-18T14:58:25.488Z",
  "devdoc": {
    "kind": "dev",
    "methods": {},
    "version": 1
  },
  "userdoc": {
    "kind": "user",
    "methods": {},
    "version": 1
  }
}