{
  "contractName": "Consequence",
  "abi": [
    {
      "inputs": [
        {
          "internalType": "address payable",
          "name": "eniko_",
          "type": "address"
        }
      ],
      "stateMutability": "nonpayable",
      "type": "constructor"
    },
    {
      "inputs": [],
      "name": "author",
      "outputs": [
        {
          "internalType": "address",
          "name": "",
          "type": "address"
        }
      ],
      "stateMutability": "view",
      "type": "function"
    },
    {
      "inputs": [
        {
          "internalType": "uint256",
          "name": "",
          "type": "uint256"
        }
      ],
      "name": "children",
      "outputs": [
        {
          "internalType": "address",
          "name": "",
          "type": "address"
        }
      ],
      "stateMutability": "view",
      "type": "function"
    },
    {
      "inputs": [
        {
          "internalType": "uint256",
          "name": "",
          "type": "uint256"
        }
      ],
      "name": "coAuthors",
      "outputs": [
        {
          "internalType": "address",
          "name": "",
          "type": "address"
        }
      ],
      "stateMutability": "view",
      "type": "function"
    },
    {
      "inputs": [],
      "name": "consequenceType",
      "outputs": [
        {
          "internalType": "enum Alexandria.ConsequenceType",
          "name": "",
          "type": "uint8"
        }
      ],
      "stateMutability": "view",
      "type": "function"
    },
    {
      "inputs": [],
      "name": "eniko",
      "outputs": [
        {
          "internalType": "address payable",
          "name": "",
          "type": "address"
        }
      ],
      "stateMutability": "view",
      "type": "function"
    },
    {
      "inputs": [],
      "name": "inheritor",
      "outputs": [
        {
          "internalType": "address",
          "name": "",
          "type": "address"
        }
      ],
      "stateMutability": "view",
      "type": "function"
    },
    {
      "inputs": [],
      "name": "missedBallotCount",
      "outputs": [
        {
          "internalType": "uint256",
          "name": "",
          "type": "uint256"
        }
      ],
      "stateMutability": "view",
      "type": "function"
    },
    {
      "inputs": [],
      "name": "parent",
      "outputs": [
        {
          "internalType": "address",
          "name": "",
          "type": "address"
        }
      ],
      "stateMutability": "view",
      "type": "function"
    },
    {
      "inputs": [],
      "name": "destroy",
      "outputs": [],
      "stateMutability": "nonpayable",
      "type": "function"
    },
    {
      "inputs": [],
      "name": "getCoAuthors",
      "outputs": [
        {
          "internalType": "address[]",
          "name": "coauthors_",
          "type": "address[]"
        }
      ],
      "stateMutability": "view",
      "type": "function"
    },
    {
      "inputs": [],
      "name": "getCoAuthorsCount",
      "outputs": [
        {
          "internalType": "uint256",
          "name": "count_",
          "type": "uint256"
        }
      ],
      "stateMutability": "view",
      "type": "function"
    },
    {
      "inputs": [],
      "name": "getChildren",
      "outputs": [
        {
          "internalType": "address[]",
          "name": "children_",
          "type": "address[]"
        }
      ],
      "stateMutability": "view",
      "type": "function"
    },
    {
      "inputs": [],
      "name": "getChildrenCount",
      "outputs": [
        {
          "internalType": "uint256",
          "name": "count_",
          "type": "uint256"
        }
      ],
      "stateMutability": "view",
      "type": "function"
    },
    {
      "inputs": [],
      "name": "getVersionCount",
      "outputs": [
        {
          "internalType": "uint256",
          "name": "versionCount_",
          "type": "uint256"
        }
      ],
      "stateMutability": "view",
      "type": "function"
    },
    {
      "inputs": [
        {
          "internalType": "uint256",
          "name": "version_",
          "type": "uint256"
        }
      ],
      "name": "getTitle",
      "outputs": [
        {
          "internalType": "string",
          "name": "title_",
          "type": "string"
        }
      ],
      "stateMutability": "view",
      "type": "function"
    },
    {
      "inputs": [
        {
          "internalType": "uint256",
          "name": "version_",
          "type": "uint256"
        }
      ],
      "name": "getContent",
      "outputs": [
        {
          "internalType": "string",
          "name": "content_",
          "type": "string"
        }
      ],
      "stateMutability": "view",
      "type": "function"
    },
    {
      "inputs": [
        {
          "internalType": "uint256",
          "name": "version_",
          "type": "uint256"
        }
      ],
      "name": "getPendingApprovers",
      "outputs": [
        {
          "internalType": "address[]",
          "name": "pendingApprovers_",
          "type": "address[]"
        }
      ],
      "stateMutability": "view",
      "type": "function"
    },
    {
      "inputs": [
        {
          "internalType": "uint256",
          "name": "version_",
          "type": "uint256"
        }
      ],
      "name": "getPendingApproverCount",
      "outputs": [
        {
          "internalType": "uint256",
          "name": "approverCount_",
          "type": "uint256"
        }
      ],
      "stateMutability": "view",
      "type": "function"
    },
    {
      "inputs": [
        {
          "internalType": "uint256",
          "name": "version_",
          "type": "uint256"
        },
        {
          "internalType": "uint256",
          "name": "index_",
          "type": "uint256"
        }
      ],
      "name": "getPendingApprover",
      "outputs": [
        {
          "internalType": "address",
          "name": "approver_",
          "type": "address"
        }
      ],
      "stateMutability": "view",
      "type": "function"
    },
    {
      "inputs": [
        {
          "internalType": "uint256",
          "name": "version_",
          "type": "uint256"
        },
        {
          "internalType": "address",
          "name": "address_",
          "type": "address"
        }
      ],
      "name": "getDecryptionKey",
      "outputs": [
        {
          "internalType": "bytes32",
          "name": "encryptedKey_",
          "type": "bytes32"
        }
      ],
      "stateMutability": "view",
      "type": "function"
    },
    {
      "inputs": [
        {
          "internalType": "uint256",
          "name": "version_",
          "type": "uint256"
        }
      ],
      "name": "getVersionAuthor",
      "outputs": [
        {
          "internalType": "address",
          "name": "coauthor_",
          "type": "address"
        }
      ],
      "stateMutability": "view",
      "type": "function"
    },
    {
      "inputs": [
        {
          "internalType": "uint256",
          "name": "version_",
          "type": "uint256"
        }
      ],
      "name": "getOriginalApproverCount",
      "outputs": [
        {
          "internalType": "uint256",
          "name": "count_",
          "type": "uint256"
        }
      ],
      "stateMutability": "view",
      "type": "function"
    },
    {
      "inputs": [
        {
          "internalType": "uint256",
          "name": "version_",
          "type": "uint256"
        }
      ],
      "name": "isRejected",
      "outputs": [
        {
          "internalType": "bool",
          "name": "rejected_",
          "type": "bool"
        }
      ],
      "stateMutability": "view",
      "type": "function"
    },
    {
      "inputs": [],
      "name": "getPendingApprovalsCount",
      "outputs": [
        {
          "internalType": "uint256",
          "name": "count_",
          "type": "uint256"
        }
      ],
      "stateMutability": "view",
      "type": "function"
    },
    {
      "inputs": [
        {
          "internalType": "uint256",
          "name": "index_",
          "type": "uint256"
        }
      ],
      "name": "getPendingApprovalConsequence",
      "outputs": [
        {
          "internalType": "address",
          "name": "consequence_",
          "type": "address"
        }
      ],
      "stateMutability": "view",
      "type": "function"
    },
    {
      "inputs": [
        {
          "internalType": "uint256",
          "name": "index_",
          "type": "uint256"
        }
      ],
      "name": "getPendingApprovalVersion",
      "outputs": [
        {
          "internalType": "uint256",
          "name": "version_",
          "type": "uint256"
        }
      ],
      "stateMutability": "view",
      "type": "function"
    },
    {
      "inputs": [
        {
          "internalType": "uint256",
          "name": "i_",
          "type": "uint256"
        }
      ],
      "name": "getPendingApprovalTimestamp",
      "outputs": [
        {
          "internalType": "uint256",
          "name": "timestamp_",
          "type": "uint256"
        }
      ],
      "stateMutability": "view",
      "type": "function"
    },
    {
      "inputs": [
        {
          "internalType": "address payable",
          "name": "eniko_",
          "type": "address"
        }
      ],
      "name": "setEniko",
      "outputs": [],
      "stateMutability": "nonpayable",
      "type": "function"
    },
    {
      "inputs": [
        {
          "internalType": "address",
          "name": "author_",
          "type": "address"
        }
      ],
      "name": "setAuthor",
      "outputs": [],
      "stateMutability": "nonpayable",
      "type": "function"
    },
    {
      "inputs": [
        {
          "internalType": "address",
          "name": "coauthor_",
          "type": "address"
        }
      ],
      "name": "addCoAuthor",
      "outputs": [],
      "stateMutability": "nonpayable",
      "type": "function"
    },
    {
      "inputs": [
        {
          "internalType": "address",
          "name": "coauthor_",
          "type": "address"
        }
      ],
      "name": "removeCoAuthor",
      "outputs": [],
      "stateMutability": "nonpayable",
      "type": "function"
    },
    {
      "inputs": [
        {
          "internalType": "address",
          "name": "parent_",
          "type": "address"
        }
      ],
      "name": "setParent",
      "outputs": [],
      "stateMutability": "nonpayable",
      "type": "function"
    },
    {
      "inputs": [
        {
          "internalType": "enum Alexandria.ConsequenceType",
          "name": "type_",
          "type": "uint8"
        }
      ],
      "name": "setType",
      "outputs": [],
      "stateMutability": "nonpayable",
      "type": "function"
    },
    {
      "inputs": [
        {
          "internalType": "address",
          "name": "consequence_",
          "type": "address"
        }
      ],
      "name": "addChild",
      "outputs": [],
      "stateMutability": "nonpayable",
      "type": "function"
    },
    {
      "inputs": [
        {
          "internalType": "address",
          "name": "consequence_",
          "type": "address"
        }
      ],
      "name": "removeChild",
      "outputs": [],
      "stateMutability": "nonpayable",
      "type": "function"
    },
    {
      "inputs": [
        {
          "internalType": "address",
          "name": "inheritor_",
          "type": "address"
        }
      ],
      "name": "setInheritor",
      "outputs": [],
      "stateMutability": "nonpayable",
      "type": "function"
    },
    {
      "inputs": [
        {
          "internalType": "uint256",
          "name": "count_",
          "type": "uint256"
        }
      ],
      "name": "setMissedBallotCount",
      "outputs": [],
      "stateMutability": "nonpayable",
      "type": "function"
    },
    {
      "inputs": [],
      "name": "incrementMissedBallotCount",
      "outputs": [],
      "stateMutability": "nonpayable",
      "type": "function"
    },
    {
      "inputs": [],
      "name": "decrementMissedBallotCount",
      "outputs": [],
      "stateMutability": "nonpayable",
      "type": "function"
    },
    {
      "inputs": [
        {
          "internalType": "string",
          "name": "title_",
          "type": "string"
        },
        {
          "internalType": "string",
          "name": "content_",
          "type": "string"
        },
        {
          "internalType": "address",
          "name": "coauthor_",
          "type": "address"
        },
        {
          "internalType": "bool",
          "name": "rejected_",
          "type": "bool"
        }
      ],
      "name": "addVersion",
      "outputs": [
        {
          "internalType": "uint256",
          "name": "versionNumber_",
          "type": "uint256"
        }
      ],
      "stateMutability": "nonpayable",
      "type": "function"
    },
    {
      "inputs": [
        {
          "internalType": "uint256",
          "name": "version_",
          "type": "uint256"
        },
        {
          "internalType": "string",
          "name": "title_",
          "type": "string"
        }
      ],
      "name": "setTitle",
      "outputs": [],
      "stateMutability": "nonpayable",
      "type": "function"
    },
    {
      "inputs": [
        {
          "internalType": "uint256",
          "name": "version_",
          "type": "uint256"
        },
        {
          "internalType": "string",
          "name": "content_",
          "type": "string"
        }
      ],
      "name": "setContent",
      "outputs": [],
      "stateMutability": "nonpayable",
      "type": "function"
    },
    {
      "inputs": [
        {
          "internalType": "uint256",
          "name": "version_",
          "type": "uint256"
        },
        {
          "internalType": "address",
          "name": "approver_",
          "type": "address"
        }
      ],
      "name": "addPendingApprover",
      "outputs": [],
      "stateMutability": "nonpayable",
      "type": "function"
    },
    {
      "inputs": [
        {
          "internalType": "uint256",
          "name": "version_",
          "type": "uint256"
        },
        {
          "internalType": "address",
          "name": "approver_",
          "type": "address"
        }
      ],
      "name": "removePendingApprover",
      "outputs": [],
      "stateMutability": "nonpayable",
      "type": "function"
    },
    {
      "inputs": [
        {
          "internalType": "uint256",
          "name": "version_",
          "type": "uint256"
        },
        {
          "internalType": "address",
          "name": "address_",
          "type": "address"
        },
        {
          "internalType": "bytes32",
          "name": "encryptedKey_",
          "type": "bytes32"
        }
      ],
      "name": "setDecryptionKey",
      "outputs": [],
      "stateMutability": "nonpayable",
      "type": "function"
    },
    {
      "inputs": [
        {
          "internalType": "uint256",
          "name": "version_",
          "type": "uint256"
        },
        {
          "internalType": "address",
          "name": "author_",
          "type": "address"
        }
      ],
      "name": "setVersionAuthor",
      "outputs": [],
      "stateMutability": "nonpayable",
      "type": "function"
    },
    {
      "inputs": [
        {
          "internalType": "uint256",
          "name": "version_",
          "type": "uint256"
        },
        {
          "internalType": "uint256",
          "name": "count_",
          "type": "uint256"
        }
      ],
      "name": "setOriginalApproverCount",
      "outputs": [],
      "stateMutability": "nonpayable",
      "type": "function"
    },
    {
      "inputs": [
        {
          "internalType": "uint256",
          "name": "version_",
          "type": "uint256"
        },
        {
          "internalType": "bool",
          "name": "rejected_",
          "type": "bool"
        }
      ],
      "name": "setRejected",
      "outputs": [],
      "stateMutability": "nonpayable",
      "type": "function"
    },
    {
      "inputs": [
        {
          "internalType": "address",
          "name": "consequence_",
          "type": "address"
        },
        {
          "internalType": "uint256",
          "name": "version_",
          "type": "uint256"
        },
        {
          "internalType": "uint256",
          "name": "timestamp_",
          "type": "uint256"
        }
      ],
      "name": "addNewConsequenceToApprove",
      "outputs": [],
      "stateMutability": "nonpayable",
      "type": "function"
    },
    {
      "inputs": [
        {
          "internalType": "address",
          "name": "consequence_",
          "type": "address"
        },
        {
          "internalType": "uint256",
          "name": "version_",
          "type": "uint256"
        }
      ],
      "name": "removeConsequenceToApprove",
      "outputs": [],
      "stateMutability": "nonpayable",
      "type": "function"
    },
    {
      "inputs": [
        {
          "internalType": "uint256",
          "name": "index_",
          "type": "uint256"
        },
        {
          "internalType": "address",
          "name": "consequence_",
          "type": "address"
        }
      ],
      "name": "setPendingApprovalConsequence",
      "outputs": [],
      "stateMutability": "nonpayable",
      "type": "function"
    },
    {
      "inputs": [
        {
          "internalType": "uint256",
          "name": "index_",
          "type": "uint256"
        },
        {
          "internalType": "uint256",
          "name": "version_",
          "type": "uint256"
        }
      ],
      "name": "setPendingApprovalVersion",
      "outputs": [],
      "stateMutability": "nonpayable",
      "type": "function"
    },
    {
      "inputs": [
        {
          "internalType": "uint256",
          "name": "index_",
          "type": "uint256"
        },
        {
          "internalType": "uint256",
          "name": "timestamp_",
          "type": "uint256"
        }
      ],
      "name": "setPendingApprovalTimestamp",
      "outputs": [],
      "stateMutability": "nonpayable",
      "type": "function"
    }
  ],
  "bytecode": "0x608060405234801561001057600080fd5b506040516139723803806139728339818101604052602081101561003357600080fd5b5051600080546001600160a01b039092166001600160a01b03199092169190911781556007805460010181559052613902806100706000396000f3fe608060405234801561001057600080fd5b50600436106103275760003560e01c8063662709c9116101b8578063a684d4f611610104578063d73a5813116100a2578063ec820be31161007c578063ec820be314610bea578063ed09b0a214610c16578063f06e3e2414610c33578063f4cdadde14610c3b57610327565b8063d73a581314610b84578063da30f22914610ba1578063e28a3c3714610bbe57610327565b8063c1cbd6a1116100de578063c1cbd6a114610b10578063c949adeb14610b3c578063c9d9520c14610b5f578063ced661bd14610b7c57610327565b8063a684d4f614610a37578063a6c3e6b914610a5d578063b3789e0914610a6557610327565b8063929a79b1116101715780639d2bf8da1161014b5780639d2bf8da146109b4578063a05f41a4146109d7578063a3026cff146109fd578063a316d3b814610a0557610327565b8063929a79b11461096a578063946dfcfe146109875780639487362c1461098f57610327565b8063662709c9146107945780636a58d7ef146108cd5780636d74e04c146108f65780637002ce4214610922578063752320621461093f57806383197ef01461096257610327565b80633c01f050116102775780635102bc9d116102305780635e6fc8b41161020a5780635e6fc8b41461074a57806360f96a8f14610752578063634df10d1461075a578063637070701461077757610327565b80635102bc9d14610641578063569152ce146106ec5780635970ea881461071e57610327565b80633c01f050146105375780633d62e717146105a457806343d8a153146105c157806344741ed7146105f05780634892e8e8146106165780634cd1c5da1461061e57610327565b80631499c592116102e45780632484eb6d116102be5780632484eb6d146104d557806331756da0146104fb57806336a52a18146105035780633b00bb321461050b57610327565b80631499c59214610465578063160cf3771461048b5780631eee993a146104af57610327565b806305fff5921461032c578063098f076e146103365780630b54cbfb146103675780630b7ad54c1461038757806312a39db21461041957806312b222561461043f575b600080fd5b610334610c43565b005b6103536004803603602081101561034c57600080fd5b5035610d63565b604080519115158252519081900360200190f35b6103346004803603602081101561037d57600080fd5b503560ff16610d8f565b6103a46004803603602081101561039d57600080fd5b5035610ecb565b6040805160208082528351818301528351919283929083019185019080838360005b838110156103de5781810151838201526020016103c6565b50505050905090810190601f16801561040b5780820380516001836020036101000a031916815260200191505b509250505060405180910390f35b6103346004803603602081101561042f57600080fd5b50356001600160a01b0316610f8b565b6103346004803603602081101561045557600080fd5b50356001600160a01b03166111a3565b6103346004803603602081101561047b57600080fd5b50356001600160a01b03166112da565b610493611411565b604080516001600160a01b039092168252519081900360200190f35b610334600480360360208110156104c557600080fd5b50356001600160a01b0316611420565b610334600480360360208110156104eb57600080fd5b50356001600160a01b0316611587565b61033461179a565b6104936118bb565b6103346004803603604081101561052157600080fd5b50803590602001356001600160a01b03166118ca565b6105546004803603602081101561054d57600080fd5b5035611a1f565b60408051602080825283518183015283519192839290830191858101910280838360005b83811015610590578181015183820152602001610578565b505050509050019250505060405180910390f35b610493600480360360208110156105ba57600080fd5b5035611a9e565b6105de600480360360208110156105d757600080fd5b5035611acd565b60408051918252519081900360200190f35b6103346004803603602081101561060657600080fd5b50356001600160a01b0316611af5565b610554611c2c565b6104936004803603604081101561063457600080fd5b5080359060200135611c8e565b6103346004803603604081101561065757600080fd5b81359190810190604081016020820135600160201b81111561067857600080fd5b82018360208201111561068a57600080fd5b803590602001918460018302840111600160201b831117156106ab57600080fd5b91908080601f016020809104026020016040519081016040528093929190818152602001838380828437600092019190915250929550611cd5945050505050565b6103346004803603606081101561070257600080fd5b508035906001600160a01b036020820135169060400135611e1c565b6105de6004803603604081101561073457600080fd5b50803590602001356001600160a01b0316611f7c565b6105de611fbb565b610493611fc1565b6105de6004803603602081101561077057600080fd5b5035611fd0565b6104936004803603602081101561078d57600080fd5b5035611ff9565b6105de600480360360808110156107aa57600080fd5b810190602081018135600160201b8111156107c457600080fd5b8201836020820111156107d657600080fd5b803590602001918460018302840111600160201b831117156107f757600080fd5b91908080601f0160208091040260200160405190810160405280939291908181526020018383808284376000920191909152509295949360208101935035915050600160201b81111561084957600080fd5b82018360208201111561085b57600080fd5b803590602001918460018302840111600160201b8311171561087c57600080fd5b91908080601f016020809104026020016040519081016040528093929190818152602001838380828437600092019190915250929550506001600160a01b0383351693505050602001351515612023565b6108d56121cf565b604051808260018111156108e557fe5b815260200191505060405180910390f35b6103346004803603604081101561090c57600080fd5b50803590602001356001600160a01b03166121df565b6104936004803603602081101561093857600080fd5b5035612346565b6103346004803603604081101561095557600080fd5b5080359060200135612356565b610334612492565b6103a46004803603602081101561098057600080fd5b50356125b5565b6105de61262c565b610334600480360360408110156109a557600080fd5b50803590602001351515612632565b610334600480360360408110156109ca57600080fd5b508035906020013561277b565b610334600480360360208110156109ed57600080fd5b50356001600160a01b03166128b7565b6105de6129ee565b61033460048036036060811015610a1b57600080fd5b506001600160a01b0381351690602081013590604001356129f4565b61033460048036036020811015610a4d57600080fd5b50356001600160a01b0316612bca565b610493612d31565b61033460048036036040811015610a7b57600080fd5b81359190810190604081016020820135600160201b811115610a9c57600080fd5b820183602082011115610aae57600080fd5b803590602001918460018302840111600160201b83111715610acf57600080fd5b91908080601f016020809104026020016040519081016040528093929190818152602001838380828437600092019190915250929550612d40945050505050565b61033460048036036040811015610b2657600080fd5b50803590602001356001600160a01b0316612e87565b61033460048036036040811015610b5257600080fd5b508035906020013561312f565b61033460048036036020811015610b7557600080fd5b503561326b565b610554613385565b6105de60048036036020811015610b9a57600080fd5b50356133e5565b6105de60048036036020811015610bb757600080fd5b503561340d565b61033460048036036040811015610bd457600080fd5b506001600160a01b038135169060200135613435565b61033460048036036040811015610c0057600080fd5b50803590602001356001600160a01b0316613691565b61049360048036036020811015610c2c57600080fd5b50356137ed565b6105de61381f565b6105de613825565b600054604080516318860ac560e21b815260048181015290516001600160a01b03909216916362182b1491602480820192602092909190829003018186803b158015610c8e57600080fd5b505afa158015610ca2573d6000803e3d6000fd5b505050506040513d6020811015610cb857600080fd5b50516001600160a01b0316331480610d4f5750600054604080516318860ac560e21b81526005600482015290516001600160a01b03909216916362182b1491602480820192602092909190829003018186803b158015610d1757600080fd5b505afa158015610d2b573d6000803e3d6000fd5b505050506040513d6020811015610d4157600080fd5b50516001600160a01b031633145b610d5857600080fd5b600680546001019055565b600060078281548110610d7257fe5b600091825260209091206006600790920201015460ff1692915050565b600054604080516318860ac560e21b815260048181015290516001600160a01b03909216916362182b1491602480820192602092909190829003018186803b158015610dda57600080fd5b505afa158015610dee573d6000803e3d6000fd5b505050506040513d6020811015610e0457600080fd5b50516001600160a01b0316331480610e9b5750600054604080516318860ac560e21b81526005600482015290516001600160a01b03909216916362182b1491602480820192602092909190829003018186803b158015610e6357600080fd5b505afa158015610e77573d6000803e3d6000fd5b505050506040513d6020811015610e8d57600080fd5b50516001600160a01b031633145b610ea457600080fd5b6003805482919060ff60a01b1916600160a01b836001811115610ec357fe5b021790555050565b606060078281548110610eda57fe5b90600052602060002090600702016001018054600181600116156101000203166002900480601f016020809104026020016040519081016040528092919081815260200182805460018160011615610100020316600290048015610f7f5780601f10610f5457610100808354040283529160200191610f7f565b820191906000526020600020905b815481529060010190602001808311610f6257829003601f168201915b50505050509050919050565b600054604080516318860ac560e21b815260048181015290516001600160a01b03909216916362182b1491602480820192602092909190829003018186803b158015610fd657600080fd5b505afa158015610fea573d6000803e3d6000fd5b505050506040513d602081101561100057600080fd5b50516001600160a01b03163314806110975750600054604080516318860ac560e21b81526005600482015290516001600160a01b03909216916362182b1491602480820192602092909190829003018186803b15801561105f57600080fd5b505afa158015611073573d6000803e3d6000fd5b505050506040513d602081101561108957600080fd5b50516001600160a01b031633145b6110a057600080fd5b6000805b60045481101561115d57826001600160a01b0316600482815481106110c557fe5b6000918252602090912001546001600160a01b031614156110eb57600190910190611155565b811561115557600481815481106110fe57fe5b600091825260209091200154600480546001600160a01b039092169184840390811061112657fe5b9060005260206000200160006101000a8154816001600160a01b0302191690836001600160a01b031602179055505b6001016110a4565b5060005b8181101561119e57600480548061117457fe5b600082815260209020810160001990810180546001600160a01b0319169055019055600101611161565b505050565b600054604080516318860ac560e21b815260048181015290516001600160a01b03909216916362182b1491602480820192602092909190829003018186803b1580156111ee57600080fd5b505afa158015611202573d6000803e3d6000fd5b505050506040513d602081101561121857600080fd5b50516001600160a01b03163314806112af5750600054604080516318860ac560e21b81526005600482015290516001600160a01b03909216916362182b1491602480820192602092909190829003018186803b15801561127757600080fd5b505afa15801561128b573d6000803e3d6000fd5b505050506040513d60208110156112a157600080fd5b50516001600160a01b031633145b6112b857600080fd5b600580546001600160a01b0319166001600160a01b0392909216919091179055565b600054604080516318860ac560e21b815260048181015290516001600160a01b03909216916362182b1491602480820192602092909190829003018186803b15801561132557600080fd5b505afa158015611339573d6000803e3d6000fd5b505050506040513d602081101561134f57600080fd5b50516001600160a01b03163314806113e65750600054604080516318860ac560e21b81526005600482015290516001600160a01b03909216916362182b1491602480820192602092909190829003018186803b1580156113ae57600080fd5b505afa1580156113c2573d6000803e3d6000fd5b505050506040513d60208110156113d857600080fd5b50516001600160a01b031633145b6113ef57600080fd5b600380546001600160a01b0319166001600160a01b0392909216919091179055565b6000546001600160a01b031681565b600054604080516318860ac560e21b815260048181015290516001600160a01b03909216916362182b1491602480820192602092909190829003018186803b15801561146b57600080fd5b505afa15801561147f573d6000803e3d6000fd5b505050506040513d602081101561149557600080fd5b50516001600160a01b031633148061152c5750600054604080516318860ac560e21b81526005600482015290516001600160a01b03909216916362182b1491602480820192602092909190829003018186803b1580156114f457600080fd5b505afa158015611508573d6000803e3d6000fd5b505050506040513d602081101561151e57600080fd5b50516001600160a01b031633145b61153557600080fd5b600480546001810182556000919091527f8a35acfbc15ff81a39ae7d344fd709f28e8600b4aa8c65c6b64bfe7fe36bd19b0180546001600160a01b0319166001600160a01b0392909216919091179055565b600054604080516318860ac560e21b815260048181015290516001600160a01b03909216916362182b1491602480820192602092909190829003018186803b1580156115d257600080fd5b505afa1580156115e6573d6000803e3d6000fd5b505050506040513d60208110156115fc57600080fd5b50516001600160a01b03163314806116935750600054604080516318860ac560e21b81526005600482015290516001600160a01b03909216916362182b1491602480820192602092909190829003018186803b15801561165b57600080fd5b505afa15801561166f573d6000803e3d6000fd5b505050506040513d602081101561168557600080fd5b50516001600160a01b031633145b61169c57600080fd5b6000805b60025481101561175957826001600160a01b0316600282815481106116c157fe5b6000918252602090912001546001600160a01b031614156116e757600190910190611751565b811561175157600281815481106116fa57fe5b600091825260209091200154600280546001600160a01b039092169184840390811061172257fe5b9060005260206000200160006101000a8154816001600160a01b0302191690836001600160a01b031602179055505b6001016116a0565b5060005b8181101561119e57600280548061177057fe5b600082815260209020810160001990810180546001600160a01b031916905501905560010161175d565b600054604080516318860ac560e21b815260048181015290516001600160a01b03909216916362182b1491602480820192602092909190829003018186803b1580156117e557600080fd5b505afa1580156117f9573d6000803e3d6000fd5b505050506040513d602081101561180f57600080fd5b50516001600160a01b03163314806118a65750600054604080516318860ac560e21b81526005600482015290516001600160a01b03909216916362182b1491602480820192602092909190829003018186803b15801561186e57600080fd5b505afa158015611882573d6000803e3d6000fd5b505050506040513d602081101561189857600080fd5b50516001600160a01b031633145b6118af57600080fd5b60068054600019019055565b6005546001600160a01b031681565b600054604080516318860ac560e21b815260048181015290516001600160a01b03909216916362182b1491602480820192602092909190829003018186803b15801561191557600080fd5b505afa158015611929573d6000803e3d6000fd5b505050506040513d602081101561193f57600080fd5b50516001600160a01b03163314806119d65750600054604080516318860ac560e21b81526005600482015290516001600160a01b03909216916362182b1491602480820192602092909190829003018186803b15801561199e57600080fd5b505afa1580156119b2573d6000803e3d6000fd5b505050506040513d60208110156119c857600080fd5b50516001600160a01b031633145b6119df57600080fd5b80600883815481106119ed57fe5b6000918252602090912060039091020180546001600160a01b0319166001600160a01b03929092169190911790555050565b606060078281548110611a2e57fe5b9060005260206000209060070201600201805480602002602001604051908101604052809291908181526020018280548015610f7f57602002820191906000526020600020905b81546001600160a01b03168152600190910190602001808311611a755750505050509050919050565b600060088281548110611aad57fe5b60009182526020909120600390910201546001600160a01b031692915050565b600060078281548110611adc57fe5b9060005260206000209060070201600501549050919050565b600054604080516318860ac560e21b815260048181015290516001600160a01b03909216916362182b1491602480820192602092909190829003018186803b158015611b4057600080fd5b505afa158015611b54573d6000803e3d6000fd5b505050506040513d6020811015611b6a57600080fd5b50516001600160a01b0316331480611c015750600054604080516318860ac560e21b81526005600482015290516001600160a01b03909216916362182b1491602480820192602092909190829003018186803b158015611bc957600080fd5b505afa158015611bdd573d6000803e3d6000fd5b505050506040513d6020811015611bf357600080fd5b50516001600160a01b031633145b611c0a57600080fd5b600080546001600160a01b0319166001600160a01b0392909216919091179055565b60606004805480602002602001604051908101604052809291908181526020018280548015611c8457602002820191906000526020600020905b81546001600160a01b03168152600190910190602001808311611c66575b5050505050905090565b600060078381548110611c9d57fe5b90600052602060002090600702016002018281548110611cb957fe5b6000918252602090912001546001600160a01b03169392505050565b600054604080516318860ac560e21b815260048181015290516001600160a01b03909216916362182b1491602480820192602092909190829003018186803b158015611d2057600080fd5b505afa158015611d34573d6000803e3d6000fd5b505050506040513d6020811015611d4a57600080fd5b50516001600160a01b0316331480611de15750600054604080516318860ac560e21b81526005600482015290516001600160a01b03909216916362182b1491602480820192602092909190829003018186803b158015611da957600080fd5b505afa158015611dbd573d6000803e3d6000fd5b505050506040513d6020811015611dd357600080fd5b50516001600160a01b031633145b611dea57600080fd5b8060078381548110611df857fe5b9060005260206000209060070201600001908051906020019061119e92919061382b565b600054604080516318860ac560e21b815260048181015290516001600160a01b03909216916362182b1491602480820192602092909190829003018186803b158015611e6757600080fd5b505afa158015611e7b573d6000803e3d6000fd5b505050506040513d6020811015611e9157600080fd5b50516001600160a01b0316331480611f285750600054604080516318860ac560e21b81526005600482015290516001600160a01b03909216916362182b1491602480820192602092909190829003018186803b158015611ef057600080fd5b505afa158015611f04573d6000803e3d6000fd5b505050506040513d6020811015611f1a57600080fd5b50516001600160a01b031633145b611f3157600080fd5b8060078481548110611f3f57fe5b90600052602060002090600702016003016000846001600160a01b03166001600160a01b0316815260200190815260200160002081905550505050565b600060078381548110611f8b57fe5b600091825260208083206001600160a01b0390951683526003600790920290940101909252506040902054919050565b60045490565b6003546001600160a01b031681565b600060078281548110611fdf57fe5b600091825260209091206002600790920201015492915050565b6002818154811061200957600080fd5b6000918252602090912001546001600160a01b0316905081565b60008054604080516318860ac560e21b815260048181015290516001600160a01b03909216916362182b1491602480820192602092909190829003018186803b15801561206f57600080fd5b505afa158015612083573d6000803e3d6000fd5b505050506040513d602081101561209957600080fd5b50516001600160a01b03163314806121305750600054604080516318860ac560e21b81526005600482015290516001600160a01b03909216916362182b1491602480820192602092909190829003018186803b1580156120f857600080fd5b505afa15801561210c573d6000803e3d6000fd5b505050506040513d602081101561212257600080fd5b50516001600160a01b031633145b61213957600080fd5b50600780546001810180835560008381529192908390811061215757fe5b60009182526020918290208851600790920201925061217b9183919089019061382b565b508451612191906001830190602088019061382b565b506004810180546001600160a01b0319166001600160a01b0395909516949094179093556006909201805460ff191691151591909117905592915050565b600354600160a01b900460ff1681565b600054604080516318860ac560e21b815260048181015290516001600160a01b03909216916362182b1491602480820192602092909190829003018186803b15801561222a57600080fd5b505afa15801561223e573d6000803e3d6000fd5b505050506040513d602081101561225457600080fd5b50516001600160a01b03163314806122eb5750600054604080516318860ac560e21b81526005600482015290516001600160a01b03909216916362182b1491602480820192602092909190829003018186803b1580156122b357600080fd5b505afa1580156122c7573d6000803e3d6000fd5b505050506040513d60208110156122dd57600080fd5b50516001600160a01b031633145b6122f457600080fd5b6007828154811061230157fe5b60009182526020808320600792909202909101600201805460018101825590835291200180546001600160a01b0319166001600160a01b039290921691909117905550565b6004818154811061200957600080fd5b600054604080516318860ac560e21b815260048181015290516001600160a01b03909216916362182b1491602480820192602092909190829003018186803b1580156123a157600080fd5b505afa1580156123b5573d6000803e3d6000fd5b505050506040513d60208110156123cb57600080fd5b50516001600160a01b03163314806124625750600054604080516318860ac560e21b81526005600482015290516001600160a01b03909216916362182b1491602480820192602092909190829003018186803b15801561242a57600080fd5b505afa15801561243e573d6000803e3d6000fd5b505050506040513d602081101561245457600080fd5b50516001600160a01b031633145b61246b57600080fd5b806007838154811061247957fe5b9060005260206000209060070201600501819055505050565b600054604080516318860ac560e21b815260048181015290516001600160a01b03909216916362182b1491602480820192602092909190829003018186803b1580156124dd57600080fd5b505afa1580156124f1573d6000803e3d6000fd5b505050506040513d602081101561250757600080fd5b50516001600160a01b031633148061259e5750600054604080516318860ac560e21b81526005600482015290516001600160a01b03909216916362182b1491602480820192602092909190829003018186803b15801561256657600080fd5b505afa15801561257a573d6000803e3d6000fd5b505050506040513d602081101561259057600080fd5b50516001600160a01b031633145b6125a757600080fd5b6000546001600160a01b0316ff5b6060600782815481106125c457fe5b6000918252602091829020600790910201805460408051601f6002600019610100600187161502019094169390930492830185900485028101850190915281815292830182828015610f7f5780601f10610f5457610100808354040283529160200191610f7f565b60075490565b600054604080516318860ac560e21b815260048181015290516001600160a01b03909216916362182b1491602480820192602092909190829003018186803b15801561267d57600080fd5b505afa158015612691573d6000803e3d6000fd5b505050506040513d60208110156126a757600080fd5b50516001600160a01b031633148061273e5750600054604080516318860ac560e21b81526005600482015290516001600160a01b03909216916362182b1491602480820192602092909190829003018186803b15801561270657600080fd5b505afa15801561271a573d6000803e3d6000fd5b505050506040513d602081101561273057600080fd5b50516001600160a01b031633145b61274757600080fd5b806007838154811061275557fe5b60009182526020909120600790910201600601805460ff19169115159190911790555050565b600054604080516318860ac560e21b815260048181015290516001600160a01b03909216916362182b1491602480820192602092909190829003018186803b1580156127c657600080fd5b505afa1580156127da573d6000803e3d6000fd5b505050506040513d60208110156127f057600080fd5b50516001600160a01b03163314806128875750600054604080516318860ac560e21b81526005600482015290516001600160a01b03909216916362182b1491602480820192602092909190829003018186803b15801561284f57600080fd5b505afa158015612863573d6000803e3d6000fd5b505050506040513d602081101561287957600080fd5b50516001600160a01b031633145b61289057600080fd5b806008838154811061289e57fe5b9060005260206000209060030201600201819055505050565b600054604080516318860ac560e21b815260048181015290516001600160a01b03909216916362182b1491602480820192602092909190829003018186803b15801561290257600080fd5b505afa158015612916573d6000803e3d6000fd5b505050506040513d602081101561292c57600080fd5b50516001600160a01b03163314806129c35750600054604080516318860ac560e21b81526005600482015290516001600160a01b03909216916362182b1491602480820192602092909190829003018186803b15801561298b57600080fd5b505afa15801561299f573d6000803e3d6000fd5b505050506040513d60208110156129b557600080fd5b50516001600160a01b031633145b6129cc57600080fd5b600180546001600160a01b0319166001600160a01b0392909216919091179055565b60025490565b600054604080516318860ac560e21b815260048181015290516001600160a01b03909216916362182b1491602480820192602092909190829003018186803b158015612a3f57600080fd5b505afa158015612a53573d6000803e3d6000fd5b505050506040513d6020811015612a6957600080fd5b50516001600160a01b0316331480612b005750600054604080516318860ac560e21b81526005600482015290516001600160a01b03909216916362182b1491602480820192602092909190829003018186803b158015612ac857600080fd5b505afa158015612adc573d6000803e3d6000fd5b505050506040513d6020811015612af257600080fd5b50516001600160a01b031633145b612b0957600080fd5b604080516060810182526001600160a01b039485168152602081019384529081019182526008805460018101825560009190915290517ff3f7a9fe364faab93b216da50a3214154f22a0a2b415b23a84c8169e8b636ee3600390920291820180546001600160a01b031916919095161790935590517ff3f7a9fe364faab93b216da50a3214154f22a0a2b415b23a84c8169e8b636ee4830155517ff3f7a9fe364faab93b216da50a3214154f22a0a2b415b23a84c8169e8b636ee590910155565b600054604080516318860ac560e21b815260048181015290516001600160a01b03909216916362182b1491602480820192602092909190829003018186803b158015612c1557600080fd5b505afa158015612c29573d6000803e3d6000fd5b505050506040513d6020811015612c3f57600080fd5b50516001600160a01b0316331480612cd65750600054604080516318860ac560e21b81526005600482015290516001600160a01b03909216916362182b1491602480820192602092909190829003018186803b158015612c9e57600080fd5b505afa158015612cb2573d6000803e3d6000fd5b505050506040513d6020811015612cc857600080fd5b50516001600160a01b031633145b612cdf57600080fd5b600280546001810182556000919091527f405787fa12a823e0f2b7631cc41b3ba8828b3321ca811111fa75cd3aa3bb5ace0180546001600160a01b0319166001600160a01b0392909216919091179055565b6001546001600160a01b031681565b600054604080516318860ac560e21b815260048181015290516001600160a01b03909216916362182b1491602480820192602092909190829003018186803b158015612d8b57600080fd5b505afa158015612d9f573d6000803e3d6000fd5b505050506040513d6020811015612db557600080fd5b50516001600160a01b0316331480612e4c5750600054604080516318860ac560e21b81526005600482015290516001600160a01b03909216916362182b1491602480820192602092909190829003018186803b158015612e1457600080fd5b505afa158015612e28573d6000803e3d6000fd5b505050506040513d6020811015612e3e57600080fd5b50516001600160a01b031633145b612e5557600080fd5b8060078381548110612e6357fe5b9060005260206000209060070201600101908051906020019061119e92919061382b565b600054604080516318860ac560e21b815260048181015290516001600160a01b03909216916362182b1491602480820192602092909190829003018186803b158015612ed257600080fd5b505afa158015612ee6573d6000803e3d6000fd5b505050506040513d6020811015612efc57600080fd5b50516001600160a01b0316331480612f935750600054604080516318860ac560e21b81526005600482015290516001600160a01b03909216916362182b1491602480820192602092909190829003018186803b158015612f5b57600080fd5b505afa158015612f6f573d6000803e3d6000fd5b505050506040513d6020811015612f8557600080fd5b50516001600160a01b031633145b612f9c57600080fd5b6000805b60078481548110612fad57fe5b9060005260206000209060070201600201805490508110156130cc57826001600160a01b031660078581548110612fe057fe5b90600052602060002090600702016002018281548110612ffc57fe5b6000918252602090912001546001600160a01b03161415613022576001909101906130c4565b81156130c4576007848154811061303557fe5b9060005260206000209060070201600201818154811061305157fe5b600091825260209091200154600780546001600160a01b03909216918690811061307757fe5b90600052602060002090600702016002018383038154811061309557fe5b9060005260206000200160006101000a8154816001600160a01b0302191690836001600160a01b031602179055505b600101612fa0565b5060005b8181101561312957600784815481106130e557fe5b90600052602060002090600702016002018054806130ff57fe5b600082815260209020810160001990810180546001600160a01b03191690550190556001016130d0565b50505050565b600054604080516318860ac560e21b815260048181015290516001600160a01b03909216916362182b1491602480820192602092909190829003018186803b15801561317a57600080fd5b505afa15801561318e573d6000803e3d6000fd5b505050506040513d60208110156131a457600080fd5b50516001600160a01b031633148061323b5750600054604080516318860ac560e21b81526005600482015290516001600160a01b03909216916362182b1491602480820192602092909190829003018186803b15801561320357600080fd5b505afa158015613217573d6000803e3d6000fd5b505050506040513d602081101561322d57600080fd5b50516001600160a01b031633145b61324457600080fd5b806008838154811061325257fe5b9060005260206000209060030201600101819055505050565b600054604080516318860ac560e21b815260048181015290516001600160a01b03909216916362182b1491602480820192602092909190829003018186803b1580156132b657600080fd5b505afa1580156132ca573d6000803e3d6000fd5b505050506040513d60208110156132e057600080fd5b50516001600160a01b03163314806133775750600054604080516318860ac560e21b81526005600482015290516001600160a01b03909216916362182b1491602480820192602092909190829003018186803b15801561333f57600080fd5b505afa158015613353573d6000803e3d6000fd5b505050506040513d602081101561336957600080fd5b50516001600160a01b031633145b61338057600080fd5b600655565b60606002805480602002602001604051908101604052809291908181526020018280548015611c84576020028201919060005260206000209081546001600160a01b03168152600190910190602001808311611c66575050505050905090565b6000600882815481106133f457fe5b9060005260206000209060030201600201549050919050565b60006008828154811061341c57fe5b9060005260206000209060030201600101549050919050565b600054604080516318860ac560e21b815260048181015290516001600160a01b03909216916362182b1491602480820192602092909190829003018186803b15801561348057600080fd5b505afa158015613494573d6000803e3d6000fd5b505050506040513d60208110156134aa57600080fd5b50516001600160a01b03163314806135415750600054604080516318860ac560e21b81526005600482015290516001600160a01b03909216916362182b1491602480820192602092909190829003018186803b15801561350957600080fd5b505afa15801561351d573d6000803e3d6000fd5b505050506040513d602081101561353357600080fd5b50516001600160a01b031633145b61354a57600080fd5b6000805b60085481101561363e57836001600160a01b03166008828154811061356f57fe5b60009182526020909120600390910201546001600160a01b03161480156135b35750826008828154811061359f57fe5b906000526020600020906003020160010154145b156135c357600190910190613636565b811561363657600881815481106135d657fe5b90600052602060002090600302016008838303815481106135f357fe5b60009182526020909120825460039092020180546001600160a01b0319166001600160a01b03909216919091178155600180830154908201556002918201549101555b60010161354e565b5060005b8181101561312957600880548061365557fe5b60008281526020812060036000199093019283020180546001600160a01b03191681556001818101839055600290910191909155915501613642565b600054604080516318860ac560e21b815260048181015290516001600160a01b03909216916362182b1491602480820192602092909190829003018186803b1580156136dc57600080fd5b505afa1580156136f0573d6000803e3d6000fd5b505050506040513d602081101561370657600080fd5b50516001600160a01b031633148061379d5750600054604080516318860ac560e21b81526005600482015290516001600160a01b03909216916362182b1491602480820192602092909190829003018186803b15801561376557600080fd5b505afa158015613779573d6000803e3d6000fd5b505050506040513d602081101561378f57600080fd5b50516001600160a01b031633145b6137a657600080fd5b80600783815481106137b457fe5b906000526020600020906007020160040160006101000a8154816001600160a01b0302191690836001600160a01b031602179055505050565b6000600782815481106137fc57fe5b60009182526020909120600460079092020101546001600160a01b031692915050565b60085490565b60065481565b828054600181600116156101000203166002900490600052602060002090601f01602090048101928261386157600085556138a7565b82601f1061387a57805160ff19168380011785556138a7565b828001600101855582156138a7579182015b828111156138a757825182559160200191906001019061388c565b506138b39291506138b7565b5090565b5b808211156138b357600081556001016138b856fea264697066735822122023698bc355e5f56ab76e805f1b1f1de25903baa920885d7e94f29fe2177b4af864736f6c63430007050033",
  "immutableReferences": {},
  "source": "// SPDX-License-Identifier: UNLICENSED\r\npragma solidity ^0.7.5;\r\n\r\nimport './Alexandria.sol';\r\nimport './Eniko.sol';\r\n\r\ncontract Consequence {\r\n    \r\n    using Alexandria for Alexandria.ConsequenceType;\r\n    using Alexandria for Alexandria.ConsequenceVersion;\r\n\r\n    modifier limitedAccess {\r\n        require(msg.sender == Eniko(eniko).getAppAddress(4) || msg.sender == Eniko(eniko).getAppAddress(5));\r\n        _;\r\n    }\r\n\r\n    struct Approval {\r\n        address consequence;                        // The consequence that is pending approval\r\n        uint version;                               // The version that is pending approval\r\n        uint timestamp;                             // The time the approval was requested\r\n    }\r\n    \r\n    address payable public eniko;                          // The root eniko contract from which this consequence derives.\r\n    address public author;                                 // The address of the current lead author of the contract\r\n    address[] public coAuthors;                            // Others who have contributed to this consequence\r\n    address public parent;                                 // The address of the parent\r\n    Alexandria.ConsequenceType public consequenceType;     // What is the scope of the consequence \r\n    address[] public children;                             // An array of all child consequences\r\n    address public inheritor;                              // The address which will inherit this consequence if the author disappears\r\n    uint public missedBallotCount;                         // The number of ballots that this consequence has not taken action on\r\n    Alexandria.ConsequenceVersion[] private versions;      // An array of versions of the consequence in submission order\r\n    Approval[] private pendingApprovals;                   // The approvals which are currently pending approval via this consequence\r\n    \r\n\r\n    // Constructor \r\n\r\n    constructor(address payable eniko_) {\r\n        eniko = eniko_;\r\n        versions.push();\r\n    }\r\n\r\n    // Admin Functions\r\n\r\n    function destroy() external limitedAccess  {\r\n        selfdestruct(eniko);\r\n    }\r\n\r\n    // Getters\r\n\r\n    function getCoAuthors() external view returns(address[] memory coauthors_) {\r\n        coauthors_ = coAuthors;\r\n    }\r\n\r\n    function getCoAuthorsCount() external view returns(uint count_) {\r\n        count_ = coAuthors.length;\r\n    }\r\n\r\n    function getChildren() external view returns(address[] memory children_) {\r\n        children_ = children;\r\n    }\r\n\r\n    function getChildrenCount() external view returns(uint count_) {\r\n        count_ = children.length;\r\n    }\r\n\r\n    // Getters - versions\r\n\r\n    function getVersionCount() external view returns(uint versionCount_) {\r\n        versionCount_ = versions.length;\r\n    }\r\n    \r\n    function getTitle(uint version_) external view returns(string memory title_) {\r\n        title_ = versions[version_].title;\r\n    }\r\n\r\n    function getContent(uint version_) external view returns(string memory content_) {\r\n        content_ = versions[version_].content;\r\n    }\r\n    \r\n    function getPendingApprovers(uint version_) external view returns(address[] memory pendingApprovers_) {\r\n        pendingApprovers_ = versions[version_].pendingApprovers;\r\n    }\r\n\r\n    function getPendingApproverCount(uint version_) external view returns(uint approverCount_) {\r\n        approverCount_ = versions[version_].pendingApprovers.length;\r\n    }\r\n\r\n    function getPendingApprover(uint version_, uint index_) external view returns(address approver_) {\r\n        approver_ = versions[version_].pendingApprovers[index_];\r\n    }\r\n\r\n    function getDecryptionKey(uint version_, address address_) external view returns(bytes32 encryptedKey_) {\r\n        encryptedKey_ = versions[version_].encryptedKeys[address_];\r\n    }\r\n\r\n    function getVersionAuthor(uint version_) external view returns(address coauthor_) {\r\n        coauthor_ = versions[version_].author;\r\n    }\r\n\r\n    function getOriginalApproverCount(uint version_) external view returns(uint count_) {\r\n        count_ = versions[version_].originalApproverCount;\r\n    }\r\n\r\n    function isRejected(uint version_) external view returns(bool rejected_) {\r\n        rejected_ = versions[version_].rejected;\r\n    }\r\n\r\n    // Getters - pendingApprovals\r\n\r\n    function getPendingApprovalsCount() external view returns(uint count_) {\r\n        count_ = pendingApprovals.length;\r\n    }\r\n\r\n    function getPendingApprovalConsequence(uint index_) external view returns(address consequence_) {\r\n        consequence_ = pendingApprovals[index_].consequence;\r\n    }\r\n\r\n    function getPendingApprovalVersion(uint index_) external view returns(uint version_) {\r\n        version_ = pendingApprovals[index_].version;\r\n    }\r\n\r\n    function getPendingApprovalTimestamp(uint i_) external view returns(uint timestamp_) {\r\n        timestamp_ = pendingApprovals[i_].timestamp;\r\n    }\r\n\r\n    // Setters\r\n\r\n    function setEniko(address payable eniko_) external limitedAccess {\r\n        eniko = eniko_;\r\n    }\r\n\r\n    function setAuthor(address author_) external limitedAccess {\r\n        author = author_;\r\n    }\r\n\r\n    function addCoAuthor(address coauthor_) external limitedAccess {\r\n        coAuthors.push(coauthor_);\r\n    }\r\n\r\n    function removeCoAuthor(address coauthor_) external limitedAccess {\r\n        uint j = 0;\r\n        for (uint i = 0; i < coAuthors.length; i++) {\r\n            if (coAuthors[i] == coauthor_) {\r\n                j++;\r\n            }\r\n            else {\r\n                if (j>0) {\r\n                    coAuthors[i-j] = coAuthors[i];\r\n                }\r\n            }\r\n        }\r\n        for (uint i = 0; i < j; i++) {\r\n            coAuthors.pop();\r\n        }\r\n    }\r\n\r\n    function setParent(address parent_) external limitedAccess {\r\n        parent = parent_;\r\n    }\r\n\r\n    function setType(Alexandria.ConsequenceType type_) external limitedAccess {\r\n        consequenceType = type_;\r\n    }\r\n\r\n    function addChild(address consequence_) external limitedAccess {\r\n        children.push(consequence_);\r\n    }\r\n\r\n    function removeChild(address consequence_) external limitedAccess {\r\n        uint j = 0;\r\n        for (uint i = 0; i < children.length; i++) {\r\n            if (children[i] == consequence_) {\r\n                j++;\r\n            }\r\n            else {\r\n                if (j>0) {\r\n                    children[i-j] = children[i];\r\n                }\r\n            }\r\n        }\r\n        for (uint i = 0; i < j; i++) {\r\n            children.pop();\r\n        }\r\n    }\r\n\r\n    function setInheritor(address inheritor_) external limitedAccess {\r\n        inheritor = inheritor_;\r\n    }\r\n\r\n    function setMissedBallotCount(uint count_) external limitedAccess {\r\n        missedBallotCount = count_;\r\n    }\r\n\r\n    function incrementMissedBallotCount() external limitedAccess {\r\n        missedBallotCount++;\r\n    }\r\n\r\n    function decrementMissedBallotCount() external limitedAccess {\r\n        missedBallotCount--;\r\n    }\r\n\r\n    // Setters - versions\r\n\r\n    function addVersion(string memory title_, string memory content_, address coauthor_, bool rejected_) external limitedAccess returns(uint versionNumber_) {\r\n        versions.push();\r\n        versionNumber_ = versions.length - 1;\r\n        Alexandria.ConsequenceVersion storage version = versions[versions.length - 1];\r\n        version.title = title_;\r\n        version.content = content_;\r\n        version.author = coauthor_;\r\n        version.rejected = rejected_;\r\n    }\r\n    \r\n    function setTitle(uint version_, string memory title_) external limitedAccess {\r\n        versions[version_].title = title_;\r\n    }\r\n\r\n    function setContent(uint version_, string memory content_) external limitedAccess {\r\n        versions[version_].content = content_;\r\n    }\r\n    \r\n    function addPendingApprover(uint version_, address approver_) external limitedAccess {\r\n        versions[version_].pendingApprovers.push(approver_);\r\n    }\r\n\r\n    function removePendingApprover(uint version_, address approver_) external limitedAccess {\r\n        uint j = 0;\r\n        for (uint i = 0; i < versions[version_].pendingApprovers.length; i++) {\r\n            if (versions[version_].pendingApprovers[i] == approver_) {\r\n                j++;\r\n            }\r\n            else {\r\n                if (j>0) {\r\n                    versions[version_].pendingApprovers[i-j] = versions[version_].pendingApprovers[i];\r\n                }\r\n            }\r\n        }\r\n        for (uint i = 0; i < j; i++) {\r\n            versions[version_].pendingApprovers.pop();\r\n        }\r\n    }\r\n\r\n    function setDecryptionKey(uint version_, address address_, bytes32 encryptedKey_) external limitedAccess {\r\n        versions[version_].encryptedKeys[address_] = encryptedKey_;\r\n    }\r\n\r\n    function setVersionAuthor(uint version_, address author_) external limitedAccess {\r\n        versions[version_].author = author_;\r\n    }\r\n\r\n    function setOriginalApproverCount(uint version_, uint count_) external limitedAccess {\r\n        versions[version_].originalApproverCount = count_;\r\n    }\r\n\r\n    function setRejected(uint version_, bool rejected_) external limitedAccess {\r\n        versions[version_].rejected = rejected_;\r\n    }\r\n\r\n    // Setters - pendingApprovals\r\n\r\n    function addNewConsequenceToApprove(address consequence_, uint version_, uint timestamp_) external limitedAccess {\r\n        pendingApprovals.push(Approval({consequence: consequence_, version: version_, timestamp: timestamp_}));\r\n    }\r\n\r\n    function removeConsequenceToApprove(address consequence_, uint version_) external limitedAccess {\r\n        // Cycle throught the pending approvals and pull forward any to replace the one in question\r\n        uint j = 0;\r\n        for (uint i = 0; i < pendingApprovals.length; i++) {\r\n            if (pendingApprovals[i].consequence == consequence_ && pendingApprovals[i].version == version_) {\r\n                j++;\r\n            }\r\n            else {\r\n                if (j>0) {\r\n                    pendingApprovals[i-j] = pendingApprovals[i];\r\n                }\r\n            }\r\n        }\r\n        // Delete any pending approvals that have been pulled forward but not replaced\r\n        for (uint i = 0; i < j; i++) {\r\n            pendingApprovals.pop();\r\n        }\r\n    }\r\n\r\n    function setPendingApprovalConsequence(uint index_, address consequence_) external limitedAccess {\r\n        pendingApprovals[index_].consequence = consequence_;\r\n    }\r\n\r\n    function setPendingApprovalVersion(uint index_, uint version_) external limitedAccess {\r\n        pendingApprovals[index_].version = version_;\r\n    }\r\n\r\n    function setPendingApprovalTimestamp(uint index_, uint timestamp_) external limitedAccess {\r\n        pendingApprovals[index_].timestamp = timestamp_;\r\n    }\r\n\r\n}",
  "sourcePath": "C:\\Users\\Jonathan\\OneDrive\\Project Eniko\\Eniko\\contracts\\Consequence.sol",
  "compiler": {
    "name": "solc",
    "version": "0.7.5+commit.eb77ed08.Emscripten.clang"
  },
  "schemaVersion": "3.3.4",
  "updatedAt": "2021-04-25T08:22:33.037Z",
  "devdoc": {
    "kind": "dev",
    "methods": {},
    "version": 1
  },
  "userdoc": {
    "kind": "user",
    "methods": {},
    "version": 1
  }
}