{
  "contractName": "EnikoApp",
  "abi": [
    {
      "inputs": [],
      "name": "destroy",
      "outputs": [],
      "stateMutability": "nonpayable",
      "type": "function"
    }
  ],
  "bytecode": "0x608060405234801561001057600080fd5b5060bd8061001f6000396000f3fe6080604052348015600f57600080fd5b506004361060285760003560e01c806383197ef014602d575b600080fd5b60336035565b005b6000546001600160a01b031633146079576040805162461bcd60e51b815260206004820152600360248201526234303360e81b604482015290519081900360640190fd5b6000546001600160a01b0316fffea2646970667358221220fde1596d8606e24b4d5bcc51c2ad696d37170502a9a5328772b270f6ad7f890064736f6c63430007050033",
  "immutableReferences": {},
  "source": "// SPDX-License-Identifier: UNLICENSED\r\npragma solidity ^0.7.5;\r\n\r\ncontract Eniko {\r\n\r\n    address private purpose;                // The single purpose linked to this Eniko\r\n    address private founder;                // the founder has certain proveliges until 2.2.22\r\n    EnikoApp[] private apps;                // An array of decentralised apps hosted by Eniko\r\n\r\n    // Fixed App Indices\r\n    // 0 = Null - Used as a safe value\r\n    // 1 = CitizenNeedsFunctions\r\n    // 2 = NeedDeployer\r\n    // 3 = SolutionDeployer\r\n    // 4 = ConsequenceFunctions\r\n    // 5 = ConsequenceDeployer\r\n    // 6 = null\r\n    // 7 = BallotFunctions\r\n    // 8 = BallotDeployer\r\n    // 9 = BallotList\r\n    // 10 = CitizenFunctions\r\n    // 11 = Citizens\r\n    // 12 = MessagingFramework\r\n\r\n    modifier limitedAccess {\r\n        // From 2.2.22 all changes must come via a ballot\r\n        if (block.timestamp > 1643760000) {\r\n            require(msg.sender == address(apps[7]), \"403\");\r\n        }\r\n        // Otherwise the founder may also make changes\r\n        else {\r\n            require(msg.sender == address(apps[7]) || msg.sender == founder, \"403\");\r\n        }\r\n        _;\r\n    }\r\n\r\n    constructor() {\r\n        founder = msg.sender;\r\n        for (uint i=0; i < 13; i++) {\r\n            apps.push();\r\n        }\r\n    }\r\n\r\n    // Setters\r\n\r\n    function setPurpose(address purpose_) external limitedAccess {\r\n        purpose = purpose_;\r\n    }\r\n\r\n    function updateAppAddress(uint index_, address newAppAddress_) external limitedAccess returns(uint finalIndex_) {\r\n        require(index_ != 0, \"Null address cannot be updated\");\r\n        // Avoid gaps\r\n        if (index_ >= apps.length) {\r\n            finalIndex_ = apps.length;\r\n            apps.push();\r\n        }\r\n        else {\r\n            if (address(apps[index_]) != newAppAddress_ && address(apps[index_]) != address(0x00)) {\r\n                apps[index_].destroy();\r\n            }\r\n            finalIndex_ = index_;\r\n        }\r\n        apps[finalIndex_] = EnikoApp(newAppAddress_);\r\n    }\r\n\r\n    // Getters\r\n    \r\n    function getPurpose() external view returns(address purpose_) {\r\n        purpose_ = purpose;\r\n    }\r\n\r\n    function getFounder() external view returns(address founder_) {\r\n        founder_ = founder;\r\n    }\r\n\r\n    function getAppAddress(uint index_) external view returns(address address_) {\r\n        address_ = address(apps[index_]);\r\n    }\r\n\r\n    function getAppCount() external view returns(uint count_) {\r\n        count_ = apps.length;\r\n    }\r\n\r\n    // Destruction\r\n\r\n    function destroy() external limitedAccess {\r\n        selfdestruct(msg.sender);\r\n    }\r\n\r\n    function destroyAll() external limitedAccess {\r\n        for (uint i=0; i < apps.length; i++) {\r\n            if (address(apps[i]) != address(0x00)) {\r\n                apps[i].destroy();\r\n            }\r\n        }\r\n        selfdestruct(msg.sender);\r\n    }\r\n\r\n    // Payable Functions\r\n\r\n    receive() external payable {}\r\n    fallback() external payable {}\r\n\r\n}\r\n\r\n// All apps must be EnikoApps\r\ncontract EnikoApp {\r\n\r\n    address payable eniko;                    // The root eniko contract from which this consequence derives.\r\n\r\n    function destroy() external {\r\n        require(msg.sender == eniko, \"403\");\r\n        selfdestruct(eniko);\r\n    }\r\n\r\n}\r\n",
  "sourcePath": "C:\\Users\\Jonathan\\OneDrive\\Project Eniko\\Eniko\\contracts\\Eniko.sol",
  "compiler": {
    "name": "solc",
    "version": "0.7.5+commit.eb77ed08.Emscripten.clang"
  },
  "schemaVersion": "3.3.4",
  "updatedAt": "2021-04-25T08:22:33.130Z",
  "devdoc": {
    "kind": "dev",
    "methods": {},
    "version": 1
  },
  "userdoc": {
    "kind": "user",
    "methods": {},
    "version": 1
  }
}