{
  "contractName": "MessagingFramework",
  "abi": [
    {
      "inputs": [
        {
          "internalType": "address payable",
          "name": "eniko_",
          "type": "address"
        }
      ],
      "stateMutability": "nonpayable",
      "type": "constructor"
    },
    {
      "inputs": [],
      "name": "destroy",
      "outputs": [],
      "stateMutability": "nonpayable",
      "type": "function"
    }
  ],
  "bytecode": "0x608060405234801561001057600080fd5b506040516101213803806101218339818101604052602081101561003357600080fd5b5051600080546001600160a01b039092166001600160a01b031990921691909117905560bd806100646000396000f3fe6080604052348015600f57600080fd5b506004361060285760003560e01c806383197ef014602d575b600080fd5b60336035565b005b6000546001600160a01b031633146079576040805162461bcd60e51b815260206004820152600360248201526234303360e81b604482015290519081900360640190fd5b6000546001600160a01b0316fffea264697066735822122052ec22392273c19004f6caf2de8729acf9b87e93b26a04d741bc8d7e69275a4964736f6c63430007050033",
  "immutableReferences": {},
  "source": "// SPDX-License-Identifier: GPL-3.0\r\npragma solidity ^0.7.5;\r\n\r\nimport './Eniko.sol';\r\n\r\ncontract MessagingFramework is EnikoApp {\r\n\r\n    constructor(address payable eniko_) {\r\n        eniko = eniko_;\r\n    }\r\n}",
  "sourcePath": "C:/Users/Jonathan/OneDrive/Project Eniko/Eniko/contracts/MessagingFramework.sol",
  "compiler": {
    "name": "solc",
    "version": "0.7.5+commit.eb77ed08.Emscripten.clang"
  },
  "schemaVersion": "3.3.4",
  "updatedAt": "2021-03-30T18:44:42.721Z",
  "devdoc": {
    "kind": "dev",
    "methods": {},
    "version": 1
  },
  "userdoc": {
    "kind": "user",
    "methods": {},
    "version": 1
  }
}